{
  "abi": [
    {
      "inputs": [],
      "name": "A",
      "outputs": [
        {
          "internalType": "uint256",
          "name": "",
          "type": "uint256"
        }
      ],
      "stateMutability": "view",
      "type": "function"
    },
    {
      "inputs": [],
      "name": "G1x",
      "outputs": [
        {
          "internalType": "uint256",
          "name": "",
          "type": "uint256"
        }
      ],
      "stateMutability": "view",
      "type": "function"
    },
    {
      "inputs": [],
      "name": "G1y",
      "outputs": [
        {
          "internalType": "uint256",
          "name": "",
          "type": "uint256"
        }
      ],
      "stateMutability": "view",
      "type": "function"
    },
    {
      "inputs": [],
      "name": "N",
      "outputs": [
        {
          "internalType": "uint256",
          "name": "",
          "type": "uint256"
        }
      ],
      "stateMutability": "view",
      "type": "function"
    },
    {
      "inputs": [],
      "name": "P",
      "outputs": [
        {
          "internalType": "uint256",
          "name": "",
          "type": "uint256"
        }
      ],
      "stateMutability": "view",
      "type": "function"
    },
    {
      "inputs": [
        {
          "internalType": "uint256",
          "name": "x",
          "type": "uint256"
        },
        {
          "internalType": "uint256",
          "name": "n",
          "type": "uint256"
        }
      ],
      "name": "addmodn",
      "outputs": [
        {
          "internalType": "uint256",
          "name": "",
          "type": "uint256"
        }
      ],
      "stateMutability": "pure",
      "type": "function"
    },
    {
      "inputs": [
        {
          "internalType": "uint256[2]",
          "name": "p0",
          "type": "uint256[2]"
        },
        {
          "internalType": "uint256[2]",
          "name": "p1",
          "type": "uint256[2]"
        }
      ],
      "name": "ecAdd",
      "outputs": [
        {
          "internalType": "uint256[2]",
          "name": "retP",
          "type": "uint256[2]"
        }
      ],
      "stateMutability": "view",
      "type": "function"
    },
    {
      "inputs": [
        {
          "internalType": "uint256[2]",
          "name": "p",
          "type": "uint256[2]"
        },
        {
          "internalType": "uint256",
          "name": "s",
          "type": "uint256"
        }
      ],
      "name": "ecMul",
      "outputs": [
        {
          "internalType": "uint256[2]",
          "name": "retP",
          "type": "uint256[2]"
        }
      ],
      "stateMutability": "view",
      "type": "function"
    },
    {
      "inputs": [
        {
          "internalType": "uint256",
          "name": "s",
          "type": "uint256"
        }
      ],
      "name": "ecMulG",
      "outputs": [
        {
          "internalType": "uint256[2]",
          "name": "retP",
          "type": "uint256[2]"
        }
      ],
      "stateMutability": "view",
      "type": "function"
    },
    {
      "inputs": [
        {
          "internalType": "uint256",
          "name": "x",
          "type": "uint256"
        }
      ],
      "name": "evalCurve",
      "outputs": [
        {
          "internalType": "uint256",
          "name": "",
          "type": "uint256"
        },
        {
          "internalType": "uint256",
          "name": "",
          "type": "uint256"
        }
      ],
      "stateMutability": "view",
      "type": "function"
    },
    {
      "inputs": [
        {
          "internalType": "uint256",
          "name": "x",
          "type": "uint256"
        }
      ],
      "name": "modn",
      "outputs": [
        {
          "internalType": "uint256",
          "name": "",
          "type": "uint256"
        }
      ],
      "stateMutability": "pure",
      "type": "function"
    },
    {
      "inputs": [
        {
          "internalType": "uint256",
          "name": "x",
          "type": "uint256"
        },
        {
          "internalType": "uint256",
          "name": "y",
          "type": "uint256"
        }
      ],
      "name": "onCurve",
      "outputs": [
        {
          "internalType": "bool",
          "name": "",
          "type": "bool"
        }
      ],
      "stateMutability": "pure",
      "type": "function"
    },
    {
      "inputs": [
        {
          "internalType": "uint256",
          "name": "beta",
          "type": "uint256"
        },
        {
          "internalType": "uint256",
          "name": "y",
          "type": "uint256"
        }
      ],
      "name": "onCurveBeta",
      "outputs": [
        {
          "internalType": "bool",
          "name": "",
          "type": "bool"
        }
      ],
      "stateMutability": "pure",
      "type": "function"
    },
    {
      "inputs": [
        {
          "internalType": "uint256",
          "name": "base",
          "type": "uint256"
        },
        {
          "internalType": "uint256",
          "name": "e",
          "type": "uint256"
        },
        {
          "internalType": "uint256",
          "name": "m",
          "type": "uint256"
        }
      ],
      "name": "powmod",
      "outputs": [
        {
          "internalType": "uint256",
          "name": "o",
          "type": "uint256"
        }
      ],
      "stateMutability": "view",
      "type": "function"
    }
  ],
  "bytecode": "61075661003a600b82828239805160001a60731461002d57634e487b7160e01b600052600060045260246000fd5b30600052607381538281f3fe73000000000000000000000000000000000000000030146080604052600436106100f45760003560e01c8063a1807b9c11610096578063c690219b11610070578063c690219b146101d3578063c9e525df146101fb578063e76ee24214610222578063f446c1d01461023557600080fd5b8063a1807b9c146101b0578063a867d0ca146101b8578063b93af8e0146101cb57600080fd5b8063669d9448116100d2578063669d94481461015257806371de37241461017557806381dd69fe146101885780638b8fbd921461019b57600080fd5b8063309ef832146100f957806345c373181461011f5780634f06f2791461013f575b600080fd5b61010c610107366004610552565b61025c565b6040519081526020015b60405180910390f35b61013261012d36600461057e565b6102a8565b6040516101169190610597565b61010c61014d36600461057e565b6102d6565b6101656101603660046105c8565b610302565b6040519015158152602001610116565b610132610183366004610668565b610354565b6101656101963660046105c8565b6103c5565b61010c60008051602061070183398151915281565b61010c600281565b6101326101c6366004610693565b6103e2565b61010c600181565b6101e66101e136600461057e565b61047f565b60408051928352602083019190915201610116565b61010c7f30644e72e131a029b85045b68181585d2833e84879b9709143e1f593f000000181565b61010c6102303660046105c8565b610507565b61010c7f0c19139cb84c680a6e14116da060561765e05aa45a1c72a34f082305b61f3f5281565b600060405160208152602080820152602060408201528460608201528360808201528260a082015260208160c08360056107d05a03fa808061029d57600080fd5b505051949350505050565b6102b0610534565b6102d0604051806040016040528060018152602001600281525083610354565b92915050565b60006102d07f30644e72e131a029b85045b68181585d2833e84879b9709143e1f593f0000001836106c8565b6000806000805160206107018339815191528485099050600080516020610701833981519152848209905060008051602061070183398151915260038208905061034c81846103c5565b949350505050565b61035c610534565b600060405180606001604052808560006002811061037c5761037c6106ea565b6020020151815260200185600160028110610399576103996106ea565b602002015181526020018481525090506040826060836007600019fa6103be57600080fd5b5092915050565b600060008051602061070183398151915282830990921492915050565b6103ea610534565b600060405180608001604052808560006002811061040a5761040a6106ea565b6020020151815260200185600160028110610427576104276106ea565b6020020151815260200184600060028110610444576104446106ea565b6020020151815260200184600160028110610461576104616106ea565b6020020151905290506040826080836006600019fa6103be57600080fd5b600080806000805160206107018339815191528485099050600080516020610701833981519152848209905060008051602061070183398151915260038208905060006104fb827f0c19139cb84c680a6e14116da060561765e05aa45a1c72a34f082305b61f3f5260008051602061070183398151915261025c565b91959194509092505050565b60007f30644e72e131a029b85045b68181585d2833e84879b9709143e1f593f00000018284089392505050565b60405180604001604052806002906020820280368337509192915050565b60008060006060848603121561056757600080fd5b505081359360208301359350604090920135919050565b60006020828403121561059057600080fd5b5035919050565b60408101818360005b60028110156105bf5781518352602092830192909101906001016105a0565b50505092915050565b600080604083850312156105db57600080fd5b50508035926020909101359150565b600082601f8301126105fb57600080fd5b6040516040810181811067ffffffffffffffff8211171561062c57634e487b7160e01b600052604160045260246000fd5b806040525080604084018581111561064357600080fd5b845b8181101561065d578035835260209283019201610645565b509195945050505050565b6000806060838503121561067b57600080fd5b61068584846105ea565b946040939093013593505050565b600080608083850312156106a657600080fd5b6106b084846105ea565b91506106bf84604085016105ea565b90509250929050565b6000826106e557634e487b7160e01b600052601260045260246000fd5b500690565b634e487b7160e01b600052603260045260246000fdfe30644e72e131a029b85045b68181585d97816a916871ca8d3c208c16d87cfd47a2646970667358221220b9fb3b7724a990cfcac688606cb801d5f06d4bcd7f126807b137ba7bbec7dc7564736f6c634300080d0033",
  "bytecodeSha1": "fa4b0eec0472b0aedb973239408d71e4f898b345",
  "compiler": {
    "evm_version": "istanbul",
    "optimizer": {
      "enabled": true,
      "runs": 200
    },
    "version": "0.8.13+commit.abaa5c0e"
  },
  "contractName": "AltBn128",
  "language": "Solidity",
  "natspec": {
    "kind": "dev",
    "methods": {},
    "version": 1
  },
  "opcodes": "PUSH20 0x0 ADDRESS EQ PUSH1 0x80 PUSH1 0x40 MSTORE PUSH1 0x4 CALLDATASIZE LT PUSH2 0xF4 JUMPI PUSH1 0x0 CALLDATALOAD PUSH1 0xE0 SHR DUP1 PUSH4 0xA1807B9C GT PUSH2 0x96 JUMPI DUP1 PUSH4 0xC690219B GT PUSH2 0x70 JUMPI DUP1 PUSH4 0xC690219B EQ PUSH2 0x1D3 JUMPI DUP1 PUSH4 0xC9E525DF EQ PUSH2 0x1FB JUMPI DUP1 PUSH4 0xE76EE242 EQ PUSH2 0x222 JUMPI DUP1 PUSH4 0xF446C1D0 EQ PUSH2 0x235 JUMPI PUSH1 0x0 DUP1 REVERT JUMPDEST DUP1 PUSH4 0xA1807B9C EQ PUSH2 0x1B0 JUMPI DUP1 PUSH4 0xA867D0CA EQ PUSH2 0x1B8 JUMPI DUP1 PUSH4 0xB93AF8E0 EQ PUSH2 0x1CB JUMPI PUSH1 0x0 DUP1 REVERT JUMPDEST DUP1 PUSH4 0x669D9448 GT PUSH2 0xD2 JUMPI DUP1 PUSH4 0x669D9448 EQ PUSH2 0x152 JUMPI DUP1 PUSH4 0x71DE3724 EQ PUSH2 0x175 JUMPI DUP1 PUSH4 0x81DD69FE EQ PUSH2 0x188 JUMPI DUP1 PUSH4 0x8B8FBD92 EQ PUSH2 0x19B JUMPI PUSH1 0x0 DUP1 REVERT JUMPDEST DUP1 PUSH4 0x309EF832 EQ PUSH2 0xF9 JUMPI DUP1 PUSH4 0x45C37318 EQ PUSH2 0x11F JUMPI DUP1 PUSH4 0x4F06F279 EQ PUSH2 0x13F JUMPI JUMPDEST PUSH1 0x0 DUP1 REVERT JUMPDEST PUSH2 0x10C PUSH2 0x107 CALLDATASIZE PUSH1 0x4 PUSH2 0x552 JUMP JUMPDEST PUSH2 0x25C JUMP JUMPDEST PUSH1 0x40 MLOAD SWAP1 DUP2 MSTORE PUSH1 0x20 ADD JUMPDEST PUSH1 0x40 MLOAD DUP1 SWAP2 SUB SWAP1 RETURN JUMPDEST PUSH2 0x132 PUSH2 0x12D CALLDATASIZE PUSH1 0x4 PUSH2 0x57E JUMP JUMPDEST PUSH2 0x2A8 JUMP JUMPDEST PUSH1 0x40 MLOAD PUSH2 0x116 SWAP2 SWAP1 PUSH2 0x597 JUMP JUMPDEST PUSH2 0x10C PUSH2 0x14D CALLDATASIZE PUSH1 0x4 PUSH2 0x57E JUMP JUMPDEST PUSH2 0x2D6 JUMP JUMPDEST PUSH2 0x165 PUSH2 0x160 CALLDATASIZE PUSH1 0x4 PUSH2 0x5C8 JUMP JUMPDEST PUSH2 0x302 JUMP JUMPDEST PUSH1 0x40 MLOAD SWAP1 ISZERO ISZERO DUP2 MSTORE PUSH1 0x20 ADD PUSH2 0x116 JUMP JUMPDEST PUSH2 0x132 PUSH2 0x183 CALLDATASIZE PUSH1 0x4 PUSH2 0x668 JUMP JUMPDEST PUSH2 0x354 JUMP JUMPDEST PUSH2 0x165 PUSH2 0x196 CALLDATASIZE PUSH1 0x4 PUSH2 0x5C8 JUMP JUMPDEST PUSH2 0x3C5 JUMP JUMPDEST PUSH2 0x10C PUSH1 0x0 DUP1 MLOAD PUSH1 0x20 PUSH2 0x701 DUP4 CODECOPY DUP2 MLOAD SWAP2 MSTORE DUP2 JUMP JUMPDEST PUSH2 0x10C PUSH1 0x2 DUP2 JUMP JUMPDEST PUSH2 0x132 PUSH2 0x1C6 CALLDATASIZE PUSH1 0x4 PUSH2 0x693 JUMP JUMPDEST PUSH2 0x3E2 JUMP JUMPDEST PUSH2 0x10C PUSH1 0x1 DUP2 JUMP JUMPDEST PUSH2 0x1E6 PUSH2 0x1E1 CALLDATASIZE PUSH1 0x4 PUSH2 0x57E JUMP JUMPDEST PUSH2 0x47F JUMP JUMPDEST PUSH1 0x40 DUP1 MLOAD SWAP3 DUP4 MSTORE PUSH1 0x20 DUP4 ADD SWAP2 SWAP1 SWAP2 MSTORE ADD PUSH2 0x116 JUMP JUMPDEST PUSH2 0x10C PUSH32 0x30644E72E131A029B85045B68181585D2833E84879B9709143E1F593F0000001 DUP2 JUMP JUMPDEST PUSH2 0x10C PUSH2 0x230 CALLDATASIZE PUSH1 0x4 PUSH2 0x5C8 JUMP JUMPDEST PUSH2 0x507 JUMP JUMPDEST PUSH2 0x10C PUSH32 0xC19139CB84C680A6E14116DA060561765E05AA45A1C72A34F082305B61F3F52 DUP2 JUMP JUMPDEST PUSH1 0x0 PUSH1 0x40 MLOAD PUSH1 0x20 DUP2 MSTORE PUSH1 0x20 DUP1 DUP3 ADD MSTORE PUSH1 0x20 PUSH1 0x40 DUP3 ADD MSTORE DUP5 PUSH1 0x60 DUP3 ADD MSTORE DUP4 PUSH1 0x80 DUP3 ADD MSTORE DUP3 PUSH1 0xA0 DUP3 ADD MSTORE PUSH1 0x20 DUP2 PUSH1 0xC0 DUP4 PUSH1 0x5 PUSH2 0x7D0 GAS SUB STATICCALL DUP1 DUP1 PUSH2 0x29D JUMPI PUSH1 0x0 DUP1 REVERT JUMPDEST POP POP MLOAD SWAP5 SWAP4 POP POP POP POP JUMP JUMPDEST PUSH2 0x2B0 PUSH2 0x534 JUMP JUMPDEST PUSH2 0x2D0 PUSH1 0x40 MLOAD DUP1 PUSH1 0x40 ADD PUSH1 0x40 MSTORE DUP1 PUSH1 0x1 DUP2 MSTORE PUSH1 0x20 ADD PUSH1 0x2 DUP2 MSTORE POP DUP4 PUSH2 0x354 JUMP JUMPDEST SWAP3 SWAP2 POP POP JUMP JUMPDEST PUSH1 0x0 PUSH2 0x2D0 PUSH32 0x30644E72E131A029B85045B68181585D2833E84879B9709143E1F593F0000001 DUP4 PUSH2 0x6C8 JUMP JUMPDEST PUSH1 0x0 DUP1 PUSH1 0x0 DUP1 MLOAD PUSH1 0x20 PUSH2 0x701 DUP4 CODECOPY DUP2 MLOAD SWAP2 MSTORE DUP5 DUP6 MULMOD SWAP1 POP PUSH1 0x0 DUP1 MLOAD PUSH1 0x20 PUSH2 0x701 DUP4 CODECOPY DUP2 MLOAD SWAP2 MSTORE DUP5 DUP3 MULMOD SWAP1 POP PUSH1 0x0 DUP1 MLOAD PUSH1 0x20 PUSH2 0x701 DUP4 CODECOPY DUP2 MLOAD SWAP2 MSTORE PUSH1 0x3 DUP3 ADDMOD SWAP1 POP PUSH2 0x34C DUP2 DUP5 PUSH2 0x3C5 JUMP JUMPDEST SWAP5 SWAP4 POP POP POP POP JUMP JUMPDEST PUSH2 0x35C PUSH2 0x534 JUMP JUMPDEST PUSH1 0x0 PUSH1 0x40 MLOAD DUP1 PUSH1 0x60 ADD PUSH1 0x40 MSTORE DUP1 DUP6 PUSH1 0x0 PUSH1 0x2 DUP2 LT PUSH2 0x37C JUMPI PUSH2 0x37C PUSH2 0x6EA JUMP JUMPDEST PUSH1 0x20 MUL ADD MLOAD DUP2 MSTORE PUSH1 0x20 ADD DUP6 PUSH1 0x1 PUSH1 0x2 DUP2 LT PUSH2 0x399 JUMPI PUSH2 0x399 PUSH2 0x6EA JUMP JUMPDEST PUSH1 0x20 MUL ADD MLOAD DUP2 MSTORE PUSH1 0x20 ADD DUP5 DUP2 MSTORE POP SWAP1 POP PUSH1 0x40 DUP3 PUSH1 0x60 DUP4 PUSH1 0x7 PUSH1 0x0 NOT STATICCALL PUSH2 0x3BE JUMPI PUSH1 0x0 DUP1 REVERT JUMPDEST POP SWAP3 SWAP2 POP POP JUMP JUMPDEST PUSH1 0x0 PUSH1 0x0 DUP1 MLOAD PUSH1 0x20 PUSH2 0x701 DUP4 CODECOPY DUP2 MLOAD SWAP2 MSTORE DUP3 DUP4 MULMOD SWAP1 SWAP3 EQ SWAP3 SWAP2 POP POP JUMP JUMPDEST PUSH2 0x3EA PUSH2 0x534 JUMP JUMPDEST PUSH1 0x0 PUSH1 0x40 MLOAD DUP1 PUSH1 0x80 ADD PUSH1 0x40 MSTORE DUP1 DUP6 PUSH1 0x0 PUSH1 0x2 DUP2 LT PUSH2 0x40A JUMPI PUSH2 0x40A PUSH2 0x6EA JUMP JUMPDEST PUSH1 0x20 MUL ADD MLOAD DUP2 MSTORE PUSH1 0x20 ADD DUP6 PUSH1 0x1 PUSH1 0x2 DUP2 LT PUSH2 0x427 JUMPI PUSH2 0x427 PUSH2 0x6EA JUMP JUMPDEST PUSH1 0x20 MUL ADD MLOAD DUP2 MSTORE PUSH1 0x20 ADD DUP5 PUSH1 0x0 PUSH1 0x2 DUP2 LT PUSH2 0x444 JUMPI PUSH2 0x444 PUSH2 0x6EA JUMP JUMPDEST PUSH1 0x20 MUL ADD MLOAD DUP2 MSTORE PUSH1 0x20 ADD DUP5 PUSH1 0x1 PUSH1 0x2 DUP2 LT PUSH2 0x461 JUMPI PUSH2 0x461 PUSH2 0x6EA JUMP JUMPDEST PUSH1 0x20 MUL ADD MLOAD SWAP1 MSTORE SWAP1 POP PUSH1 0x40 DUP3 PUSH1 0x80 DUP4 PUSH1 0x6 PUSH1 0x0 NOT STATICCALL PUSH2 0x3BE JUMPI PUSH1 0x0 DUP1 REVERT JUMPDEST PUSH1 0x0 DUP1 DUP1 PUSH1 0x0 DUP1 MLOAD PUSH1 0x20 PUSH2 0x701 DUP4 CODECOPY DUP2 MLOAD SWAP2 MSTORE DUP5 DUP6 MULMOD SWAP1 POP PUSH1 0x0 DUP1 MLOAD PUSH1 0x20 PUSH2 0x701 DUP4 CODECOPY DUP2 MLOAD SWAP2 MSTORE DUP5 DUP3 MULMOD SWAP1 POP PUSH1 0x0 DUP1 MLOAD PUSH1 0x20 PUSH2 0x701 DUP4 CODECOPY DUP2 MLOAD SWAP2 MSTORE PUSH1 0x3 DUP3 ADDMOD SWAP1 POP PUSH1 0x0 PUSH2 0x4FB DUP3 PUSH32 0xC19139CB84C680A6E14116DA060561765E05AA45A1C72A34F082305B61F3F52 PUSH1 0x0 DUP1 MLOAD PUSH1 0x20 PUSH2 0x701 DUP4 CODECOPY DUP2 MLOAD SWAP2 MSTORE PUSH2 0x25C JUMP JUMPDEST SWAP2 SWAP6 SWAP2 SWAP5 POP SWAP1 SWAP3 POP POP POP JUMP JUMPDEST PUSH1 0x0 PUSH32 0x30644E72E131A029B85045B68181585D2833E84879B9709143E1F593F0000001 DUP3 DUP5 ADDMOD SWAP4 SWAP3 POP POP POP JUMP JUMPDEST PUSH1 0x40 MLOAD DUP1 PUSH1 0x40 ADD PUSH1 0x40 MSTORE DUP1 PUSH1 0x2 SWAP1 PUSH1 0x20 DUP3 MUL DUP1 CALLDATASIZE DUP4 CALLDATACOPY POP SWAP2 SWAP3 SWAP2 POP POP JUMP JUMPDEST PUSH1 0x0 DUP1 PUSH1 0x0 PUSH1 0x60 DUP5 DUP7 SUB SLT ISZERO PUSH2 0x567 JUMPI PUSH1 0x0 DUP1 REVERT JUMPDEST POP POP DUP2 CALLDATALOAD SWAP4 PUSH1 0x20 DUP4 ADD CALLDATALOAD SWAP4 POP PUSH1 0x40 SWAP1 SWAP3 ADD CALLDATALOAD SWAP2 SWAP1 POP JUMP JUMPDEST PUSH1 0x0 PUSH1 0x20 DUP3 DUP5 SUB SLT ISZERO PUSH2 0x590 JUMPI PUSH1 0x0 DUP1 REVERT JUMPDEST POP CALLDATALOAD SWAP2 SWAP1 POP JUMP JUMPDEST PUSH1 0x40 DUP2 ADD DUP2 DUP4 PUSH1 0x0 JUMPDEST PUSH1 0x2 DUP2 LT ISZERO PUSH2 0x5BF JUMPI DUP2 MLOAD DUP4 MSTORE PUSH1 0x20 SWAP3 DUP4 ADD SWAP3 SWAP1 SWAP2 ADD SWAP1 PUSH1 0x1 ADD PUSH2 0x5A0 JUMP JUMPDEST POP POP POP SWAP3 SWAP2 POP POP JUMP JUMPDEST PUSH1 0x0 DUP1 PUSH1 0x40 DUP4 DUP6 SUB SLT ISZERO PUSH2 0x5DB JUMPI PUSH1 0x0 DUP1 REVERT JUMPDEST POP POP DUP1 CALLDATALOAD SWAP3 PUSH1 0x20 SWAP1 SWAP2 ADD CALLDATALOAD SWAP2 POP JUMP JUMPDEST PUSH1 0x0 DUP3 PUSH1 0x1F DUP4 ADD SLT PUSH2 0x5FB JUMPI PUSH1 0x0 DUP1 REVERT JUMPDEST PUSH1 0x40 MLOAD PUSH1 0x40 DUP2 ADD DUP2 DUP2 LT PUSH8 0xFFFFFFFFFFFFFFFF DUP3 GT OR ISZERO PUSH2 0x62C JUMPI PUSH4 0x4E487B71 PUSH1 0xE0 SHL PUSH1 0x0 MSTORE PUSH1 0x41 PUSH1 0x4 MSTORE PUSH1 0x24 PUSH1 0x0 REVERT JUMPDEST DUP1 PUSH1 0x40 MSTORE POP DUP1 PUSH1 0x40 DUP5 ADD DUP6 DUP2 GT ISZERO PUSH2 0x643 JUMPI PUSH1 0x0 DUP1 REVERT JUMPDEST DUP5 JUMPDEST DUP2 DUP2 LT ISZERO PUSH2 0x65D JUMPI DUP1 CALLDATALOAD DUP4 MSTORE PUSH1 0x20 SWAP3 DUP4 ADD SWAP3 ADD PUSH2 0x645 JUMP JUMPDEST POP SWAP2 SWAP6 SWAP5 POP POP POP POP POP JUMP JUMPDEST PUSH1 0x0 DUP1 PUSH1 0x60 DUP4 DUP6 SUB SLT ISZERO PUSH2 0x67B JUMPI PUSH1 0x0 DUP1 REVERT JUMPDEST PUSH2 0x685 DUP5 DUP5 PUSH2 0x5EA JUMP JUMPDEST SWAP5 PUSH1 0x40 SWAP4 SWAP1 SWAP4 ADD CALLDATALOAD SWAP4 POP POP POP JUMP JUMPDEST PUSH1 0x0 DUP1 PUSH1 0x80 DUP4 DUP6 SUB SLT ISZERO PUSH2 0x6A6 JUMPI PUSH1 0x0 DUP1 REVERT JUMPDEST PUSH2 0x6B0 DUP5 DUP5 PUSH2 0x5EA JUMP JUMPDEST SWAP2 POP PUSH2 0x6BF DUP5 PUSH1 0x40 DUP6 ADD PUSH2 0x5EA JUMP JUMPDEST SWAP1 POP SWAP3 POP SWAP3 SWAP1 POP JUMP JUMPDEST PUSH1 0x0 DUP3 PUSH2 0x6E5 JUMPI PUSH4 0x4E487B71 PUSH1 0xE0 SHL PUSH1 0x0 MSTORE PUSH1 0x12 PUSH1 0x4 MSTORE PUSH1 0x24 PUSH1 0x0 REVERT JUMPDEST POP MOD SWAP1 JUMP JUMPDEST PUSH4 0x4E487B71 PUSH1 0xE0 SHL PUSH1 0x0 MSTORE PUSH1 0x32 PUSH1 0x4 MSTORE PUSH1 0x24 PUSH1 0x0 REVERT INVALID ADDRESS PUSH5 0x4E72E131A0 0x29 0xB8 POP GASLIMIT 0xB6 DUP2 DUP2 PC 0x5D SWAP8 DUP2 PUSH11 0x916871CA8D3C208C16D87C REVERT SELFBALANCE LOG2 PUSH5 0x6970667358 0x22 SLT KECCAK256 0xB9 0xFB EXTCODESIZE PUSH24 0x24A990CFCAC688606CB801D5F06D4BCD7F126807B137BA7B 0xBE 0xC7 0xDC PUSH22 0x64736F6C634300080D00330000000000000000000000 ",
  "sha1": "37d1d1fa79a137662219cce3e9480e9ea64a3ac3",
  "source": "pragma solidity ^0.8.5;\n\n// https://github.com/ethereum/py_ecc/blob/master/py_ecc/bn128/bn128_curve.py\n\n\nlibrary AltBn128 {    \n    // https://github.com/ethereum/py_ecc/blob/master/py_ecc/bn128/bn128_curve.py\n    uint256 constant public G1x = uint256(0x01);\n    uint256 constant public G1y = uint256(0x02);\n\n    // Number of elements in the field (often called `q`)\n    // n = n(u) = 36u^4 + 36u^3 + 18u^2 + 6u + 1\n    uint256 constant public N = 0x30644e72e131a029b85045b68181585d2833e84879b9709143e1f593f0000001;\n\n    // p = p(u) = 36u^4 + 36u^3 + 24u^2 + 6u + 1\n    // Field Order\n    uint256 constant public P = 0x30644e72e131a029b85045b68181585d97816a916871ca8d3c208c16d87cfd47;\n\n    // (p+1) / 4\n    uint256 constant public A = 0xc19139cb84c680a6e14116da060561765e05aa45a1c72a34f082305b61f3f52;\n    \n\n    /* ECC Functions */\n    function ecAdd(uint256[2] memory p0, uint256[2] memory p1) public view\n        returns (uint256[2] memory retP)\n    {\n        uint256[4] memory i = [p0[0], p0[1], p1[0], p1[1]];\n        \n        assembly {\n            // call ecadd precompile\n            // inputs are: x1, y1, x2, y2\n            if iszero(staticcall(not(0), 0x06, i, 0x80, retP, 0x40)) {\n                revert(0, 0)\n            }\n        }\n    }\n\n    function ecMul(uint256[2] memory p, uint256 s) public view\n        returns (uint256[2] memory retP)\n    {\n        // With a public key (x, y), this computes p = scalar * (x, y).\n        uint256[3] memory i = [p[0], p[1], s];\n        \n        assembly {\n            // call ecmul precompile\n            // inputs are: x, y, scalar\n            if iszero(staticcall(not(0), 0x07, i, 0x60, retP, 0x40)) {\n                revert(0, 0)\n            }\n        }\n    }\n\n    function ecMulG(uint256 s) public view\n        returns (uint256[2] memory retP)\n    {\n        return ecMul([G1x, G1y], s);\n    }\n\n    function powmod(uint256 base, uint256 e, uint256 m) public view\n        returns (uint256 o)\n    {\n        // returns pow(base, e) % m\n        assembly {\n            // define pointer\n            let p := mload(0x40)\n\n            // Store data assembly-favouring ways\n            mstore(p, 0x20)             // Length of Base\n            mstore(add(p, 0x20), 0x20)  // Length of Exponent\n            mstore(add(p, 0x40), 0x20)  // Length of Modulus\n            mstore(add(p, 0x60), base)  // Base\n            mstore(add(p, 0x80), e)     // Exponent\n            mstore(add(p, 0xa0), m)     // Modulus\n\n            // call modexp precompile! -- old school gas handling\n            let success := staticcall(sub(gas(), 2000), 0x05, p, 0xc0, p, 0x20)\n\n            // gas fiddling\n            switch success case 0 {\n                revert(0, 0)\n            }\n\n            // data\n            o := mload(p)\n        }\n    }\n\n    // Keep everything contained within this lib\n    function addmodn(uint256 x, uint256 n) public pure\n        returns (uint256)\n    {\n        return addmod(x, n, N);\n    }\n\n    function modn(uint256 x) public pure\n        returns (uint256)\n    {\n        return x % N;\n    }\n\n    /*\n       Checks if the points x, y exists on alt_bn_128 curve\n    */\n    function onCurve(uint256 x, uint256 y) public pure\n        returns(bool)\n    {\n        uint256 beta = mulmod(x, x, P);\n        beta = mulmod(beta, x, P);\n        beta = addmod(beta, 3, P);\n\n        return onCurveBeta(beta, y);\n    }\n\n    function onCurveBeta(uint256 beta, uint256 y) public pure\n        returns(bool)\n    {\n        return beta == mulmod(y, y, P);\n    }\n\n    /*\n    * Calculates point y value given x\n    */\n    function evalCurve(uint256 x) public view\n        returns (uint256, uint256)\n    {\n        uint256 beta = mulmod(x, x, P);\n        beta = mulmod(beta, x, P);\n        beta = addmod(beta, 3, P);\n\n        uint256 y = powmod(beta, A, P);\n\n        // require(beta == mulmod(y, y, P), \"Invalid x for evalCurve\");\n        return (beta, y);\n    }\n}",
  "sourcePath": "contracts/lib/AltBn128.sol",
  "type": "library"
}