{
  "abi": [
    {
      "inputs": [
        {
          "internalType": "address",
          "name": "_manager",
          "type": "address"
        }
      ],
      "stateMutability": "nonpayable",
      "type": "constructor"
    },
    {
      "inputs": [],
      "name": "Forbidden",
      "type": "error"
    },
    {
      "inputs": [],
      "name": "PoolExists",
      "type": "error"
    },
    {
      "inputs": [],
      "name": "ZeroAddress",
      "type": "error"
    },
    {
      "anonymous": false,
      "inputs": [
        {
          "indexed": true,
          "internalType": "address",
          "name": "token",
          "type": "address"
        },
        {
          "indexed": false,
          "internalType": "address",
          "name": "poolAddress",
          "type": "address"
        }
      ],
      "name": "PoolCreated",
      "type": "event"
    },
    {
      "inputs": [
        {
          "internalType": "uint256",
          "name": "",
          "type": "uint256"
        }
      ],
      "name": "allPools",
      "outputs": [
        {
          "internalType": "address",
          "name": "",
          "type": "address"
        }
      ],
      "stateMutability": "view",
      "type": "function"
    },
    {
      "inputs": [],
      "name": "allPoolsLength",
      "outputs": [
        {
          "internalType": "uint256",
          "name": "",
          "type": "uint256"
        }
      ],
      "stateMutability": "view",
      "type": "function"
    },
    {
      "inputs": [
        {
          "internalType": "address",
          "name": "token",
          "type": "address"
        }
      ],
      "name": "createPool",
      "outputs": [
        {
          "internalType": "address",
          "name": "vault",
          "type": "address"
        }
      ],
      "stateMutability": "nonpayable",
      "type": "function"
    },
    {
      "inputs": [],
      "name": "manager",
      "outputs": [
        {
          "internalType": "address",
          "name": "",
          "type": "address"
        }
      ],
      "stateMutability": "view",
      "type": "function"
    },
    {
      "inputs": [
        {
          "internalType": "address",
          "name": "",
          "type": "address"
        }
      ],
      "name": "pools",
      "outputs": [
        {
          "internalType": "address",
          "name": "",
          "type": "address"
        }
      ],
      "stateMutability": "view",
      "type": "function"
    },
    {
      "inputs": [
        {
          "internalType": "address",
          "name": "_manager",
          "type": "address"
        }
      ],
      "name": "setManager",
      "outputs": [],
      "stateMutability": "nonpayable",
      "type": "function"
    }
  ],
  "bytecode": "608060405234801561001057600080fd5b5060405161190d38038061190d83398101604081905261002f91610054565b600180546001600160a01b0319166001600160a01b0392909216919091179055610084565b60006020828403121561006657600080fd5b81516001600160a01b038116811461007d57600080fd5b9392505050565b61187a806100936000396000f3fe608060405234801561001057600080fd5b50600436106100625760003560e01c806341d1de9714610067578063481c6a75146100975780639049f9d2146100aa578063a4063dbc146100bd578063d0ebdbe7146100e6578063efde4e64146100fb575b600080fd5b61007a610075366004610360565b61010c565b6040516001600160a01b0390911681526020015b60405180910390f35b60015461007a906001600160a01b031681565b61007a6100b8366004610379565b610136565b61007a6100cb366004610379565b6002602052600090815260409020546001600160a01b031681565b6100f96100f4366004610379565b610306565b005b60005460405190815260200161008e565b6000818154811061011c57600080fd5b6000918252602090912001546001600160a01b0316905081565b60006001600160a01b03821661015f5760405163d92e233d60e01b815260040160405180910390fd5b6001600160a01b03828116600090815260026020526040902054161561019857604051637a471e1360e11b815260040160405180910390fd5b6000604051806020016101aa90610353565b601f1982820381018352601f9091011660408190526bffffffffffffffffffffffff19606086901b166020820152909150600090603401604051602081830303815290604052805190602001209050808251602084016000f560405163189acdbd60e31b81526001600160a01b0386811660048301529194509084169063c4d66de890602401600060405180830381600087803b15801561024a57600080fd5b505af115801561025e573d6000803e3d6000fd5b505050506001600160a01b03848116600081815260026020908152604080832080549589166001600160a01b0319968716811790915583546001810185559380527f290decd9548b62a8d60345a988386fc84ba6bc95484008f6362f93160ef3e56390930180549095168317909455925190815290917f4f2ce4e40f623ca765fc0167a25cb7842ceaafb8d82d3dec26ca0d0e0d2d4896910160405180910390a25050919050565b6001546001600160a01b0316331461033157604051631dd2188d60e31b815260040160405180910390fd5b600180546001600160a01b0319166001600160a01b0392909216919091179055565b61149b806103aa83390190565b60006020828403121561037257600080fd5b5035919050565b60006020828403121561038b57600080fd5b81356001600160a01b03811681146103a257600080fd5b939250505056fe608060405234801561001057600080fd5b5061147b806100206000396000f3fe608060405234801561001057600080fd5b50600436106101005760003560e01c80639edb6cbd11610097578063bf12505b11610066578063bf12505b14610223578063c4d66de814610236578063d5fce73514610249578063fc0c546a1461026957600080fd5b80639edb6cbd146101eb5780639f1961e6146101ff578063abd70aa214610212578063b69ef8a81461021a57600080fd5b806371d8ded9116100d357806371d8ded91461019e5780637c0ffaa2146101b15780637f5bf51c146101b85780639325019d146101cb57600080fd5b80631b9db2ef146101055780633b97e8561461012b57806362230498146101345780636381d19e14610149575b600080fd5b610118610113366004610e1b565b610294565b6040519081526020015b60405180910390f35b61011860015481565b610147610142366004610f03565b6102b0565b005b610183610157366004610feb565b600e60209081526000928352604080842090915290825290208054600182015460049092015490919083565b60408051938452602084019290925290820152606001610122565b6101476101ac36600461100d565b610646565b6005610118565b6101186101c6366004610e1b565b610904565b6101186101d9366004610e1b565b600d6020526000908152604090205481565b6101186101f9366004610e1b565b60301c90565b61011861020d366004610feb565b610923565b610118610956565b61011860025481565b610183610231366004610e1b565b6109c8565b61014761024436600461103a565b610a06565b61025c610257366004610feb565b610b02565b604051610122919061105e565b60005461027c906001600160a01b031681565b6040516001600160a01b039091168152602001610122565b6000602082901c6102a96001620100006110cf565b1692915050565b6000858152600e6020908152604080832087845290915281206001810154909190819081906102de906109c8565b9250925092506005831061032f5760405162461bcd60e51b815260206004820152601360248201527220a6262fa32aa72229afaba4aa24222920aba760691b60448201526064015b60405180910390fd5b60048401546103725760405162461bcd60e51b815260206004820152600f60248201526e14925391d7d393d517d0d313d4d151608a1b6044820152606401610326565b60408051600580825260c08201909252600091816020015b610392610d50565b81526020019060019003908161038a57905050905060005b600581101561041357600081815260028781016020526040918290208251808401938490529290919082845b8154815260200190600101908083116103d6575050505050828281518110610400576104006110e6565b60209081029190910101526001016103aa565b50600073__LSAG__________________________________63fe46a2b2876004015460405160200161044791815260200190565b6040516020818303038152906040528b8b8b876040518663ffffffff1660e01b815260040161047a95949392919061119a565b602060405180830381865af4158015610497573d6000803e3d6000fd5b505050506040513d601f19601f820116820180604052508101906104bb9190611230565b9050806104fe5760405162461bcd60e51b8152602060048201526011602482015270494e56414c49445f5349474e415455524560781b6044820152606401610326565b60005b85811015610587578851600082815260038901602052604090205414801561054157506020808a0151600083815260038a01909252604090912060010154145b1561057f5760405162461bcd60e51b815260206004820152600e60248201526d555345445f5349474e415455524560901b6044820152606401610326565b600101610501565b50600085815260038701602052604090206105a490896002610d6e565b506001948501601081901b851760201b841795870186905560005460405163a9059cbb60e01b81526001600160a01b038f81166004830152602482018f90529297929091169063a9059cbb906044016020604051808303816000875af1158015610612573d6000803e3d6000fd5b505050506040513d601f19601f820116820180604052508101906106369190611230565b5050505050505050505050505050565b600061065183610bc9565b6000546040516323b872dd60e01b8152336004820152306024820152604481018690529192506001600160a01b0316906323b872dd906064016020604051808303816000875af11580156106a9573d6000803e3d6000fd5b505050506040513d601f19601f820116820180604052508101906106cd9190611230565b5081516020830151604051630cd3b28960e31b81526004810192909252602482015273__AltBn128______________________________9063669d944890604401602060405180830381865af415801561072b573d6000803e3d6000fd5b505050506040513d601f19601f8201168201806040525081019061074f9190611230565b61078d5760405162461bcd60e51b815260206004820152600f60248201526e504b5f4e4f545f4f4e5f435552564560881b6044820152606401610326565b6000818152600d6020908152604080832054600e83528184208185529092528220600181015491929091819081906107c4906109c8565b92509250925060005b82811015610857578751600082815260028701602052604090205414801561080d5750602080890151600083815260028801909252604090912060010154145b1561084f5760405162461bcd60e51b8152602060048201526012602482015271504b5f414c52454144595f494e5f52494e4760701b6044820152606401610326565b6001016107cd565b508160000361086e5761086b6001436110cf565b90505b60008281526002808601602052604090912061088b918990610d6e565b50858460000160008282546108a09190611252565b90915550506001918201601084901b811760201b821792850183905591600583106108f9576108cf8787610c4e565b60048601556000878152600d602052604081208054600192906108f3908490611252565b90915550505b505050505050505050565b600061090f82610bc9565b50506000908152600d602052604090205490565b60008061092f84610bc9565b6000908152600e602090815260408083208684529091529020600401549150505b92915050565b600080546040516370a0823160e01b81523060048201526001600160a01b03909116906370a0823190602401602060405180830381865afa15801561099f573d6000803e3d6000fd5b505050506040513d601f19601f820116820180604052508101906109c3919061126a565b905090565b60008080602084901c603085901c6109e46001620100006110cf565b82166109f660016401000000006110cf565b8716935093509350509193909250565b6000546001600160a01b031615610a2f5760405162dc149f60e41b815260040160405180910390fd5b600080546001600160a01b0319166001600160a01b0383169081179091556040805163313ce56760e01b8152905163313ce567916004808201926020929091908290030181865afa158015610a88573d6000803e3d6000fd5b505050506040513d601f19601f82011682018060405250810190610aac9190611283565b60ff1660015560005b600a811015610afe57600154610acc90600a61138a565b610ad782600261138a565b610ae19190611396565b600382600a8110610af457610af46110e6565b0155600101610ab5565b5050565b610b0a610dac565b610b1383610bc9565b50610b1c610dac565b60005b6005811015610bc1576000858152600e602090815260408083208784528252808320848452600201909152902054828260058110610b5f57610b5f6110e6565b60209081029190910151919091526000868152600e8252604080822087835283528082208483526002019092522060010154828260058110610ba357610ba36110e6565b60200201516001602002015280610bb9816113b5565b915050610b1f565b509392505050565b600080805b600a811015610c045783600382600a8110610beb57610beb6110e6565b015403610bf757600191505b81610c0457600101610bce565b5080610c475760405162461bcd60e51b8152602060048201526012602482015271105353d5539517d393d517d0531313d5d15160721b6044820152606401610326565b5090919050565b6000610c58610dd9565b6000610c6385610bc9565b6000818152600e6020908152604080832088845290915281209192505b60058160ff161015610ced5760ff8116600090815260028381016020526040918290208251808401938490529290919082845b815481526020019060010190808311610cb3575050505050848260ff1660058110610ce057610ce06110e6565b6020020152600101610c80565b50600080610cfe83600101546109c8565b92505091506000600143610d1291906110cf565b8454604051610d2b924091859187908b906020016113ce565b60408051808303601f1901815291905280516020909101209998505050505050505050565b60405180604001604052806002906020820280368337509192915050565b8260028101928215610d9c579160200282015b82811115610d9c578251825591602001919060010190610d81565b50610da8929150610e06565b5090565b6040518060a001604052806005905b610dc3610d50565b815260200190600190039081610dbb5790505090565b6040518060a001604052806005905b610df0610d50565b815260200190600190039081610de85790505090565b5b80821115610da85760008155600101610e07565b600060208284031215610e2d57600080fd5b5035919050565b6001600160a01b0381168114610e4957600080fd5b50565b634e487b7160e01b600052604160045260246000fd5b604051601f8201601f1916810167ffffffffffffffff81118282101715610e8b57610e8b610e4c565b604052919050565b600082601f830112610ea457600080fd5b6040516040810181811067ffffffffffffffff82111715610ec757610ec7610e4c565b8060405250806040840185811115610ede57600080fd5b845b81811015610ef8578035835260209283019201610ee0565b509195945050505050565b60008060008060008060e08789031215610f1c57600080fd5b8635610f2781610e34565b955060208781013595506040880135945060608801359350610f4c8960808a01610e93565b925060c088013567ffffffffffffffff80821115610f6957600080fd5b818a0191508a601f830112610f7d57600080fd5b813581811115610f8f57610f8f610e4c565b8060051b9150610fa0848301610e62565b818152918301840191848101908d841115610fba57600080fd5b938501935b83851015610fd857843582529385019390850190610fbf565b8096505050505050509295509295509295565b60008060408385031215610ffe57600080fd5b50508035926020909101359150565b6000806060838503121561102057600080fd5b823591506110318460208501610e93565b90509250929050565b60006020828403121561104c57600080fd5b813561105781610e34565b9392505050565b610140810181836000805b60058110156110af57825184835b6002811015611096578251825260209283019290910190600101611077565b5050506040939093019260209290920191600101611069565b5050505092915050565b634e487b7160e01b600052601160045260246000fd5b6000828210156110e1576110e16110b9565b500390565b634e487b7160e01b600052603260045260246000fd5b8060005b600281101561111f578151845260209384019390910190600101611100565b50505050565b600081518084526020808501945080840160005b8381101561115557815187529582019590820190600101611139565b509495945050505050565b600081518084526020808501945080840160005b83811015611155576111878783516110fc565b6040969096019590820190600101611174565b60c08152600086518060c084015260005b818110156111c8576020818a0181015160e08684010152016111ab565b818111156111da57600060e083860101525b5060208301879052601f01601f191682016111f860408401876110fc565b60e083820301608084015261121060e0820186611125565b905082810360a08401526112248185611160565b98975050505050505050565b60006020828403121561124257600080fd5b8151801515811461105757600080fd5b60008219821115611265576112656110b9565b500190565b60006020828403121561127c57600080fd5b5051919050565b60006020828403121561129557600080fd5b815160ff8116811461105757600080fd5b600181815b808511156112e15781600019048211156112c7576112c76110b9565b808516156112d457918102915b93841c93908002906112ab565b509250929050565b6000826112f857506001610950565b8161130557506000610950565b816001811461131b576002811461132557611341565b6001915050610950565b60ff841115611336576113366110b9565b50506001821b610950565b5060208310610133831016604e8410600b8410161715611364575081810a610950565b61136e83836112a6565b8060001904821115611382576113826110b9565b029392505050565b600061105783836112e9565b60008160001904831182151516156113b0576113b06110b9565b500290565b6000600182016113c7576113c76110b9565b5060010190565b8581526000602086818401526040868185015285606085015260808401856000805b600581101561142e57825184835b600281101561141b578251825291880191908801906001016113fe565b50505092840192918501916001016113f0565b5050505050506101c082019050969550505050505056fea26469706673582212202f65674890c2bfae2c5c5e7733c413b2a8d7500c796c687f931c5838daeb418b64736f6c634300080d0033a26469706673582212203e051e22cee4b0a8af7ac44d242f748d43dcc3b7ba26e563a9e7f9df23b321b864736f6c634300080d0033",
  "bytecodeSha1": "86eafaafef1a9623b88c15d89cfacee24f94bc78",
  "compiler": {
    "evm_version": "istanbul",
    "optimizer": {
      "enabled": true,
      "runs": 200
    },
    "version": "0.8.13+commit.abaa5c0e"
  },
  "contractName": "HettiFactory",
  "deployedBytecode": "608060405234801561001057600080fd5b50600436106100625760003560e01c806341d1de9714610067578063481c6a75146100975780639049f9d2146100aa578063a4063dbc146100bd578063d0ebdbe7146100e6578063efde4e64146100fb575b600080fd5b61007a610075366004610360565b61010c565b6040516001600160a01b0390911681526020015b60405180910390f35b60015461007a906001600160a01b031681565b61007a6100b8366004610379565b610136565b61007a6100cb366004610379565b6002602052600090815260409020546001600160a01b031681565b6100f96100f4366004610379565b610306565b005b60005460405190815260200161008e565b6000818154811061011c57600080fd5b6000918252602090912001546001600160a01b0316905081565b60006001600160a01b03821661015f5760405163d92e233d60e01b815260040160405180910390fd5b6001600160a01b03828116600090815260026020526040902054161561019857604051637a471e1360e11b815260040160405180910390fd5b6000604051806020016101aa90610353565b601f1982820381018352601f9091011660408190526bffffffffffffffffffffffff19606086901b166020820152909150600090603401604051602081830303815290604052805190602001209050808251602084016000f560405163189acdbd60e31b81526001600160a01b0386811660048301529194509084169063c4d66de890602401600060405180830381600087803b15801561024a57600080fd5b505af115801561025e573d6000803e3d6000fd5b505050506001600160a01b03848116600081815260026020908152604080832080549589166001600160a01b0319968716811790915583546001810185559380527f290decd9548b62a8d60345a988386fc84ba6bc95484008f6362f93160ef3e56390930180549095168317909455925190815290917f4f2ce4e40f623ca765fc0167a25cb7842ceaafb8d82d3dec26ca0d0e0d2d4896910160405180910390a25050919050565b6001546001600160a01b0316331461033157604051631dd2188d60e31b815260040160405180910390fd5b600180546001600160a01b0319166001600160a01b0392909216919091179055565b61149b806103aa83390190565b60006020828403121561037257600080fd5b5035919050565b60006020828403121561038b57600080fd5b81356001600160a01b03811681146103a257600080fd5b939250505056fe608060405234801561001057600080fd5b5061147b806100206000396000f3fe608060405234801561001057600080fd5b50600436106101005760003560e01c80639edb6cbd11610097578063bf12505b11610066578063bf12505b14610223578063c4d66de814610236578063d5fce73514610249578063fc0c546a1461026957600080fd5b80639edb6cbd146101eb5780639f1961e6146101ff578063abd70aa214610212578063b69ef8a81461021a57600080fd5b806371d8ded9116100d357806371d8ded91461019e5780637c0ffaa2146101b15780637f5bf51c146101b85780639325019d146101cb57600080fd5b80631b9db2ef146101055780633b97e8561461012b57806362230498146101345780636381d19e14610149575b600080fd5b610118610113366004610e1b565b610294565b6040519081526020015b60405180910390f35b61011860015481565b610147610142366004610f03565b6102b0565b005b610183610157366004610feb565b600e60209081526000928352604080842090915290825290208054600182015460049092015490919083565b60408051938452602084019290925290820152606001610122565b6101476101ac36600461100d565b610646565b6005610118565b6101186101c6366004610e1b565b610904565b6101186101d9366004610e1b565b600d6020526000908152604090205481565b6101186101f9366004610e1b565b60301c90565b61011861020d366004610feb565b610923565b610118610956565b61011860025481565b610183610231366004610e1b565b6109c8565b61014761024436600461103a565b610a06565b61025c610257366004610feb565b610b02565b604051610122919061105e565b60005461027c906001600160a01b031681565b6040516001600160a01b039091168152602001610122565b6000602082901c6102a96001620100006110cf565b1692915050565b6000858152600e6020908152604080832087845290915281206001810154909190819081906102de906109c8565b9250925092506005831061032f5760405162461bcd60e51b815260206004820152601360248201527220a6262fa32aa72229afaba4aa24222920aba760691b60448201526064015b60405180910390fd5b60048401546103725760405162461bcd60e51b815260206004820152600f60248201526e14925391d7d393d517d0d313d4d151608a1b6044820152606401610326565b60408051600580825260c08201909252600091816020015b610392610d50565b81526020019060019003908161038a57905050905060005b600581101561041357600081815260028781016020526040918290208251808401938490529290919082845b8154815260200190600101908083116103d6575050505050828281518110610400576104006110e6565b60209081029190910101526001016103aa565b50600073__$59a6a99b146727e155adc36af30d91d8cc$__63fe46a2b2876004015460405160200161044791815260200190565b6040516020818303038152906040528b8b8b876040518663ffffffff1660e01b815260040161047a95949392919061119a565b602060405180830381865af4158015610497573d6000803e3d6000fd5b505050506040513d601f19601f820116820180604052508101906104bb9190611230565b9050806104fe5760405162461bcd60e51b8152602060048201526011602482015270494e56414c49445f5349474e415455524560781b6044820152606401610326565b60005b85811015610587578851600082815260038901602052604090205414801561054157506020808a0151600083815260038a01909252604090912060010154145b1561057f5760405162461bcd60e51b815260206004820152600e60248201526d555345445f5349474e415455524560901b6044820152606401610326565b600101610501565b50600085815260038701602052604090206105a490896002610d6e565b506001948501601081901b851760201b841795870186905560005460405163a9059cbb60e01b81526001600160a01b038f81166004830152602482018f90529297929091169063a9059cbb906044016020604051808303816000875af1158015610612573d6000803e3d6000fd5b505050506040513d601f19601f820116820180604052508101906106369190611230565b5050505050505050505050505050565b600061065183610bc9565b6000546040516323b872dd60e01b8152336004820152306024820152604481018690529192506001600160a01b0316906323b872dd906064016020604051808303816000875af11580156106a9573d6000803e3d6000fd5b505050506040513d601f19601f820116820180604052508101906106cd9190611230565b5081516020830151604051630cd3b28960e31b81526004810192909252602482015273__$0769e4187bae5c4f4cd6ae56e4ede5e405$__9063669d944890604401602060405180830381865af415801561072b573d6000803e3d6000fd5b505050506040513d601f19601f8201168201806040525081019061074f9190611230565b61078d5760405162461bcd60e51b815260206004820152600f60248201526e504b5f4e4f545f4f4e5f435552564560881b6044820152606401610326565b6000818152600d6020908152604080832054600e83528184208185529092528220600181015491929091819081906107c4906109c8565b92509250925060005b82811015610857578751600082815260028701602052604090205414801561080d5750602080890151600083815260028801909252604090912060010154145b1561084f5760405162461bcd60e51b8152602060048201526012602482015271504b5f414c52454144595f494e5f52494e4760701b6044820152606401610326565b6001016107cd565b508160000361086e5761086b6001436110cf565b90505b60008281526002808601602052604090912061088b918990610d6e565b50858460000160008282546108a09190611252565b90915550506001918201601084901b811760201b821792850183905591600583106108f9576108cf8787610c4e565b60048601556000878152600d602052604081208054600192906108f3908490611252565b90915550505b505050505050505050565b600061090f82610bc9565b50506000908152600d602052604090205490565b60008061092f84610bc9565b6000908152600e602090815260408083208684529091529020600401549150505b92915050565b600080546040516370a0823160e01b81523060048201526001600160a01b03909116906370a0823190602401602060405180830381865afa15801561099f573d6000803e3d6000fd5b505050506040513d601f19601f820116820180604052508101906109c3919061126a565b905090565b60008080602084901c603085901c6109e46001620100006110cf565b82166109f660016401000000006110cf565b8716935093509350509193909250565b6000546001600160a01b031615610a2f5760405162dc149f60e41b815260040160405180910390fd5b600080546001600160a01b0319166001600160a01b0383169081179091556040805163313ce56760e01b8152905163313ce567916004808201926020929091908290030181865afa158015610a88573d6000803e3d6000fd5b505050506040513d601f19601f82011682018060405250810190610aac9190611283565b60ff1660015560005b600a811015610afe57600154610acc90600a61138a565b610ad782600261138a565b610ae19190611396565b600382600a8110610af457610af46110e6565b0155600101610ab5565b5050565b610b0a610dac565b610b1383610bc9565b50610b1c610dac565b60005b6005811015610bc1576000858152600e602090815260408083208784528252808320848452600201909152902054828260058110610b5f57610b5f6110e6565b60209081029190910151919091526000868152600e8252604080822087835283528082208483526002019092522060010154828260058110610ba357610ba36110e6565b60200201516001602002015280610bb9816113b5565b915050610b1f565b509392505050565b600080805b600a811015610c045783600382600a8110610beb57610beb6110e6565b015403610bf757600191505b81610c0457600101610bce565b5080610c475760405162461bcd60e51b8152602060048201526012602482015271105353d5539517d393d517d0531313d5d15160721b6044820152606401610326565b5090919050565b6000610c58610dd9565b6000610c6385610bc9565b6000818152600e6020908152604080832088845290915281209192505b60058160ff161015610ced5760ff8116600090815260028381016020526040918290208251808401938490529290919082845b815481526020019060010190808311610cb3575050505050848260ff1660058110610ce057610ce06110e6565b6020020152600101610c80565b50600080610cfe83600101546109c8565b92505091506000600143610d1291906110cf565b8454604051610d2b924091859187908b906020016113ce565b60408051808303601f1901815291905280516020909101209998505050505050505050565b60405180604001604052806002906020820280368337509192915050565b8260028101928215610d9c579160200282015b82811115610d9c578251825591602001919060010190610d81565b50610da8929150610e06565b5090565b6040518060a001604052806005905b610dc3610d50565b815260200190600190039081610dbb5790505090565b6040518060a001604052806005905b610df0610d50565b815260200190600190039081610de85790505090565b5b80821115610da85760008155600101610e07565b600060208284031215610e2d57600080fd5b5035919050565b6001600160a01b0381168114610e4957600080fd5b50565b634e487b7160e01b600052604160045260246000fd5b604051601f8201601f1916810167ffffffffffffffff81118282101715610e8b57610e8b610e4c565b604052919050565b600082601f830112610ea457600080fd5b6040516040810181811067ffffffffffffffff82111715610ec757610ec7610e4c565b8060405250806040840185811115610ede57600080fd5b845b81811015610ef8578035835260209283019201610ee0565b509195945050505050565b60008060008060008060e08789031215610f1c57600080fd5b8635610f2781610e34565b955060208781013595506040880135945060608801359350610f4c8960808a01610e93565b925060c088013567ffffffffffffffff80821115610f6957600080fd5b818a0191508a601f830112610f7d57600080fd5b813581811115610f8f57610f8f610e4c565b8060051b9150610fa0848301610e62565b818152918301840191848101908d841115610fba57600080fd5b938501935b83851015610fd857843582529385019390850190610fbf565b8096505050505050509295509295509295565b60008060408385031215610ffe57600080fd5b50508035926020909101359150565b6000806060838503121561102057600080fd5b823591506110318460208501610e93565b90509250929050565b60006020828403121561104c57600080fd5b813561105781610e34565b9392505050565b610140810181836000805b60058110156110af57825184835b6002811015611096578251825260209283019290910190600101611077565b5050506040939093019260209290920191600101611069565b5050505092915050565b634e487b7160e01b600052601160045260246000fd5b6000828210156110e1576110e16110b9565b500390565b634e487b7160e01b600052603260045260246000fd5b8060005b600281101561111f578151845260209384019390910190600101611100565b50505050565b600081518084526020808501945080840160005b8381101561115557815187529582019590820190600101611139565b509495945050505050565b600081518084526020808501945080840160005b83811015611155576111878783516110fc565b6040969096019590820190600101611174565b60c08152600086518060c084015260005b818110156111c8576020818a0181015160e08684010152016111ab565b818111156111da57600060e083860101525b5060208301879052601f01601f191682016111f860408401876110fc565b60e083820301608084015261121060e0820186611125565b905082810360a08401526112248185611160565b98975050505050505050565b60006020828403121561124257600080fd5b8151801515811461105757600080fd5b60008219821115611265576112656110b9565b500190565b60006020828403121561127c57600080fd5b5051919050565b60006020828403121561129557600080fd5b815160ff8116811461105757600080fd5b600181815b808511156112e15781600019048211156112c7576112c76110b9565b808516156112d457918102915b93841c93908002906112ab565b509250929050565b6000826112f857506001610950565b8161130557506000610950565b816001811461131b576002811461132557611341565b6001915050610950565b60ff841115611336576113366110b9565b50506001821b610950565b5060208310610133831016604e8410600b8410161715611364575081810a610950565b61136e83836112a6565b8060001904821115611382576113826110b9565b029392505050565b600061105783836112e9565b60008160001904831182151516156113b0576113b06110b9565b500290565b6000600182016113c7576113c76110b9565b5060010190565b8581526000602086818401526040868185015285606085015260808401856000805b600581101561142e57825184835b600281101561141b578251825291880191908801906001016113fe565b50505092840192918501916001016113f0565b5050505050506101c082019050969550505050505056fea26469706673582212202f65674890c2bfae2c5c5e7733c413b2a8d7500c796c687f931c5838daeb418b64736f6c634300080d0033a26469706673582212203e051e22cee4b0a8af7ac44d242f748d43dcc3b7ba26e563a9e7f9df23b321b864736f6c634300080d0033",
  "language": "Solidity",
  "natspec": {
    "kind": "dev",
    "methods": {},
    "version": 1
  },
  "opcodes": "PUSH1 0x80 PUSH1 0x40 MSTORE CALLVALUE DUP1 ISZERO PUSH2 0x10 JUMPI PUSH1 0x0 DUP1 REVERT JUMPDEST POP PUSH1 0x4 CALLDATASIZE LT PUSH2 0x62 JUMPI PUSH1 0x0 CALLDATALOAD PUSH1 0xE0 SHR DUP1 PUSH4 0x41D1DE97 EQ PUSH2 0x67 JUMPI DUP1 PUSH4 0x481C6A75 EQ PUSH2 0x97 JUMPI DUP1 PUSH4 0x9049F9D2 EQ PUSH2 0xAA JUMPI DUP1 PUSH4 0xA4063DBC EQ PUSH2 0xBD JUMPI DUP1 PUSH4 0xD0EBDBE7 EQ PUSH2 0xE6 JUMPI DUP1 PUSH4 0xEFDE4E64 EQ PUSH2 0xFB JUMPI JUMPDEST PUSH1 0x0 DUP1 REVERT JUMPDEST PUSH2 0x7A PUSH2 0x75 CALLDATASIZE PUSH1 0x4 PUSH2 0x360 JUMP JUMPDEST PUSH2 0x10C JUMP JUMPDEST PUSH1 0x40 MLOAD PUSH1 0x1 PUSH1 0x1 PUSH1 0xA0 SHL SUB SWAP1 SWAP2 AND DUP2 MSTORE PUSH1 0x20 ADD JUMPDEST PUSH1 0x40 MLOAD DUP1 SWAP2 SUB SWAP1 RETURN JUMPDEST PUSH1 0x1 SLOAD PUSH2 0x7A SWAP1 PUSH1 0x1 PUSH1 0x1 PUSH1 0xA0 SHL SUB AND DUP2 JUMP JUMPDEST PUSH2 0x7A PUSH2 0xB8 CALLDATASIZE PUSH1 0x4 PUSH2 0x379 JUMP JUMPDEST PUSH2 0x136 JUMP JUMPDEST PUSH2 0x7A PUSH2 0xCB CALLDATASIZE PUSH1 0x4 PUSH2 0x379 JUMP JUMPDEST PUSH1 0x2 PUSH1 0x20 MSTORE PUSH1 0x0 SWAP1 DUP2 MSTORE PUSH1 0x40 SWAP1 KECCAK256 SLOAD PUSH1 0x1 PUSH1 0x1 PUSH1 0xA0 SHL SUB AND DUP2 JUMP JUMPDEST PUSH2 0xF9 PUSH2 0xF4 CALLDATASIZE PUSH1 0x4 PUSH2 0x379 JUMP JUMPDEST PUSH2 0x306 JUMP JUMPDEST STOP JUMPDEST PUSH1 0x0 SLOAD PUSH1 0x40 MLOAD SWAP1 DUP2 MSTORE PUSH1 0x20 ADD PUSH2 0x8E JUMP JUMPDEST PUSH1 0x0 DUP2 DUP2 SLOAD DUP2 LT PUSH2 0x11C JUMPI PUSH1 0x0 DUP1 REVERT JUMPDEST PUSH1 0x0 SWAP2 DUP3 MSTORE PUSH1 0x20 SWAP1 SWAP2 KECCAK256 ADD SLOAD PUSH1 0x1 PUSH1 0x1 PUSH1 0xA0 SHL SUB AND SWAP1 POP DUP2 JUMP JUMPDEST PUSH1 0x0 PUSH1 0x1 PUSH1 0x1 PUSH1 0xA0 SHL SUB DUP3 AND PUSH2 0x15F JUMPI PUSH1 0x40 MLOAD PUSH4 0xD92E233D PUSH1 0xE0 SHL DUP2 MSTORE PUSH1 0x4 ADD PUSH1 0x40 MLOAD DUP1 SWAP2 SUB SWAP1 REVERT JUMPDEST PUSH1 0x1 PUSH1 0x1 PUSH1 0xA0 SHL SUB DUP3 DUP2 AND PUSH1 0x0 SWAP1 DUP2 MSTORE PUSH1 0x2 PUSH1 0x20 MSTORE PUSH1 0x40 SWAP1 KECCAK256 SLOAD AND ISZERO PUSH2 0x198 JUMPI PUSH1 0x40 MLOAD PUSH4 0x7A471E13 PUSH1 0xE1 SHL DUP2 MSTORE PUSH1 0x4 ADD PUSH1 0x40 MLOAD DUP1 SWAP2 SUB SWAP1 REVERT JUMPDEST PUSH1 0x0 PUSH1 0x40 MLOAD DUP1 PUSH1 0x20 ADD PUSH2 0x1AA SWAP1 PUSH2 0x353 JUMP JUMPDEST PUSH1 0x1F NOT DUP3 DUP3 SUB DUP2 ADD DUP4 MSTORE PUSH1 0x1F SWAP1 SWAP2 ADD AND PUSH1 0x40 DUP2 SWAP1 MSTORE PUSH12 0xFFFFFFFFFFFFFFFFFFFFFFFF NOT PUSH1 0x60 DUP7 SWAP1 SHL AND PUSH1 0x20 DUP3 ADD MSTORE SWAP1 SWAP2 POP PUSH1 0x0 SWAP1 PUSH1 0x34 ADD PUSH1 0x40 MLOAD PUSH1 0x20 DUP2 DUP4 SUB SUB DUP2 MSTORE SWAP1 PUSH1 0x40 MSTORE DUP1 MLOAD SWAP1 PUSH1 0x20 ADD KECCAK256 SWAP1 POP DUP1 DUP3 MLOAD PUSH1 0x20 DUP5 ADD PUSH1 0x0 CREATE2 PUSH1 0x40 MLOAD PUSH4 0x189ACDBD PUSH1 0xE3 SHL DUP2 MSTORE PUSH1 0x1 PUSH1 0x1 PUSH1 0xA0 SHL SUB DUP7 DUP2 AND PUSH1 0x4 DUP4 ADD MSTORE SWAP2 SWAP5 POP SWAP1 DUP5 AND SWAP1 PUSH4 0xC4D66DE8 SWAP1 PUSH1 0x24 ADD PUSH1 0x0 PUSH1 0x40 MLOAD DUP1 DUP4 SUB DUP2 PUSH1 0x0 DUP8 DUP1 EXTCODESIZE ISZERO DUP1 ISZERO PUSH2 0x24A JUMPI PUSH1 0x0 DUP1 REVERT JUMPDEST POP GAS CALL ISZERO DUP1 ISZERO PUSH2 0x25E JUMPI RETURNDATASIZE PUSH1 0x0 DUP1 RETURNDATACOPY RETURNDATASIZE PUSH1 0x0 REVERT JUMPDEST POP POP POP POP PUSH1 0x1 PUSH1 0x1 PUSH1 0xA0 SHL SUB DUP5 DUP2 AND PUSH1 0x0 DUP2 DUP2 MSTORE PUSH1 0x2 PUSH1 0x20 SWAP1 DUP2 MSTORE PUSH1 0x40 DUP1 DUP4 KECCAK256 DUP1 SLOAD SWAP6 DUP10 AND PUSH1 0x1 PUSH1 0x1 PUSH1 0xA0 SHL SUB NOT SWAP7 DUP8 AND DUP2 OR SWAP1 SWAP2 SSTORE DUP4 SLOAD PUSH1 0x1 DUP2 ADD DUP6 SSTORE SWAP4 DUP1 MSTORE PUSH32 0x290DECD9548B62A8D60345A988386FC84BA6BC95484008F6362F93160EF3E563 SWAP1 SWAP4 ADD DUP1 SLOAD SWAP1 SWAP6 AND DUP4 OR SWAP1 SWAP5 SSTORE SWAP3 MLOAD SWAP1 DUP2 MSTORE SWAP1 SWAP2 PUSH32 0x4F2CE4E40F623CA765FC0167A25CB7842CEAAFB8D82D3DEC26CA0D0E0D2D4896 SWAP2 ADD PUSH1 0x40 MLOAD DUP1 SWAP2 SUB SWAP1 LOG2 POP POP SWAP2 SWAP1 POP JUMP JUMPDEST PUSH1 0x1 SLOAD PUSH1 0x1 PUSH1 0x1 PUSH1 0xA0 SHL SUB AND CALLER EQ PUSH2 0x331 JUMPI PUSH1 0x40 MLOAD PUSH4 0x1DD2188D PUSH1 0xE3 SHL DUP2 MSTORE PUSH1 0x4 ADD PUSH1 0x40 MLOAD DUP1 SWAP2 SUB SWAP1 REVERT JUMPDEST PUSH1 0x1 DUP1 SLOAD PUSH1 0x1 PUSH1 0x1 PUSH1 0xA0 SHL SUB NOT AND PUSH1 0x1 PUSH1 0x1 PUSH1 0xA0 SHL SUB SWAP3 SWAP1 SWAP3 AND SWAP2 SWAP1 SWAP2 OR SWAP1 SSTORE JUMP JUMPDEST PUSH2 0x149B DUP1 PUSH2 0x3AA DUP4 CODECOPY ADD SWAP1 JUMP JUMPDEST PUSH1 0x0 PUSH1 0x20 DUP3 DUP5 SUB SLT ISZERO PUSH2 0x372 JUMPI PUSH1 0x0 DUP1 REVERT JUMPDEST POP CALLDATALOAD SWAP2 SWAP1 POP JUMP JUMPDEST PUSH1 0x0 PUSH1 0x20 DUP3 DUP5 SUB SLT ISZERO PUSH2 0x38B JUMPI PUSH1 0x0 DUP1 REVERT JUMPDEST DUP2 CALLDATALOAD PUSH1 0x1 PUSH1 0x1 PUSH1 0xA0 SHL SUB DUP2 AND DUP2 EQ PUSH2 0x3A2 JUMPI PUSH1 0x0 DUP1 REVERT JUMPDEST SWAP4 SWAP3 POP POP POP JUMP INVALID PUSH1 0x80 PUSH1 0x40 MSTORE CALLVALUE DUP1 ISZERO PUSH2 0x10 JUMPI PUSH1 0x0 DUP1 REVERT JUMPDEST POP PUSH2 0x147B DUP1 PUSH2 0x20 PUSH1 0x0 CODECOPY PUSH1 0x0 RETURN INVALID PUSH1 0x80 PUSH1 0x40 MSTORE CALLVALUE DUP1 ISZERO PUSH2 0x10 JUMPI PUSH1 0x0 DUP1 REVERT JUMPDEST POP PUSH1 0x4 CALLDATASIZE LT PUSH2 0x100 JUMPI PUSH1 0x0 CALLDATALOAD PUSH1 0xE0 SHR DUP1 PUSH4 0x9EDB6CBD GT PUSH2 0x97 JUMPI DUP1 PUSH4 0xBF12505B GT PUSH2 0x66 JUMPI DUP1 PUSH4 0xBF12505B EQ PUSH2 0x223 JUMPI DUP1 PUSH4 0xC4D66DE8 EQ PUSH2 0x236 JUMPI DUP1 PUSH4 0xD5FCE735 EQ PUSH2 0x249 JUMPI DUP1 PUSH4 0xFC0C546A EQ PUSH2 0x269 JUMPI PUSH1 0x0 DUP1 REVERT JUMPDEST DUP1 PUSH4 0x9EDB6CBD EQ PUSH2 0x1EB JUMPI DUP1 PUSH4 0x9F1961E6 EQ PUSH2 0x1FF JUMPI DUP1 PUSH4 0xABD70AA2 EQ PUSH2 0x212 JUMPI DUP1 PUSH4 0xB69EF8A8 EQ PUSH2 0x21A JUMPI PUSH1 0x0 DUP1 REVERT JUMPDEST DUP1 PUSH4 0x71D8DED9 GT PUSH2 0xD3 JUMPI DUP1 PUSH4 0x71D8DED9 EQ PUSH2 0x19E JUMPI DUP1 PUSH4 0x7C0FFAA2 EQ PUSH2 0x1B1 JUMPI DUP1 PUSH4 0x7F5BF51C EQ PUSH2 0x1B8 JUMPI DUP1 PUSH4 0x9325019D EQ PUSH2 0x1CB JUMPI PUSH1 0x0 DUP1 REVERT JUMPDEST DUP1 PUSH4 0x1B9DB2EF EQ PUSH2 0x105 JUMPI DUP1 PUSH4 0x3B97E856 EQ PUSH2 0x12B JUMPI DUP1 PUSH4 0x62230498 EQ PUSH2 0x134 JUMPI DUP1 PUSH4 0x6381D19E EQ PUSH2 0x149 JUMPI JUMPDEST PUSH1 0x0 DUP1 REVERT JUMPDEST PUSH2 0x118 PUSH2 0x113 CALLDATASIZE PUSH1 0x4 PUSH2 0xE1B JUMP JUMPDEST PUSH2 0x294 JUMP JUMPDEST PUSH1 0x40 MLOAD SWAP1 DUP2 MSTORE PUSH1 0x20 ADD JUMPDEST PUSH1 0x40 MLOAD DUP1 SWAP2 SUB SWAP1 RETURN JUMPDEST PUSH2 0x118 PUSH1 0x1 SLOAD DUP2 JUMP JUMPDEST PUSH2 0x147 PUSH2 0x142 CALLDATASIZE PUSH1 0x4 PUSH2 0xF03 JUMP JUMPDEST PUSH2 0x2B0 JUMP JUMPDEST STOP JUMPDEST PUSH2 0x183 PUSH2 0x157 CALLDATASIZE PUSH1 0x4 PUSH2 0xFEB JUMP JUMPDEST PUSH1 0xE PUSH1 0x20 SWAP1 DUP2 MSTORE PUSH1 0x0 SWAP3 DUP4 MSTORE PUSH1 0x40 DUP1 DUP5 KECCAK256 SWAP1 SWAP2 MSTORE SWAP1 DUP3 MSTORE SWAP1 KECCAK256 DUP1 SLOAD PUSH1 0x1 DUP3 ADD SLOAD PUSH1 0x4 SWAP1 SWAP3 ADD SLOAD SWAP1 SWAP2 SWAP1 DUP4 JUMP JUMPDEST PUSH1 0x40 DUP1 MLOAD SWAP4 DUP5 MSTORE PUSH1 0x20 DUP5 ADD SWAP3 SWAP1 SWAP3 MSTORE SWAP1 DUP3 ADD MSTORE PUSH1 0x60 ADD PUSH2 0x122 JUMP JUMPDEST PUSH2 0x147 PUSH2 0x1AC CALLDATASIZE PUSH1 0x4 PUSH2 0x100D JUMP JUMPDEST PUSH2 0x646 JUMP JUMPDEST PUSH1 0x5 PUSH2 0x118 JUMP JUMPDEST PUSH2 0x118 PUSH2 0x1C6 CALLDATASIZE PUSH1 0x4 PUSH2 0xE1B JUMP JUMPDEST PUSH2 0x904 JUMP JUMPDEST PUSH2 0x118 PUSH2 0x1D9 CALLDATASIZE PUSH1 0x4 PUSH2 0xE1B JUMP JUMPDEST PUSH1 0xD PUSH1 0x20 MSTORE PUSH1 0x0 SWAP1 DUP2 MSTORE PUSH1 0x40 SWAP1 KECCAK256 SLOAD DUP2 JUMP JUMPDEST PUSH2 0x118 PUSH2 0x1F9 CALLDATASIZE PUSH1 0x4 PUSH2 0xE1B JUMP JUMPDEST PUSH1 0x30 SHR SWAP1 JUMP JUMPDEST PUSH2 0x118 PUSH2 0x20D CALLDATASIZE PUSH1 0x4 PUSH2 0xFEB JUMP JUMPDEST PUSH2 0x923 JUMP JUMPDEST PUSH2 0x118 PUSH2 0x956 JUMP JUMPDEST PUSH2 0x118 PUSH1 0x2 SLOAD DUP2 JUMP JUMPDEST PUSH2 0x183 PUSH2 0x231 CALLDATASIZE PUSH1 0x4 PUSH2 0xE1B JUMP JUMPDEST PUSH2 0x9C8 JUMP JUMPDEST PUSH2 0x147 PUSH2 0x244 CALLDATASIZE PUSH1 0x4 PUSH2 0x103A JUMP JUMPDEST PUSH2 0xA06 JUMP JUMPDEST PUSH2 0x25C PUSH2 0x257 CALLDATASIZE PUSH1 0x4 PUSH2 0xFEB JUMP JUMPDEST PUSH2 0xB02 JUMP JUMPDEST PUSH1 0x40 MLOAD PUSH2 0x122 SWAP2 SWAP1 PUSH2 0x105E JUMP JUMPDEST PUSH1 0x0 SLOAD PUSH2 0x27C SWAP1 PUSH1 0x1 PUSH1 0x1 PUSH1 0xA0 SHL SUB AND DUP2 JUMP JUMPDEST PUSH1 0x40 MLOAD PUSH1 0x1 PUSH1 0x1 PUSH1 0xA0 SHL SUB SWAP1 SWAP2 AND DUP2 MSTORE PUSH1 0x20 ADD PUSH2 0x122 JUMP JUMPDEST PUSH1 0x0 PUSH1 0x20 DUP3 SWAP1 SHR PUSH2 0x2A9 PUSH1 0x1 PUSH3 0x10000 PUSH2 0x10CF JUMP JUMPDEST AND SWAP3 SWAP2 POP POP JUMP JUMPDEST PUSH1 0x0 DUP6 DUP2 MSTORE PUSH1 0xE PUSH1 0x20 SWAP1 DUP2 MSTORE PUSH1 0x40 DUP1 DUP4 KECCAK256 DUP8 DUP5 MSTORE SWAP1 SWAP2 MSTORE DUP2 KECCAK256 PUSH1 0x1 DUP2 ADD SLOAD SWAP1 SWAP2 SWAP1 DUP2 SWAP1 DUP2 SWAP1 PUSH2 0x2DE SWAP1 PUSH2 0x9C8 JUMP JUMPDEST SWAP3 POP SWAP3 POP SWAP3 POP PUSH1 0x5 DUP4 LT PUSH2 0x32F JUMPI PUSH1 0x40 MLOAD PUSH3 0x461BCD PUSH1 0xE5 SHL DUP2 MSTORE PUSH1 0x20 PUSH1 0x4 DUP3 ADD MSTORE PUSH1 0x13 PUSH1 0x24 DUP3 ADD MSTORE PUSH19 0x20A6262FA32AA72229AFABA4AA24222920ABA7 PUSH1 0x69 SHL PUSH1 0x44 DUP3 ADD MSTORE PUSH1 0x64 ADD JUMPDEST PUSH1 0x40 MLOAD DUP1 SWAP2 SUB SWAP1 REVERT JUMPDEST PUSH1 0x4 DUP5 ADD SLOAD PUSH2 0x372 JUMPI PUSH1 0x40 MLOAD PUSH3 0x461BCD PUSH1 0xE5 SHL DUP2 MSTORE PUSH1 0x20 PUSH1 0x4 DUP3 ADD MSTORE PUSH1 0xF PUSH1 0x24 DUP3 ADD MSTORE PUSH15 0x14925391D7D393D517D0D313D4D151 PUSH1 0x8A SHL PUSH1 0x44 DUP3 ADD MSTORE PUSH1 0x64 ADD PUSH2 0x326 JUMP JUMPDEST PUSH1 0x40 DUP1 MLOAD PUSH1 0x5 DUP1 DUP3 MSTORE PUSH1 0xC0 DUP3 ADD SWAP1 SWAP3 MSTORE PUSH1 0x0 SWAP2 DUP2 PUSH1 0x20 ADD JUMPDEST PUSH2 0x392 PUSH2 0xD50 JUMP JUMPDEST DUP2 MSTORE PUSH1 0x20 ADD SWAP1 PUSH1 0x1 SWAP1 SUB SWAP1 DUP2 PUSH2 0x38A JUMPI SWAP1 POP POP SWAP1 POP PUSH1 0x0 JUMPDEST PUSH1 0x5 DUP2 LT ISZERO PUSH2 0x413 JUMPI PUSH1 0x0 DUP2 DUP2 MSTORE PUSH1 0x2 DUP8 DUP2 ADD PUSH1 0x20 MSTORE PUSH1 0x40 SWAP2 DUP3 SWAP1 KECCAK256 DUP3 MLOAD DUP1 DUP5 ADD SWAP4 DUP5 SWAP1 MSTORE SWAP3 SWAP1 SWAP2 SWAP1 DUP3 DUP5 JUMPDEST DUP2 SLOAD DUP2 MSTORE PUSH1 0x20 ADD SWAP1 PUSH1 0x1 ADD SWAP1 DUP1 DUP4 GT PUSH2 0x3D6 JUMPI POP POP POP POP POP DUP3 DUP3 DUP2 MLOAD DUP2 LT PUSH2 0x400 JUMPI PUSH2 0x400 PUSH2 0x10E6 JUMP JUMPDEST PUSH1 0x20 SWAP1 DUP2 MUL SWAP2 SWAP1 SWAP2 ADD ADD MSTORE PUSH1 0x1 ADD PUSH2 0x3AA JUMP JUMPDEST POP PUSH1 0x0 PUSH20 0x0 PUSH4 0xFE46A2B2 DUP8 PUSH1 0x4 ADD SLOAD PUSH1 0x40 MLOAD PUSH1 0x20 ADD PUSH2 0x447 SWAP2 DUP2 MSTORE PUSH1 0x20 ADD SWAP1 JUMP JUMPDEST PUSH1 0x40 MLOAD PUSH1 0x20 DUP2 DUP4 SUB SUB DUP2 MSTORE SWAP1 PUSH1 0x40 MSTORE DUP12 DUP12 DUP12 DUP8 PUSH1 0x40 MLOAD DUP7 PUSH4 0xFFFFFFFF AND PUSH1 0xE0 SHL DUP2 MSTORE PUSH1 0x4 ADD PUSH2 0x47A SWAP6 SWAP5 SWAP4 SWAP3 SWAP2 SWAP1 PUSH2 0x119A JUMP JUMPDEST PUSH1 0x20 PUSH1 0x40 MLOAD DUP1 DUP4 SUB DUP2 DUP7 GAS DELEGATECALL ISZERO DUP1 ISZERO PUSH2 0x497 JUMPI RETURNDATASIZE PUSH1 0x0 DUP1 RETURNDATACOPY RETURNDATASIZE PUSH1 0x0 REVERT JUMPDEST POP POP POP POP PUSH1 0x40 MLOAD RETURNDATASIZE PUSH1 0x1F NOT PUSH1 0x1F DUP3 ADD AND DUP3 ADD DUP1 PUSH1 0x40 MSTORE POP DUP2 ADD SWAP1 PUSH2 0x4BB SWAP2 SWAP1 PUSH2 0x1230 JUMP JUMPDEST SWAP1 POP DUP1 PUSH2 0x4FE JUMPI PUSH1 0x40 MLOAD PUSH3 0x461BCD PUSH1 0xE5 SHL DUP2 MSTORE PUSH1 0x20 PUSH1 0x4 DUP3 ADD MSTORE PUSH1 0x11 PUSH1 0x24 DUP3 ADD MSTORE PUSH17 0x494E56414C49445F5349474E4154555245 PUSH1 0x78 SHL PUSH1 0x44 DUP3 ADD MSTORE PUSH1 0x64 ADD PUSH2 0x326 JUMP JUMPDEST PUSH1 0x0 JUMPDEST DUP6 DUP2 LT ISZERO PUSH2 0x587 JUMPI DUP9 MLOAD PUSH1 0x0 DUP3 DUP2 MSTORE PUSH1 0x3 DUP10 ADD PUSH1 0x20 MSTORE PUSH1 0x40 SWAP1 KECCAK256 SLOAD EQ DUP1 ISZERO PUSH2 0x541 JUMPI POP PUSH1 0x20 DUP1 DUP11 ADD MLOAD PUSH1 0x0 DUP4 DUP2 MSTORE PUSH1 0x3 DUP11 ADD SWAP1 SWAP3 MSTORE PUSH1 0x40 SWAP1 SWAP2 KECCAK256 PUSH1 0x1 ADD SLOAD EQ JUMPDEST ISZERO PUSH2 0x57F JUMPI PUSH1 0x40 MLOAD PUSH3 0x461BCD PUSH1 0xE5 SHL DUP2 MSTORE PUSH1 0x20 PUSH1 0x4 DUP3 ADD MSTORE PUSH1 0xE PUSH1 0x24 DUP3 ADD MSTORE PUSH14 0x555345445F5349474E4154555245 PUSH1 0x90 SHL PUSH1 0x44 DUP3 ADD MSTORE PUSH1 0x64 ADD PUSH2 0x326 JUMP JUMPDEST PUSH1 0x1 ADD PUSH2 0x501 JUMP JUMPDEST POP PUSH1 0x0 DUP6 DUP2 MSTORE PUSH1 0x3 DUP8 ADD PUSH1 0x20 MSTORE PUSH1 0x40 SWAP1 KECCAK256 PUSH2 0x5A4 SWAP1 DUP10 PUSH1 0x2 PUSH2 0xD6E JUMP JUMPDEST POP PUSH1 0x1 SWAP5 DUP6 ADD PUSH1 0x10 DUP2 SWAP1 SHL DUP6 OR PUSH1 0x20 SHL DUP5 OR SWAP6 DUP8 ADD DUP7 SWAP1 SSTORE PUSH1 0x0 SLOAD PUSH1 0x40 MLOAD PUSH4 0xA9059CBB PUSH1 0xE0 SHL DUP2 MSTORE PUSH1 0x1 PUSH1 0x1 PUSH1 0xA0 SHL SUB DUP16 DUP2 AND PUSH1 0x4 DUP4 ADD MSTORE PUSH1 0x24 DUP3 ADD DUP16 SWAP1 MSTORE SWAP3 SWAP8 SWAP3 SWAP1 SWAP2 AND SWAP1 PUSH4 0xA9059CBB SWAP1 PUSH1 0x44 ADD PUSH1 0x20 PUSH1 0x40 MLOAD DUP1 DUP4 SUB DUP2 PUSH1 0x0 DUP8 GAS CALL ISZERO DUP1 ISZERO PUSH2 0x612 JUMPI RETURNDATASIZE PUSH1 0x0 DUP1 RETURNDATACOPY RETURNDATASIZE PUSH1 0x0 REVERT JUMPDEST POP POP POP POP PUSH1 0x40 MLOAD RETURNDATASIZE PUSH1 0x1F NOT PUSH1 0x1F DUP3 ADD AND DUP3 ADD DUP1 PUSH1 0x40 MSTORE POP DUP2 ADD SWAP1 PUSH2 0x636 SWAP2 SWAP1 PUSH2 0x1230 JUMP JUMPDEST POP POP POP POP POP POP POP POP POP POP POP POP POP POP JUMP JUMPDEST PUSH1 0x0 PUSH2 0x651 DUP4 PUSH2 0xBC9 JUMP JUMPDEST PUSH1 0x0 SLOAD PUSH1 0x40 MLOAD PUSH4 0x23B872DD PUSH1 0xE0 SHL DUP2 MSTORE CALLER PUSH1 0x4 DUP3 ADD MSTORE ADDRESS PUSH1 0x24 DUP3 ADD MSTORE PUSH1 0x44 DUP2 ADD DUP7 SWAP1 MSTORE SWAP2 SWAP3 POP PUSH1 0x1 PUSH1 0x1 PUSH1 0xA0 SHL SUB AND SWAP1 PUSH4 0x23B872DD SWAP1 PUSH1 0x64 ADD PUSH1 0x20 PUSH1 0x40 MLOAD DUP1 DUP4 SUB DUP2 PUSH1 0x0 DUP8 GAS CALL ISZERO DUP1 ISZERO PUSH2 0x6A9 JUMPI RETURNDATASIZE PUSH1 0x0 DUP1 RETURNDATACOPY RETURNDATASIZE PUSH1 0x0 REVERT JUMPDEST POP POP POP POP PUSH1 0x40 MLOAD RETURNDATASIZE PUSH1 0x1F NOT PUSH1 0x1F DUP3 ADD AND DUP3 ADD DUP1 PUSH1 0x40 MSTORE POP DUP2 ADD SWAP1 PUSH2 0x6CD SWAP2 SWAP1 PUSH2 0x1230 JUMP JUMPDEST POP DUP2 MLOAD PUSH1 0x20 DUP4 ADD MLOAD PUSH1 0x40 MLOAD PUSH4 0xCD3B289 PUSH1 0xE3 SHL DUP2 MSTORE PUSH1 0x4 DUP2 ADD SWAP3 SWAP1 SWAP3 MSTORE PUSH1 0x24 DUP3 ADD MSTORE PUSH20 0x0 SWAP1 PUSH4 0x669D9448 SWAP1 PUSH1 0x44 ADD PUSH1 0x20 PUSH1 0x40 MLOAD DUP1 DUP4 SUB DUP2 DUP7 GAS DELEGATECALL ISZERO DUP1 ISZERO PUSH2 0x72B JUMPI RETURNDATASIZE PUSH1 0x0 DUP1 RETURNDATACOPY RETURNDATASIZE PUSH1 0x0 REVERT JUMPDEST POP POP POP POP PUSH1 0x40 MLOAD RETURNDATASIZE PUSH1 0x1F NOT PUSH1 0x1F DUP3 ADD AND DUP3 ADD DUP1 PUSH1 0x40 MSTORE POP DUP2 ADD SWAP1 PUSH2 0x74F SWAP2 SWAP1 PUSH2 0x1230 JUMP JUMPDEST PUSH2 0x78D JUMPI PUSH1 0x40 MLOAD PUSH3 0x461BCD PUSH1 0xE5 SHL DUP2 MSTORE PUSH1 0x20 PUSH1 0x4 DUP3 ADD MSTORE PUSH1 0xF PUSH1 0x24 DUP3 ADD MSTORE PUSH15 0x504B5F4E4F545F4F4E5F4355525645 PUSH1 0x88 SHL PUSH1 0x44 DUP3 ADD MSTORE PUSH1 0x64 ADD PUSH2 0x326 JUMP JUMPDEST PUSH1 0x0 DUP2 DUP2 MSTORE PUSH1 0xD PUSH1 0x20 SWAP1 DUP2 MSTORE PUSH1 0x40 DUP1 DUP4 KECCAK256 SLOAD PUSH1 0xE DUP4 MSTORE DUP2 DUP5 KECCAK256 DUP2 DUP6 MSTORE SWAP1 SWAP3 MSTORE DUP3 KECCAK256 PUSH1 0x1 DUP2 ADD SLOAD SWAP2 SWAP3 SWAP1 SWAP2 DUP2 SWAP1 DUP2 SWAP1 PUSH2 0x7C4 SWAP1 PUSH2 0x9C8 JUMP JUMPDEST SWAP3 POP SWAP3 POP SWAP3 POP PUSH1 0x0 JUMPDEST DUP3 DUP2 LT ISZERO PUSH2 0x857 JUMPI DUP8 MLOAD PUSH1 0x0 DUP3 DUP2 MSTORE PUSH1 0x2 DUP8 ADD PUSH1 0x20 MSTORE PUSH1 0x40 SWAP1 KECCAK256 SLOAD EQ DUP1 ISZERO PUSH2 0x80D JUMPI POP PUSH1 0x20 DUP1 DUP10 ADD MLOAD PUSH1 0x0 DUP4 DUP2 MSTORE PUSH1 0x2 DUP9 ADD SWAP1 SWAP3 MSTORE PUSH1 0x40 SWAP1 SWAP2 KECCAK256 PUSH1 0x1 ADD SLOAD EQ JUMPDEST ISZERO PUSH2 0x84F JUMPI PUSH1 0x40 MLOAD PUSH3 0x461BCD PUSH1 0xE5 SHL DUP2 MSTORE PUSH1 0x20 PUSH1 0x4 DUP3 ADD MSTORE PUSH1 0x12 PUSH1 0x24 DUP3 ADD MSTORE PUSH18 0x504B5F414C52454144595F494E5F52494E47 PUSH1 0x70 SHL PUSH1 0x44 DUP3 ADD MSTORE PUSH1 0x64 ADD PUSH2 0x326 JUMP JUMPDEST PUSH1 0x1 ADD PUSH2 0x7CD JUMP JUMPDEST POP DUP2 PUSH1 0x0 SUB PUSH2 0x86E JUMPI PUSH2 0x86B PUSH1 0x1 NUMBER PUSH2 0x10CF JUMP JUMPDEST SWAP1 POP JUMPDEST PUSH1 0x0 DUP3 DUP2 MSTORE PUSH1 0x2 DUP1 DUP7 ADD PUSH1 0x20 MSTORE PUSH1 0x40 SWAP1 SWAP2 KECCAK256 PUSH2 0x88B SWAP2 DUP10 SWAP1 PUSH2 0xD6E JUMP JUMPDEST POP DUP6 DUP5 PUSH1 0x0 ADD PUSH1 0x0 DUP3 DUP3 SLOAD PUSH2 0x8A0 SWAP2 SWAP1 PUSH2 0x1252 JUMP JUMPDEST SWAP1 SWAP2 SSTORE POP POP PUSH1 0x1 SWAP2 DUP3 ADD PUSH1 0x10 DUP5 SWAP1 SHL DUP2 OR PUSH1 0x20 SHL DUP3 OR SWAP3 DUP6 ADD DUP4 SWAP1 SSTORE SWAP2 PUSH1 0x5 DUP4 LT PUSH2 0x8F9 JUMPI PUSH2 0x8CF DUP8 DUP8 PUSH2 0xC4E JUMP JUMPDEST PUSH1 0x4 DUP7 ADD SSTORE PUSH1 0x0 DUP8 DUP2 MSTORE PUSH1 0xD PUSH1 0x20 MSTORE PUSH1 0x40 DUP2 KECCAK256 DUP1 SLOAD PUSH1 0x1 SWAP3 SWAP1 PUSH2 0x8F3 SWAP1 DUP5 SWAP1 PUSH2 0x1252 JUMP JUMPDEST SWAP1 SWAP2 SSTORE POP POP JUMPDEST POP POP POP POP POP POP POP POP POP JUMP JUMPDEST PUSH1 0x0 PUSH2 0x90F DUP3 PUSH2 0xBC9 JUMP JUMPDEST POP POP PUSH1 0x0 SWAP1 DUP2 MSTORE PUSH1 0xD PUSH1 0x20 MSTORE PUSH1 0x40 SWAP1 KECCAK256 SLOAD SWAP1 JUMP JUMPDEST PUSH1 0x0 DUP1 PUSH2 0x92F DUP5 PUSH2 0xBC9 JUMP JUMPDEST PUSH1 0x0 SWAP1 DUP2 MSTORE PUSH1 0xE PUSH1 0x20 SWAP1 DUP2 MSTORE PUSH1 0x40 DUP1 DUP4 KECCAK256 DUP7 DUP5 MSTORE SWAP1 SWAP2 MSTORE SWAP1 KECCAK256 PUSH1 0x4 ADD SLOAD SWAP2 POP POP JUMPDEST SWAP3 SWAP2 POP POP JUMP JUMPDEST PUSH1 0x0 DUP1 SLOAD PUSH1 0x40 MLOAD PUSH4 0x70A08231 PUSH1 0xE0 SHL DUP2 MSTORE ADDRESS PUSH1 0x4 DUP3 ADD MSTORE PUSH1 0x1 PUSH1 0x1 PUSH1 0xA0 SHL SUB SWAP1 SWAP2 AND SWAP1 PUSH4 0x70A08231 SWAP1 PUSH1 0x24 ADD PUSH1 0x20 PUSH1 0x40 MLOAD DUP1 DUP4 SUB DUP2 DUP7 GAS STATICCALL ISZERO DUP1 ISZERO PUSH2 0x99F JUMPI RETURNDATASIZE PUSH1 0x0 DUP1 RETURNDATACOPY RETURNDATASIZE PUSH1 0x0 REVERT JUMPDEST POP POP POP POP PUSH1 0x40 MLOAD RETURNDATASIZE PUSH1 0x1F NOT PUSH1 0x1F DUP3 ADD AND DUP3 ADD DUP1 PUSH1 0x40 MSTORE POP DUP2 ADD SWAP1 PUSH2 0x9C3 SWAP2 SWAP1 PUSH2 0x126A JUMP JUMPDEST SWAP1 POP SWAP1 JUMP JUMPDEST PUSH1 0x0 DUP1 DUP1 PUSH1 0x20 DUP5 SWAP1 SHR PUSH1 0x30 DUP6 SWAP1 SHR PUSH2 0x9E4 PUSH1 0x1 PUSH3 0x10000 PUSH2 0x10CF JUMP JUMPDEST DUP3 AND PUSH2 0x9F6 PUSH1 0x1 PUSH5 0x100000000 PUSH2 0x10CF JUMP JUMPDEST DUP8 AND SWAP4 POP SWAP4 POP SWAP4 POP POP SWAP2 SWAP4 SWAP1 SWAP3 POP JUMP JUMPDEST PUSH1 0x0 SLOAD PUSH1 0x1 PUSH1 0x1 PUSH1 0xA0 SHL SUB AND ISZERO PUSH2 0xA2F JUMPI PUSH1 0x40 MLOAD PUSH3 0xDC149F PUSH1 0xE4 SHL DUP2 MSTORE PUSH1 0x4 ADD PUSH1 0x40 MLOAD DUP1 SWAP2 SUB SWAP1 REVERT JUMPDEST PUSH1 0x0 DUP1 SLOAD PUSH1 0x1 PUSH1 0x1 PUSH1 0xA0 SHL SUB NOT AND PUSH1 0x1 PUSH1 0x1 PUSH1 0xA0 SHL SUB DUP4 AND SWAP1 DUP2 OR SWAP1 SWAP2 SSTORE PUSH1 0x40 DUP1 MLOAD PUSH4 0x313CE567 PUSH1 0xE0 SHL DUP2 MSTORE SWAP1 MLOAD PUSH4 0x313CE567 SWAP2 PUSH1 0x4 DUP1 DUP3 ADD SWAP3 PUSH1 0x20 SWAP3 SWAP1 SWAP2 SWAP1 DUP3 SWAP1 SUB ADD DUP2 DUP7 GAS STATICCALL ISZERO DUP1 ISZERO PUSH2 0xA88 JUMPI RETURNDATASIZE PUSH1 0x0 DUP1 RETURNDATACOPY RETURNDATASIZE PUSH1 0x0 REVERT JUMPDEST POP POP POP POP PUSH1 0x40 MLOAD RETURNDATASIZE PUSH1 0x1F NOT PUSH1 0x1F DUP3 ADD AND DUP3 ADD DUP1 PUSH1 0x40 MSTORE POP DUP2 ADD SWAP1 PUSH2 0xAAC SWAP2 SWAP1 PUSH2 0x1283 JUMP JUMPDEST PUSH1 0xFF AND PUSH1 0x1 SSTORE PUSH1 0x0 JUMPDEST PUSH1 0xA DUP2 LT ISZERO PUSH2 0xAFE JUMPI PUSH1 0x1 SLOAD PUSH2 0xACC SWAP1 PUSH1 0xA PUSH2 0x138A JUMP JUMPDEST PUSH2 0xAD7 DUP3 PUSH1 0x2 PUSH2 0x138A JUMP JUMPDEST PUSH2 0xAE1 SWAP2 SWAP1 PUSH2 0x1396 JUMP JUMPDEST PUSH1 0x3 DUP3 PUSH1 0xA DUP2 LT PUSH2 0xAF4 JUMPI PUSH2 0xAF4 PUSH2 0x10E6 JUMP JUMPDEST ADD SSTORE PUSH1 0x1 ADD PUSH2 0xAB5 JUMP JUMPDEST POP POP JUMP JUMPDEST PUSH2 0xB0A PUSH2 0xDAC JUMP JUMPDEST PUSH2 0xB13 DUP4 PUSH2 0xBC9 JUMP JUMPDEST POP PUSH2 0xB1C PUSH2 0xDAC JUMP JUMPDEST PUSH1 0x0 JUMPDEST PUSH1 0x5 DUP2 LT ISZERO PUSH2 0xBC1 JUMPI PUSH1 0x0 DUP6 DUP2 MSTORE PUSH1 0xE PUSH1 0x20 SWAP1 DUP2 MSTORE PUSH1 0x40 DUP1 DUP4 KECCAK256 DUP8 DUP5 MSTORE DUP3 MSTORE DUP1 DUP4 KECCAK256 DUP5 DUP5 MSTORE PUSH1 0x2 ADD SWAP1 SWAP2 MSTORE SWAP1 KECCAK256 SLOAD DUP3 DUP3 PUSH1 0x5 DUP2 LT PUSH2 0xB5F JUMPI PUSH2 0xB5F PUSH2 0x10E6 JUMP JUMPDEST PUSH1 0x20 SWAP1 DUP2 MUL SWAP2 SWAP1 SWAP2 ADD MLOAD SWAP2 SWAP1 SWAP2 MSTORE PUSH1 0x0 DUP7 DUP2 MSTORE PUSH1 0xE DUP3 MSTORE PUSH1 0x40 DUP1 DUP3 KECCAK256 DUP8 DUP4 MSTORE DUP4 MSTORE DUP1 DUP3 KECCAK256 DUP5 DUP4 MSTORE PUSH1 0x2 ADD SWAP1 SWAP3 MSTORE KECCAK256 PUSH1 0x1 ADD SLOAD DUP3 DUP3 PUSH1 0x5 DUP2 LT PUSH2 0xBA3 JUMPI PUSH2 0xBA3 PUSH2 0x10E6 JUMP JUMPDEST PUSH1 0x20 MUL ADD MLOAD PUSH1 0x1 PUSH1 0x20 MUL ADD MSTORE DUP1 PUSH2 0xBB9 DUP2 PUSH2 0x13B5 JUMP JUMPDEST SWAP2 POP POP PUSH2 0xB1F JUMP JUMPDEST POP SWAP4 SWAP3 POP POP POP JUMP JUMPDEST PUSH1 0x0 DUP1 DUP1 JUMPDEST PUSH1 0xA DUP2 LT ISZERO PUSH2 0xC04 JUMPI DUP4 PUSH1 0x3 DUP3 PUSH1 0xA DUP2 LT PUSH2 0xBEB JUMPI PUSH2 0xBEB PUSH2 0x10E6 JUMP JUMPDEST ADD SLOAD SUB PUSH2 0xBF7 JUMPI PUSH1 0x1 SWAP2 POP JUMPDEST DUP2 PUSH2 0xC04 JUMPI PUSH1 0x1 ADD PUSH2 0xBCE JUMP JUMPDEST POP DUP1 PUSH2 0xC47 JUMPI PUSH1 0x40 MLOAD PUSH3 0x461BCD PUSH1 0xE5 SHL DUP2 MSTORE PUSH1 0x20 PUSH1 0x4 DUP3 ADD MSTORE PUSH1 0x12 PUSH1 0x24 DUP3 ADD MSTORE PUSH18 0x105353D5539517D393D517D0531313D5D151 PUSH1 0x72 SHL PUSH1 0x44 DUP3 ADD MSTORE PUSH1 0x64 ADD PUSH2 0x326 JUMP JUMPDEST POP SWAP1 SWAP2 SWAP1 POP JUMP JUMPDEST PUSH1 0x0 PUSH2 0xC58 PUSH2 0xDD9 JUMP JUMPDEST PUSH1 0x0 PUSH2 0xC63 DUP6 PUSH2 0xBC9 JUMP JUMPDEST PUSH1 0x0 DUP2 DUP2 MSTORE PUSH1 0xE PUSH1 0x20 SWAP1 DUP2 MSTORE PUSH1 0x40 DUP1 DUP4 KECCAK256 DUP9 DUP5 MSTORE SWAP1 SWAP2 MSTORE DUP2 KECCAK256 SWAP2 SWAP3 POP JUMPDEST PUSH1 0x5 DUP2 PUSH1 0xFF AND LT ISZERO PUSH2 0xCED JUMPI PUSH1 0xFF DUP2 AND PUSH1 0x0 SWAP1 DUP2 MSTORE PUSH1 0x2 DUP4 DUP2 ADD PUSH1 0x20 MSTORE PUSH1 0x40 SWAP2 DUP3 SWAP1 KECCAK256 DUP3 MLOAD DUP1 DUP5 ADD SWAP4 DUP5 SWAP1 MSTORE SWAP3 SWAP1 SWAP2 SWAP1 DUP3 DUP5 JUMPDEST DUP2 SLOAD DUP2 MSTORE PUSH1 0x20 ADD SWAP1 PUSH1 0x1 ADD SWAP1 DUP1 DUP4 GT PUSH2 0xCB3 JUMPI POP POP POP POP POP DUP5 DUP3 PUSH1 0xFF AND PUSH1 0x5 DUP2 LT PUSH2 0xCE0 JUMPI PUSH2 0xCE0 PUSH2 0x10E6 JUMP JUMPDEST PUSH1 0x20 MUL ADD MSTORE PUSH1 0x1 ADD PUSH2 0xC80 JUMP JUMPDEST POP PUSH1 0x0 DUP1 PUSH2 0xCFE DUP4 PUSH1 0x1 ADD SLOAD PUSH2 0x9C8 JUMP JUMPDEST SWAP3 POP POP SWAP2 POP PUSH1 0x0 PUSH1 0x1 NUMBER PUSH2 0xD12 SWAP2 SWAP1 PUSH2 0x10CF JUMP JUMPDEST DUP5 SLOAD PUSH1 0x40 MLOAD PUSH2 0xD2B SWAP3 BLOCKHASH SWAP2 DUP6 SWAP2 DUP8 SWAP1 DUP12 SWAP1 PUSH1 0x20 ADD PUSH2 0x13CE JUMP JUMPDEST PUSH1 0x40 DUP1 MLOAD DUP1 DUP4 SUB PUSH1 0x1F NOT ADD DUP2 MSTORE SWAP2 SWAP1 MSTORE DUP1 MLOAD PUSH1 0x20 SWAP1 SWAP2 ADD KECCAK256 SWAP10 SWAP9 POP POP POP POP POP POP POP POP POP JUMP JUMPDEST PUSH1 0x40 MLOAD DUP1 PUSH1 0x40 ADD PUSH1 0x40 MSTORE DUP1 PUSH1 0x2 SWAP1 PUSH1 0x20 DUP3 MUL DUP1 CALLDATASIZE DUP4 CALLDATACOPY POP SWAP2 SWAP3 SWAP2 POP POP JUMP JUMPDEST DUP3 PUSH1 0x2 DUP2 ADD SWAP3 DUP3 ISZERO PUSH2 0xD9C JUMPI SWAP2 PUSH1 0x20 MUL DUP3 ADD JUMPDEST DUP3 DUP2 GT ISZERO PUSH2 0xD9C JUMPI DUP3 MLOAD DUP3 SSTORE SWAP2 PUSH1 0x20 ADD SWAP2 SWAP1 PUSH1 0x1 ADD SWAP1 PUSH2 0xD81 JUMP JUMPDEST POP PUSH2 0xDA8 SWAP3 SWAP2 POP PUSH2 0xE06 JUMP JUMPDEST POP SWAP1 JUMP JUMPDEST PUSH1 0x40 MLOAD DUP1 PUSH1 0xA0 ADD PUSH1 0x40 MSTORE DUP1 PUSH1 0x5 SWAP1 JUMPDEST PUSH2 0xDC3 PUSH2 0xD50 JUMP JUMPDEST DUP2 MSTORE PUSH1 0x20 ADD SWAP1 PUSH1 0x1 SWAP1 SUB SWAP1 DUP2 PUSH2 0xDBB JUMPI SWAP1 POP POP SWAP1 JUMP JUMPDEST PUSH1 0x40 MLOAD DUP1 PUSH1 0xA0 ADD PUSH1 0x40 MSTORE DUP1 PUSH1 0x5 SWAP1 JUMPDEST PUSH2 0xDF0 PUSH2 0xD50 JUMP JUMPDEST DUP2 MSTORE PUSH1 0x20 ADD SWAP1 PUSH1 0x1 SWAP1 SUB SWAP1 DUP2 PUSH2 0xDE8 JUMPI SWAP1 POP POP SWAP1 JUMP JUMPDEST JUMPDEST DUP1 DUP3 GT ISZERO PUSH2 0xDA8 JUMPI PUSH1 0x0 DUP2 SSTORE PUSH1 0x1 ADD PUSH2 0xE07 JUMP JUMPDEST PUSH1 0x0 PUSH1 0x20 DUP3 DUP5 SUB SLT ISZERO PUSH2 0xE2D JUMPI PUSH1 0x0 DUP1 REVERT JUMPDEST POP CALLDATALOAD SWAP2 SWAP1 POP JUMP JUMPDEST PUSH1 0x1 PUSH1 0x1 PUSH1 0xA0 SHL SUB DUP2 AND DUP2 EQ PUSH2 0xE49 JUMPI PUSH1 0x0 DUP1 REVERT JUMPDEST POP JUMP JUMPDEST PUSH4 0x4E487B71 PUSH1 0xE0 SHL PUSH1 0x0 MSTORE PUSH1 0x41 PUSH1 0x4 MSTORE PUSH1 0x24 PUSH1 0x0 REVERT JUMPDEST PUSH1 0x40 MLOAD PUSH1 0x1F DUP3 ADD PUSH1 0x1F NOT AND DUP2 ADD PUSH8 0xFFFFFFFFFFFFFFFF DUP2 GT DUP3 DUP3 LT OR ISZERO PUSH2 0xE8B JUMPI PUSH2 0xE8B PUSH2 0xE4C JUMP JUMPDEST PUSH1 0x40 MSTORE SWAP2 SWAP1 POP JUMP JUMPDEST PUSH1 0x0 DUP3 PUSH1 0x1F DUP4 ADD SLT PUSH2 0xEA4 JUMPI PUSH1 0x0 DUP1 REVERT JUMPDEST PUSH1 0x40 MLOAD PUSH1 0x40 DUP2 ADD DUP2 DUP2 LT PUSH8 0xFFFFFFFFFFFFFFFF DUP3 GT OR ISZERO PUSH2 0xEC7 JUMPI PUSH2 0xEC7 PUSH2 0xE4C JUMP JUMPDEST DUP1 PUSH1 0x40 MSTORE POP DUP1 PUSH1 0x40 DUP5 ADD DUP6 DUP2 GT ISZERO PUSH2 0xEDE JUMPI PUSH1 0x0 DUP1 REVERT JUMPDEST DUP5 JUMPDEST DUP2 DUP2 LT ISZERO PUSH2 0xEF8 JUMPI DUP1 CALLDATALOAD DUP4 MSTORE PUSH1 0x20 SWAP3 DUP4 ADD SWAP3 ADD PUSH2 0xEE0 JUMP JUMPDEST POP SWAP2 SWAP6 SWAP5 POP POP POP POP POP JUMP JUMPDEST PUSH1 0x0 DUP1 PUSH1 0x0 DUP1 PUSH1 0x0 DUP1 PUSH1 0xE0 DUP8 DUP10 SUB SLT ISZERO PUSH2 0xF1C JUMPI PUSH1 0x0 DUP1 REVERT JUMPDEST DUP7 CALLDATALOAD PUSH2 0xF27 DUP2 PUSH2 0xE34 JUMP JUMPDEST SWAP6 POP PUSH1 0x20 DUP8 DUP2 ADD CALLDATALOAD SWAP6 POP PUSH1 0x40 DUP9 ADD CALLDATALOAD SWAP5 POP PUSH1 0x60 DUP9 ADD CALLDATALOAD SWAP4 POP PUSH2 0xF4C DUP10 PUSH1 0x80 DUP11 ADD PUSH2 0xE93 JUMP JUMPDEST SWAP3 POP PUSH1 0xC0 DUP9 ADD CALLDATALOAD PUSH8 0xFFFFFFFFFFFFFFFF DUP1 DUP3 GT ISZERO PUSH2 0xF69 JUMPI PUSH1 0x0 DUP1 REVERT JUMPDEST DUP2 DUP11 ADD SWAP2 POP DUP11 PUSH1 0x1F DUP4 ADD SLT PUSH2 0xF7D JUMPI PUSH1 0x0 DUP1 REVERT JUMPDEST DUP2 CALLDATALOAD DUP2 DUP2 GT ISZERO PUSH2 0xF8F JUMPI PUSH2 0xF8F PUSH2 0xE4C JUMP JUMPDEST DUP1 PUSH1 0x5 SHL SWAP2 POP PUSH2 0xFA0 DUP5 DUP4 ADD PUSH2 0xE62 JUMP JUMPDEST DUP2 DUP2 MSTORE SWAP2 DUP4 ADD DUP5 ADD SWAP2 DUP5 DUP2 ADD SWAP1 DUP14 DUP5 GT ISZERO PUSH2 0xFBA JUMPI PUSH1 0x0 DUP1 REVERT JUMPDEST SWAP4 DUP6 ADD SWAP4 JUMPDEST DUP4 DUP6 LT ISZERO PUSH2 0xFD8 JUMPI DUP5 CALLDATALOAD DUP3 MSTORE SWAP4 DUP6 ADD SWAP4 SWAP1 DUP6 ADD SWAP1 PUSH2 0xFBF JUMP JUMPDEST DUP1 SWAP7 POP POP POP POP POP POP POP SWAP3 SWAP6 POP SWAP3 SWAP6 POP SWAP3 SWAP6 JUMP JUMPDEST PUSH1 0x0 DUP1 PUSH1 0x40 DUP4 DUP6 SUB SLT ISZERO PUSH2 0xFFE JUMPI PUSH1 0x0 DUP1 REVERT JUMPDEST POP POP DUP1 CALLDATALOAD SWAP3 PUSH1 0x20 SWAP1 SWAP2 ADD CALLDATALOAD SWAP2 POP JUMP JUMPDEST PUSH1 0x0 DUP1 PUSH1 0x60 DUP4 DUP6 SUB SLT ISZERO PUSH2 0x1020 JUMPI PUSH1 0x0 DUP1 REVERT JUMPDEST DUP3 CALLDATALOAD SWAP2 POP PUSH2 0x1031 DUP5 PUSH1 0x20 DUP6 ADD PUSH2 0xE93 JUMP JUMPDEST SWAP1 POP SWAP3 POP SWAP3 SWAP1 POP JUMP JUMPDEST PUSH1 0x0 PUSH1 0x20 DUP3 DUP5 SUB SLT ISZERO PUSH2 0x104C JUMPI PUSH1 0x0 DUP1 REVERT JUMPDEST DUP2 CALLDATALOAD PUSH2 0x1057 DUP2 PUSH2 0xE34 JUMP JUMPDEST SWAP4 SWAP3 POP POP POP JUMP JUMPDEST PUSH2 0x140 DUP2 ADD DUP2 DUP4 PUSH1 0x0 DUP1 JUMPDEST PUSH1 0x5 DUP2 LT ISZERO PUSH2 0x10AF JUMPI DUP3 MLOAD DUP5 DUP4 JUMPDEST PUSH1 0x2 DUP2 LT ISZERO PUSH2 0x1096 JUMPI DUP3 MLOAD DUP3 MSTORE PUSH1 0x20 SWAP3 DUP4 ADD SWAP3 SWAP1 SWAP2 ADD SWAP1 PUSH1 0x1 ADD PUSH2 0x1077 JUMP JUMPDEST POP POP POP PUSH1 0x40 SWAP4 SWAP1 SWAP4 ADD SWAP3 PUSH1 0x20 SWAP3 SWAP1 SWAP3 ADD SWAP2 PUSH1 0x1 ADD PUSH2 0x1069 JUMP JUMPDEST POP POP POP POP SWAP3 SWAP2 POP POP JUMP JUMPDEST PUSH4 0x4E487B71 PUSH1 0xE0 SHL PUSH1 0x0 MSTORE PUSH1 0x11 PUSH1 0x4 MSTORE PUSH1 0x24 PUSH1 0x0 REVERT JUMPDEST PUSH1 0x0 DUP3 DUP3 LT ISZERO PUSH2 0x10E1 JUMPI PUSH2 0x10E1 PUSH2 0x10B9 JUMP JUMPDEST POP SUB SWAP1 JUMP JUMPDEST PUSH4 0x4E487B71 PUSH1 0xE0 SHL PUSH1 0x0 MSTORE PUSH1 0x32 PUSH1 0x4 MSTORE PUSH1 0x24 PUSH1 0x0 REVERT JUMPDEST DUP1 PUSH1 0x0 JUMPDEST PUSH1 0x2 DUP2 LT ISZERO PUSH2 0x111F JUMPI DUP2 MLOAD DUP5 MSTORE PUSH1 0x20 SWAP4 DUP5 ADD SWAP4 SWAP1 SWAP2 ADD SWAP1 PUSH1 0x1 ADD PUSH2 0x1100 JUMP JUMPDEST POP POP POP POP JUMP JUMPDEST PUSH1 0x0 DUP2 MLOAD DUP1 DUP5 MSTORE PUSH1 0x20 DUP1 DUP6 ADD SWAP5 POP DUP1 DUP5 ADD PUSH1 0x0 JUMPDEST DUP4 DUP2 LT ISZERO PUSH2 0x1155 JUMPI DUP2 MLOAD DUP8 MSTORE SWAP6 DUP3 ADD SWAP6 SWAP1 DUP3 ADD SWAP1 PUSH1 0x1 ADD PUSH2 0x1139 JUMP JUMPDEST POP SWAP5 SWAP6 SWAP5 POP POP POP POP POP JUMP JUMPDEST PUSH1 0x0 DUP2 MLOAD DUP1 DUP5 MSTORE PUSH1 0x20 DUP1 DUP6 ADD SWAP5 POP DUP1 DUP5 ADD PUSH1 0x0 JUMPDEST DUP4 DUP2 LT ISZERO PUSH2 0x1155 JUMPI PUSH2 0x1187 DUP8 DUP4 MLOAD PUSH2 0x10FC JUMP JUMPDEST PUSH1 0x40 SWAP7 SWAP1 SWAP7 ADD SWAP6 SWAP1 DUP3 ADD SWAP1 PUSH1 0x1 ADD PUSH2 0x1174 JUMP JUMPDEST PUSH1 0xC0 DUP2 MSTORE PUSH1 0x0 DUP7 MLOAD DUP1 PUSH1 0xC0 DUP5 ADD MSTORE PUSH1 0x0 JUMPDEST DUP2 DUP2 LT ISZERO PUSH2 0x11C8 JUMPI PUSH1 0x20 DUP2 DUP11 ADD DUP2 ADD MLOAD PUSH1 0xE0 DUP7 DUP5 ADD ADD MSTORE ADD PUSH2 0x11AB JUMP JUMPDEST DUP2 DUP2 GT ISZERO PUSH2 0x11DA JUMPI PUSH1 0x0 PUSH1 0xE0 DUP4 DUP7 ADD ADD MSTORE JUMPDEST POP PUSH1 0x20 DUP4 ADD DUP8 SWAP1 MSTORE PUSH1 0x1F ADD PUSH1 0x1F NOT AND DUP3 ADD PUSH2 0x11F8 PUSH1 0x40 DUP5 ADD DUP8 PUSH2 0x10FC JUMP JUMPDEST PUSH1 0xE0 DUP4 DUP3 SUB ADD PUSH1 0x80 DUP5 ADD MSTORE PUSH2 0x1210 PUSH1 0xE0 DUP3 ADD DUP7 PUSH2 0x1125 JUMP JUMPDEST SWAP1 POP DUP3 DUP2 SUB PUSH1 0xA0 DUP5 ADD MSTORE PUSH2 0x1224 DUP2 DUP6 PUSH2 0x1160 JUMP JUMPDEST SWAP9 SWAP8 POP POP POP POP POP POP POP POP JUMP JUMPDEST PUSH1 0x0 PUSH1 0x20 DUP3 DUP5 SUB SLT ISZERO PUSH2 0x1242 JUMPI PUSH1 0x0 DUP1 REVERT JUMPDEST DUP2 MLOAD DUP1 ISZERO ISZERO DUP2 EQ PUSH2 0x1057 JUMPI PUSH1 0x0 DUP1 REVERT JUMPDEST PUSH1 0x0 DUP3 NOT DUP3 GT ISZERO PUSH2 0x1265 JUMPI PUSH2 0x1265 PUSH2 0x10B9 JUMP JUMPDEST POP ADD SWAP1 JUMP JUMPDEST PUSH1 0x0 PUSH1 0x20 DUP3 DUP5 SUB SLT ISZERO PUSH2 0x127C JUMPI PUSH1 0x0 DUP1 REVERT JUMPDEST POP MLOAD SWAP2 SWAP1 POP JUMP JUMPDEST PUSH1 0x0 PUSH1 0x20 DUP3 DUP5 SUB SLT ISZERO PUSH2 0x1295 JUMPI PUSH1 0x0 DUP1 REVERT JUMPDEST DUP2 MLOAD PUSH1 0xFF DUP2 AND DUP2 EQ PUSH2 0x1057 JUMPI PUSH1 0x0 DUP1 REVERT JUMPDEST PUSH1 0x1 DUP2 DUP2 JUMPDEST DUP1 DUP6 GT ISZERO PUSH2 0x12E1 JUMPI DUP2 PUSH1 0x0 NOT DIV DUP3 GT ISZERO PUSH2 0x12C7 JUMPI PUSH2 0x12C7 PUSH2 0x10B9 JUMP JUMPDEST DUP1 DUP6 AND ISZERO PUSH2 0x12D4 JUMPI SWAP2 DUP2 MUL SWAP2 JUMPDEST SWAP4 DUP5 SHR SWAP4 SWAP1 DUP1 MUL SWAP1 PUSH2 0x12AB JUMP JUMPDEST POP SWAP3 POP SWAP3 SWAP1 POP JUMP JUMPDEST PUSH1 0x0 DUP3 PUSH2 0x12F8 JUMPI POP PUSH1 0x1 PUSH2 0x950 JUMP JUMPDEST DUP2 PUSH2 0x1305 JUMPI POP PUSH1 0x0 PUSH2 0x950 JUMP JUMPDEST DUP2 PUSH1 0x1 DUP2 EQ PUSH2 0x131B JUMPI PUSH1 0x2 DUP2 EQ PUSH2 0x1325 JUMPI PUSH2 0x1341 JUMP JUMPDEST PUSH1 0x1 SWAP2 POP POP PUSH2 0x950 JUMP JUMPDEST PUSH1 0xFF DUP5 GT ISZERO PUSH2 0x1336 JUMPI PUSH2 0x1336 PUSH2 0x10B9 JUMP JUMPDEST POP POP PUSH1 0x1 DUP3 SHL PUSH2 0x950 JUMP JUMPDEST POP PUSH1 0x20 DUP4 LT PUSH2 0x133 DUP4 LT AND PUSH1 0x4E DUP5 LT PUSH1 0xB DUP5 LT AND OR ISZERO PUSH2 0x1364 JUMPI POP DUP2 DUP2 EXP PUSH2 0x950 JUMP JUMPDEST PUSH2 0x136E DUP4 DUP4 PUSH2 0x12A6 JUMP JUMPDEST DUP1 PUSH1 0x0 NOT DIV DUP3 GT ISZERO PUSH2 0x1382 JUMPI PUSH2 0x1382 PUSH2 0x10B9 JUMP JUMPDEST MUL SWAP4 SWAP3 POP POP POP JUMP JUMPDEST PUSH1 0x0 PUSH2 0x1057 DUP4 DUP4 PUSH2 0x12E9 JUMP JUMPDEST PUSH1 0x0 DUP2 PUSH1 0x0 NOT DIV DUP4 GT DUP3 ISZERO ISZERO AND ISZERO PUSH2 0x13B0 JUMPI PUSH2 0x13B0 PUSH2 0x10B9 JUMP JUMPDEST POP MUL SWAP1 JUMP JUMPDEST PUSH1 0x0 PUSH1 0x1 DUP3 ADD PUSH2 0x13C7 JUMPI PUSH2 0x13C7 PUSH2 0x10B9 JUMP JUMPDEST POP PUSH1 0x1 ADD SWAP1 JUMP JUMPDEST DUP6 DUP2 MSTORE PUSH1 0x0 PUSH1 0x20 DUP7 DUP2 DUP5 ADD MSTORE PUSH1 0x40 DUP7 DUP2 DUP6 ADD MSTORE DUP6 PUSH1 0x60 DUP6 ADD MSTORE PUSH1 0x80 DUP5 ADD DUP6 PUSH1 0x0 DUP1 JUMPDEST PUSH1 0x5 DUP2 LT ISZERO PUSH2 0x142E JUMPI DUP3 MLOAD DUP5 DUP4 JUMPDEST PUSH1 0x2 DUP2 LT ISZERO PUSH2 0x141B JUMPI DUP3 MLOAD DUP3 MSTORE SWAP2 DUP9 ADD SWAP2 SWAP1 DUP9 ADD SWAP1 PUSH1 0x1 ADD PUSH2 0x13FE JUMP JUMPDEST POP POP POP SWAP3 DUP5 ADD SWAP3 SWAP2 DUP6 ADD SWAP2 PUSH1 0x1 ADD PUSH2 0x13F0 JUMP JUMPDEST POP POP POP POP POP POP PUSH2 0x1C0 DUP3 ADD SWAP1 POP SWAP7 SWAP6 POP POP POP POP POP POP JUMP INVALID LOG2 PUSH5 0x6970667358 0x22 SLT KECCAK256 0x2F PUSH6 0x674890C2BFAE 0x2C 0x5C 0x5E PUSH24 0x33C413B2A8D7500C796C687F931C5838DAEB418B64736F6C PUSH4 0x4300080D STOP CALLER LOG2 PUSH5 0x6970667358 0x22 SLT KECCAK256 RETURNDATACOPY SDIV 0x1E 0x22 0xCE 0xE4 0xB0 0xA8 0xAF PUSH27 0xC44D242F748D43DCC3B7BA26E563A9E7F9DF23B321B864736F6C63 NUMBER STOP ADDMOD 0xD STOP CALLER ",
  "sha1": "83e2bafad488cbf25b9a92a12c4bcd54b4b39de9",
  "source": "// SPDX-License-Identifier: AGPL-3.0-only\n\npragma solidity ^0.8.5;\n\nimport \"./HettiPool.sol\";\nimport \"./interfaces/IHettiPool.sol\";\n\ncontract HettiFactory {\n\n    // Errors\n    error PoolExists();\n    error ZeroAddress();\n    error Forbidden();\n\n    // Events\n    event PoolCreated(\n        address indexed token,\n        address poolAddress\n    );\n\n    address[] public allPools;\n    address public manager;\n\n    mapping(address => address) public pools;\n\n\n    constructor(address _manager) {\n        manager = _manager;\n    }\n\n    function createPool(address token) public returns (address vault) {\n\n        if (token == address(0)) revert ZeroAddress();\n        if(pools[token] != address(0)) revert PoolExists();\n\n\n        bytes memory bytecode = type(HettiPool).creationCode;\n        bytes32 salt = keccak256(abi.encodePacked(token));\n\n        assembly {\n            vault := create2(0, add(bytecode, 32), mload(bytecode), salt)\n        }\n\n        IHettiPool(vault).initialize(token);\n\n        pools[token] = vault;\n        allPools.push(vault);\n\n        emit PoolCreated(token, vault);\n    }\n\n    function allPoolsLength() external view returns (uint) {\n        return allPools.length;\n    }\n\n    function setManager(address _manager) external {\n        if (msg.sender != manager) revert Forbidden();\n        manager = _manager;\n    }\n}",
  "sourcePath": "contracts/HettiFactory.sol",
  "type": "contract"
}