{
  "abi": [
    {
      "inputs": [
        {
          "internalType": "address",
          "name": "_manager",
          "type": "address"
        }
      ],
      "stateMutability": "nonpayable",
      "type": "constructor"
    },
    {
      "inputs": [],
      "name": "Forbidden",
      "type": "error"
    },
    {
      "inputs": [],
      "name": "PoolExists",
      "type": "error"
    },
    {
      "inputs": [],
      "name": "ZeroAddress",
      "type": "error"
    },
    {
      "anonymous": false,
      "inputs": [
        {
          "indexed": true,
          "internalType": "address",
          "name": "token",
          "type": "address"
        },
        {
          "indexed": false,
          "internalType": "address",
          "name": "poolAddress",
          "type": "address"
        }
      ],
      "name": "PoolCreated",
      "type": "event"
    },
    {
      "inputs": [
        {
          "internalType": "uint256",
          "name": "",
          "type": "uint256"
        }
      ],
      "name": "allPools",
      "outputs": [
        {
          "internalType": "address",
          "name": "",
          "type": "address"
        }
      ],
      "stateMutability": "view",
      "type": "function"
    },
    {
      "inputs": [],
      "name": "allPoolsLength",
      "outputs": [
        {
          "internalType": "uint256",
          "name": "",
          "type": "uint256"
        }
      ],
      "stateMutability": "view",
      "type": "function"
    },
    {
      "inputs": [
        {
          "internalType": "address",
          "name": "token",
          "type": "address"
        }
      ],
      "name": "createPool",
      "outputs": [
        {
          "internalType": "address",
          "name": "vault",
          "type": "address"
        }
      ],
      "stateMutability": "nonpayable",
      "type": "function"
    },
    {
      "inputs": [],
      "name": "manager",
      "outputs": [
        {
          "internalType": "address",
          "name": "",
          "type": "address"
        }
      ],
      "stateMutability": "view",
      "type": "function"
    },
    {
      "inputs": [
        {
          "internalType": "address",
          "name": "",
          "type": "address"
        }
      ],
      "name": "pools",
      "outputs": [
        {
          "internalType": "address",
          "name": "",
          "type": "address"
        }
      ],
      "stateMutability": "view",
      "type": "function"
    },
    {
      "inputs": [
        {
          "internalType": "address",
          "name": "_manager",
          "type": "address"
        }
      ],
      "name": "setManager",
      "outputs": [],
      "stateMutability": "nonpayable",
      "type": "function"
    }
  ],
  "bytecode": "608060405234801561001057600080fd5b50604051611e52380380611e5283398101604081905261002f91610054565b600180546001600160a01b0319166001600160a01b0392909216919091179055610084565b60006020828403121561006657600080fd5b81516001600160a01b038116811461007d57600080fd5b9392505050565b611dbf806100936000396000f3fe608060405234801561001057600080fd5b50600436106100625760003560e01c806341d1de9714610067578063481c6a75146100975780639049f9d2146100aa578063a4063dbc146100bd578063d0ebdbe7146100e6578063efde4e64146100fb575b600080fd5b61007a610075366004610360565b61010c565b6040516001600160a01b0390911681526020015b60405180910390f35b60015461007a906001600160a01b031681565b61007a6100b8366004610379565b610136565b61007a6100cb366004610379565b6002602052600090815260409020546001600160a01b031681565b6100f96100f4366004610379565b610306565b005b60005460405190815260200161008e565b6000818154811061011c57600080fd5b6000918252602090912001546001600160a01b0316905081565b60006001600160a01b03821661015f5760405163d92e233d60e01b815260040160405180910390fd5b6001600160a01b03828116600090815260026020526040902054161561019857604051637a471e1360e11b815260040160405180910390fd5b6000604051806020016101aa90610353565b601f1982820381018352601f9091011660408190526bffffffffffffffffffffffff19606086901b166020820152909150600090603401604051602081830303815290604052805190602001209050808251602084016000f560405163189acdbd60e31b81526001600160a01b0386811660048301529194509084169063c4d66de890602401600060405180830381600087803b15801561024a57600080fd5b505af115801561025e573d6000803e3d6000fd5b505050506001600160a01b03848116600081815260026020908152604080832080549589166001600160a01b0319968716811790915583546001810185559380527f290decd9548b62a8d60345a988386fc84ba6bc95484008f6362f93160ef3e56390930180549095168317909455925190815290917f4f2ce4e40f623ca765fc0167a25cb7842ceaafb8d82d3dec26ca0d0e0d2d4896910160405180910390a25050919050565b6001546001600160a01b0316331461033157604051631dd2188d60e31b815260040160405180910390fd5b600180546001600160a01b0319166001600160a01b0392909216919091179055565b6119e0806103aa83390190565b60006020828403121561037257600080fd5b5035919050565b60006020828403121561038b57600080fd5b81356001600160a01b03811681146103a257600080fd5b939250505056fe6080604052600960025534801561001557600080fd5b506119bb806100256000396000f3fe6080604052600436106101095760003560e01c80639bcb557211610095578063b61d27f611610064578063b61d27f6146102e8578063bf12505b146102fb578063c4d66de81461031b578063d5fce7351461033b578063fc0c546a1461036857600080fd5b80639bcb55721461027c5780639edb6cbd146102925780639f1961e6146102b3578063abd70aa2146102d357600080fd5b806371d8ded9116100dc57806371d8ded9146101db5780637c0ffaa2146101fb5780637f5bf51c1461020f5780638ae0edba1461022f5780639325019d1461024f57600080fd5b80631b9db2ef1461010e5780633b97e8561461014157806362230498146101575780636381d19e14610179575b600080fd5b34801561011a57600080fd5b5061012e610129366004611274565b6103a0565b6040519081526020015b60405180910390f35b34801561014d57600080fd5b5061012e60015481565b34801561016357600080fd5b5061017761017236600461135c565b6103bc565b005b34801561018557600080fd5b506101c0610194366004611444565b600e60209081526000928352604080842090915290825290208054600182015460049092015490919083565b60408051938452602084019290925290820152606001610138565b3480156101e757600080fd5b506101776101f6366004611466565b6107fd565b34801561020757600080fd5b50600361012e565b34801561021b57600080fd5b5061012e61022a366004611274565b610afc565b34801561023b57600080fd5b5061012e61024a366004611274565b610b1b565b34801561025b57600080fd5b5061012e61026a366004611274565b600d6020526000908152604090205481565b34801561028857600080fd5b5061012e60025481565b34801561029e57600080fd5b5061012e6102ad366004611274565b60301c90565b3480156102bf57600080fd5b5061012e6102ce366004611444565b610b3e565b3480156102df57600080fd5b5061012e610b70565b6101776102f6366004611493565b610be2565b34801561030757600080fd5b506101c0610316366004611274565b610e21565b34801561032757600080fd5b5061017761033636600461151c565b610e5f565b34801561034757600080fd5b5061035b610356366004611444565b610f5b565b6040516101389190611540565b34801561037457600080fd5b50600054610388906001600160a01b031681565b6040516001600160a01b039091168152602001610138565b6000602082901c6103b56001620100006115b0565b1692915050565b6000858152600e6020908152604080832087845290915281206001810154909190819081906103ea90610e21565b919450925090506001600160a01b038a1661043b5760405162461bcd60e51b815260206004820152600c60248201526b5a45524f5f4144445245535360a01b60448201526064015b60405180910390fd5b600383106104815760405162461bcd60e51b815260206004820152601360248201527220a6262fa32aa72229afaba4aa24222920aba760691b6044820152606401610432565b60048401546104c45760405162461bcd60e51b815260206004820152600f60248201526e14925391d7d393d517d0d313d4d151608a1b6044820152606401610432565b60408051600380825260808201909252600091816020015b6104e46111a9565b8152602001906001900390816104dc57905050905060005b600381101561056557600081815260028781016020526040918290208251808401938490529290919082845b815481526020019060010190808311610528575050505050828281518110610552576105526115c7565b60209081029190910101526001016104fc565b50600073__LSAG__________________________________63fe46a2b287600401548e6040516020016105b492919091825260601b6bffffffffffffffffffffffff1916602082015260340190565b6040516020818303038152906040528b8b8b876040518663ffffffff1660e01b81526004016105e795949392919061167b565b602060405180830381865af4158015610604573d6000803e3d6000fd5b505050506040513d601f19601f820116820180604052508101906106289190611711565b90508061066b5760405162461bcd60e51b8152602060048201526011602482015270494e56414c49445f5349474e415455524560781b6044820152606401610432565b60005b858110156106f457885160008281526003890160205260409020541480156106ae57506020808a0151600083815260038a01909252604090912060010154145b156106ec5760405162461bcd60e51b815260206004820152600e60248201526d555345445f5349474e415455524560901b6044820152606401610432565b60010161066e565b5060008581526003870160205260409020610711908960026111c7565b506001948501601081901b851760201b841795870186905560005460405163a9059cbb60e01b81526001600160a01b038f81166004830152602482018f90529297929091169063a9059cbb906044016020604051808303816000875af115801561077f573d6000803e3d6000fd5b505050506040513d601f19601f820116820180604052508101906107a39190611711565b50604080516001600160a01b038f168152602081018e90529081018c90527f92ccf450a286a957af52509bc1c9939d1a6a481783e142e41e2499f0bb66ebc69060600160405180910390a150505050505050505050505050565b600061080883611022565b6000546040516323b872dd60e01b8152336004820152306024820152604481018690529192506001600160a01b0316906323b872dd906064016020604051808303816000875af1158015610860573d6000803e3d6000fd5b505050506040513d601f19601f820116820180604052508101906108849190611711565b5081516020830151604051630cd3b28960e31b81526004810192909252602482015273__AltBn128______________________________9063669d944890604401602060405180830381865af41580156108e2573d6000803e3d6000fd5b505050506040513d601f19601f820116820180604052508101906109069190611711565b6109445760405162461bcd60e51b815260206004820152600f60248201526e504b5f4e4f545f4f4e5f435552564560881b6044820152606401610432565b6000818152600d6020908152604080832054600e835281842081855290925282206001810154919290918190819061097b90610e21565b92509250925060005b82811015610a0e57875160008281526002870160205260409020541480156109c45750602080890151600083815260028801909252604090912060010154145b15610a065760405162461bcd60e51b8152602060048201526012602482015271504b5f414c52454144595f494e5f52494e4760701b6044820152606401610432565b600101610984565b5081600003610a2557610a226001436115b0565b90505b600082815260028086016020526040909120610a429189906111c7565b5085846000016000828254610a579190611733565b90915550506001918201601084901b811760201b82179285018390559160038310610ab057610a8687876110a7565b60048601556000878152600d60205260408120805460019290610aaa908490611733565b90915550505b60408051338152602081018990529081018790527f73a19dd210f1a7f902193214c0ee91dd35ee5b4d920cba8d519eca65a7b488ca9060600160405180910390a1505050505050505050565b6000610b0782611022565b50506000908152600d602052604090205490565b600061271060025483610b2e919061174b565b610b38919061176a565b92915050565b600080610b4a84611022565b6000908152600e6020908152604080832086845290915290206004015491505092915050565b600080546040516370a0823160e01b81523060048201526001600160a01b03909116906370a0823190602401602060405180830381865afa158015610bb9573d6000803e3d6000fd5b505050506040513d601f19601f82011682018060405250810190610bdd919061178c565b905090565b6000610bec610b70565b905083811015610c335760405162461bcd60e51b8152602060048201526012602482015271494e53554646494349454e545f46554e445360701b6044820152606401610432565b6000610c3e85610b1b565b9050856001600160a01b03167f8852f4cb22828da9ddc44460130398d816e46fd1f370d80d82a4de81fcd5aeee86604051610c7b91815260200190565b60405180910390a260005460405163a9059cbb60e01b81526001600160a01b038881166004830152602482018890529091169063a9059cbb906044016020604051808303816000875af1158015610cd6573d6000803e3d6000fd5b505050506040513d601f19601f82011682018060405250810190610cfa9190611711565b50604051637924fd7d60e01b81526001600160a01b03871690637924fd7d90610d2d9088908590899089906004016117a5565b600060405180830381600087803b158015610d4757600080fd5b505af1158015610d5b573d6000803e3d6000fd5b50506000546040516370a0823160e01b81523060048201526001600160a01b0390911692506370a082319150602401602060405180830381865afa158015610da7573d6000803e3d6000fd5b505050506040513d601f19601f82011682018060405250810190610dcb919061178c565b610dd58284611733565b1115610e195760405162461bcd60e51b81526020600482015260136024820152721513d2d15394d7d393d517d491551554939151606a1b6044820152606401610432565b505050505050565b60008080602084901c603085901c610e3d6001620100006115b0565b8216610e4f60016401000000006115b0565b8716935093509350509193909250565b6000546001600160a01b031615610e885760405162dc149f60e41b815260040160405180910390fd5b600080546001600160a01b0319166001600160a01b0383169081179091556040805163313ce56760e01b8152905163313ce567916004808201926020929091908290030181865afa158015610ee1573d6000803e3d6000fd5b505050506040513d601f19601f82011682018060405250810190610f0591906117e2565b60ff1660015560005b600a811015610f5757600154610f2590600a6118e9565b610f308260026118e9565b610f3a919061174b565b600382600a8110610f4d57610f4d6115c7565b0155600101610f0e565b5050565b610f63611205565b610f6c83611022565b50610f75611205565b60005b600381101561101a576000858152600e602090815260408083208784528252808320848452600201909152902054828260038110610fb857610fb86115c7565b60209081029190910151919091526000868152600e8252604080822087835283528082208483526002019092522060010154828260038110610ffc57610ffc6115c7565b60200201516001602002015280611012816118f5565b915050610f78565b509392505050565b600080805b600a81101561105d5783600382600a8110611044576110446115c7565b01540361105057600191505b8161105d57600101611027565b50806110a05760405162461bcd60e51b8152602060048201526012602482015271105353d5539517d393d517d0531313d5d15160721b6044820152606401610432565b5090919050565b60006110b1611232565b60006110bc85611022565b6000818152600e6020908152604080832088845290915281209192505b60038160ff1610156111465760ff8116600090815260028381016020526040918290208251808401938490529290919082845b81548152602001906001019080831161110c575050505050848260ff1660038110611139576111396115c7565b60200201526001016110d9565b506000806111578360010154610e21565b9250509150600060014361116b91906115b0565b8454604051611184924091859187908b9060200161190e565b60408051808303601f1901815291905280516020909101209998505050505050505050565b60405180604001604052806002906020820280368337509192915050565b82600281019282156111f5579160200282015b828111156111f55782518255916020019190600101906111da565b5061120192915061125f565b5090565b60405180606001604052806003905b61121c6111a9565b8152602001906001900390816112145790505090565b60405180606001604052806003905b6112496111a9565b8152602001906001900390816112415790505090565b5b808211156112015760008155600101611260565b60006020828403121561128657600080fd5b5035919050565b6001600160a01b03811681146112a257600080fd5b50565b634e487b7160e01b600052604160045260246000fd5b604051601f8201601f1916810167ffffffffffffffff811182821017156112e4576112e46112a5565b604052919050565b600082601f8301126112fd57600080fd5b6040516040810181811067ffffffffffffffff82111715611320576113206112a5565b806040525080604084018581111561133757600080fd5b845b81811015611351578035835260209283019201611339565b509195945050505050565b60008060008060008060e0878903121561137557600080fd5b86356113808161128d565b9550602087810135955060408801359450606088013593506113a58960808a016112ec565b925060c088013567ffffffffffffffff808211156113c257600080fd5b818a0191508a601f8301126113d657600080fd5b8135818111156113e8576113e86112a5565b8060051b91506113f98483016112bb565b818152918301840191848101908d84111561141357600080fd5b938501935b8385101561143157843582529385019390850190611418565b8096505050505050509295509295509295565b6000806040838503121561145757600080fd5b50508035926020909101359150565b6000806060838503121561147957600080fd5b8235915061148a84602085016112ec565b90509250929050565b600080600080606085870312156114a957600080fd5b84356114b48161128d565b935060208501359250604085013567ffffffffffffffff808211156114d857600080fd5b818701915087601f8301126114ec57600080fd5b8135818111156114fb57600080fd5b88602082850101111561150d57600080fd5b95989497505060200194505050565b60006020828403121561152e57600080fd5b81356115398161128d565b9392505050565b60c0810181836000805b600381101561159057825184835b6002811015611577578251825260209283019290910190600101611558565b505050604093909301926020929092019160010161154a565b5050505092915050565b634e487b7160e01b600052601160045260246000fd5b6000828210156115c2576115c261159a565b500390565b634e487b7160e01b600052603260045260246000fd5b8060005b60028110156116005781518452602093840193909101906001016115e1565b50505050565b600081518084526020808501945080840160005b838110156116365781518752958201959082019060010161161a565b509495945050505050565b600081518084526020808501945080840160005b83811015611636576116688783516115dd565b6040969096019590820190600101611655565b60c08152600086518060c084015260005b818110156116a9576020818a0181015160e086840101520161168c565b818111156116bb57600060e083860101525b5060208301879052601f01601f191682016116d960408401876115dd565b60e08382030160808401526116f160e0820186611606565b905082810360a08401526117058185611641565b98975050505050505050565b60006020828403121561172357600080fd5b8151801515811461153957600080fd5b600082198211156117465761174661159a565b500190565b60008160001904831182151516156117655761176561159a565b500290565b60008261178757634e487b7160e01b600052601260045260246000fd5b500490565b60006020828403121561179e57600080fd5b5051919050565b84815283602082015260606040820152816060820152818360808301376000818301608090810191909152601f909201601f191601019392505050565b6000602082840312156117f457600080fd5b815160ff8116811461153957600080fd5b600181815b808511156118405781600019048211156118265761182661159a565b8085161561183357918102915b93841c939080029061180a565b509250929050565b60008261185757506001610b38565b8161186457506000610b38565b816001811461187a5760028114611884576118a0565b6001915050610b38565b60ff8411156118955761189561159a565b50506001821b610b38565b5060208310610133831016604e8410600b84101617156118c3575081810a610b38565b6118cd8383611805565b80600019048211156118e1576118e161159a565b029392505050565b60006115398383611848565b6000600182016119075761190761159a565b5060010190565b8581526000602086818401526040868185015285606085015260808401856000805b600381101561196e57825184835b600281101561195b5782518252918801919088019060010161193e565b5050509284019291850191600101611930565b50505050505061014082019050969550505050505056fea26469706673582212209805cd7124e09ee7001f46131ebffbc4dbfe7e2e49511e0d5e5fad39d79dc4a864736f6c634300080d0033a2646970667358221220ac08e0b03992a92fc361347a178441606d679917c15551acfff3989caca8fede64736f6c634300080d0033",
  "bytecodeSha1": "68700fbafd8a73e166bef4b8b094447336cca209",
  "compiler": {
    "evm_version": "istanbul",
    "optimizer": {
      "enabled": true,
      "runs": 200
    },
    "version": "0.8.13+commit.abaa5c0e"
  },
  "contractName": "HettiFactory",
  "deployedBytecode": "608060405234801561001057600080fd5b50600436106100625760003560e01c806341d1de9714610067578063481c6a75146100975780639049f9d2146100aa578063a4063dbc146100bd578063d0ebdbe7146100e6578063efde4e64146100fb575b600080fd5b61007a610075366004610360565b61010c565b6040516001600160a01b0390911681526020015b60405180910390f35b60015461007a906001600160a01b031681565b61007a6100b8366004610379565b610136565b61007a6100cb366004610379565b6002602052600090815260409020546001600160a01b031681565b6100f96100f4366004610379565b610306565b005b60005460405190815260200161008e565b6000818154811061011c57600080fd5b6000918252602090912001546001600160a01b0316905081565b60006001600160a01b03821661015f5760405163d92e233d60e01b815260040160405180910390fd5b6001600160a01b03828116600090815260026020526040902054161561019857604051637a471e1360e11b815260040160405180910390fd5b6000604051806020016101aa90610353565b601f1982820381018352601f9091011660408190526bffffffffffffffffffffffff19606086901b166020820152909150600090603401604051602081830303815290604052805190602001209050808251602084016000f560405163189acdbd60e31b81526001600160a01b0386811660048301529194509084169063c4d66de890602401600060405180830381600087803b15801561024a57600080fd5b505af115801561025e573d6000803e3d6000fd5b505050506001600160a01b03848116600081815260026020908152604080832080549589166001600160a01b0319968716811790915583546001810185559380527f290decd9548b62a8d60345a988386fc84ba6bc95484008f6362f93160ef3e56390930180549095168317909455925190815290917f4f2ce4e40f623ca765fc0167a25cb7842ceaafb8d82d3dec26ca0d0e0d2d4896910160405180910390a25050919050565b6001546001600160a01b0316331461033157604051631dd2188d60e31b815260040160405180910390fd5b600180546001600160a01b0319166001600160a01b0392909216919091179055565b6119e0806103aa83390190565b60006020828403121561037257600080fd5b5035919050565b60006020828403121561038b57600080fd5b81356001600160a01b03811681146103a257600080fd5b939250505056fe6080604052600960025534801561001557600080fd5b506119bb806100256000396000f3fe6080604052600436106101095760003560e01c80639bcb557211610095578063b61d27f611610064578063b61d27f6146102e8578063bf12505b146102fb578063c4d66de81461031b578063d5fce7351461033b578063fc0c546a1461036857600080fd5b80639bcb55721461027c5780639edb6cbd146102925780639f1961e6146102b3578063abd70aa2146102d357600080fd5b806371d8ded9116100dc57806371d8ded9146101db5780637c0ffaa2146101fb5780637f5bf51c1461020f5780638ae0edba1461022f5780639325019d1461024f57600080fd5b80631b9db2ef1461010e5780633b97e8561461014157806362230498146101575780636381d19e14610179575b600080fd5b34801561011a57600080fd5b5061012e610129366004611274565b6103a0565b6040519081526020015b60405180910390f35b34801561014d57600080fd5b5061012e60015481565b34801561016357600080fd5b5061017761017236600461135c565b6103bc565b005b34801561018557600080fd5b506101c0610194366004611444565b600e60209081526000928352604080842090915290825290208054600182015460049092015490919083565b60408051938452602084019290925290820152606001610138565b3480156101e757600080fd5b506101776101f6366004611466565b6107fd565b34801561020757600080fd5b50600361012e565b34801561021b57600080fd5b5061012e61022a366004611274565b610afc565b34801561023b57600080fd5b5061012e61024a366004611274565b610b1b565b34801561025b57600080fd5b5061012e61026a366004611274565b600d6020526000908152604090205481565b34801561028857600080fd5b5061012e60025481565b34801561029e57600080fd5b5061012e6102ad366004611274565b60301c90565b3480156102bf57600080fd5b5061012e6102ce366004611444565b610b3e565b3480156102df57600080fd5b5061012e610b70565b6101776102f6366004611493565b610be2565b34801561030757600080fd5b506101c0610316366004611274565b610e21565b34801561032757600080fd5b5061017761033636600461151c565b610e5f565b34801561034757600080fd5b5061035b610356366004611444565b610f5b565b6040516101389190611540565b34801561037457600080fd5b50600054610388906001600160a01b031681565b6040516001600160a01b039091168152602001610138565b6000602082901c6103b56001620100006115b0565b1692915050565b6000858152600e6020908152604080832087845290915281206001810154909190819081906103ea90610e21565b919450925090506001600160a01b038a1661043b5760405162461bcd60e51b815260206004820152600c60248201526b5a45524f5f4144445245535360a01b60448201526064015b60405180910390fd5b600383106104815760405162461bcd60e51b815260206004820152601360248201527220a6262fa32aa72229afaba4aa24222920aba760691b6044820152606401610432565b60048401546104c45760405162461bcd60e51b815260206004820152600f60248201526e14925391d7d393d517d0d313d4d151608a1b6044820152606401610432565b60408051600380825260808201909252600091816020015b6104e46111a9565b8152602001906001900390816104dc57905050905060005b600381101561056557600081815260028781016020526040918290208251808401938490529290919082845b815481526020019060010190808311610528575050505050828281518110610552576105526115c7565b60209081029190910101526001016104fc565b50600073__$59a6a99b146727e155adc36af30d91d8cc$__63fe46a2b287600401548e6040516020016105b492919091825260601b6bffffffffffffffffffffffff1916602082015260340190565b6040516020818303038152906040528b8b8b876040518663ffffffff1660e01b81526004016105e795949392919061167b565b602060405180830381865af4158015610604573d6000803e3d6000fd5b505050506040513d601f19601f820116820180604052508101906106289190611711565b90508061066b5760405162461bcd60e51b8152602060048201526011602482015270494e56414c49445f5349474e415455524560781b6044820152606401610432565b60005b858110156106f457885160008281526003890160205260409020541480156106ae57506020808a0151600083815260038a01909252604090912060010154145b156106ec5760405162461bcd60e51b815260206004820152600e60248201526d555345445f5349474e415455524560901b6044820152606401610432565b60010161066e565b5060008581526003870160205260409020610711908960026111c7565b506001948501601081901b851760201b841795870186905560005460405163a9059cbb60e01b81526001600160a01b038f81166004830152602482018f90529297929091169063a9059cbb906044016020604051808303816000875af115801561077f573d6000803e3d6000fd5b505050506040513d601f19601f820116820180604052508101906107a39190611711565b50604080516001600160a01b038f168152602081018e90529081018c90527f92ccf450a286a957af52509bc1c9939d1a6a481783e142e41e2499f0bb66ebc69060600160405180910390a150505050505050505050505050565b600061080883611022565b6000546040516323b872dd60e01b8152336004820152306024820152604481018690529192506001600160a01b0316906323b872dd906064016020604051808303816000875af1158015610860573d6000803e3d6000fd5b505050506040513d601f19601f820116820180604052508101906108849190611711565b5081516020830151604051630cd3b28960e31b81526004810192909252602482015273__$0769e4187bae5c4f4cd6ae56e4ede5e405$__9063669d944890604401602060405180830381865af41580156108e2573d6000803e3d6000fd5b505050506040513d601f19601f820116820180604052508101906109069190611711565b6109445760405162461bcd60e51b815260206004820152600f60248201526e504b5f4e4f545f4f4e5f435552564560881b6044820152606401610432565b6000818152600d6020908152604080832054600e835281842081855290925282206001810154919290918190819061097b90610e21565b92509250925060005b82811015610a0e57875160008281526002870160205260409020541480156109c45750602080890151600083815260028801909252604090912060010154145b15610a065760405162461bcd60e51b8152602060048201526012602482015271504b5f414c52454144595f494e5f52494e4760701b6044820152606401610432565b600101610984565b5081600003610a2557610a226001436115b0565b90505b600082815260028086016020526040909120610a429189906111c7565b5085846000016000828254610a579190611733565b90915550506001918201601084901b811760201b82179285018390559160038310610ab057610a8687876110a7565b60048601556000878152600d60205260408120805460019290610aaa908490611733565b90915550505b60408051338152602081018990529081018790527f73a19dd210f1a7f902193214c0ee91dd35ee5b4d920cba8d519eca65a7b488ca9060600160405180910390a1505050505050505050565b6000610b0782611022565b50506000908152600d602052604090205490565b600061271060025483610b2e919061174b565b610b38919061176a565b92915050565b600080610b4a84611022565b6000908152600e6020908152604080832086845290915290206004015491505092915050565b600080546040516370a0823160e01b81523060048201526001600160a01b03909116906370a0823190602401602060405180830381865afa158015610bb9573d6000803e3d6000fd5b505050506040513d601f19601f82011682018060405250810190610bdd919061178c565b905090565b6000610bec610b70565b905083811015610c335760405162461bcd60e51b8152602060048201526012602482015271494e53554646494349454e545f46554e445360701b6044820152606401610432565b6000610c3e85610b1b565b9050856001600160a01b03167f8852f4cb22828da9ddc44460130398d816e46fd1f370d80d82a4de81fcd5aeee86604051610c7b91815260200190565b60405180910390a260005460405163a9059cbb60e01b81526001600160a01b038881166004830152602482018890529091169063a9059cbb906044016020604051808303816000875af1158015610cd6573d6000803e3d6000fd5b505050506040513d601f19601f82011682018060405250810190610cfa9190611711565b50604051637924fd7d60e01b81526001600160a01b03871690637924fd7d90610d2d9088908590899089906004016117a5565b600060405180830381600087803b158015610d4757600080fd5b505af1158015610d5b573d6000803e3d6000fd5b50506000546040516370a0823160e01b81523060048201526001600160a01b0390911692506370a082319150602401602060405180830381865afa158015610da7573d6000803e3d6000fd5b505050506040513d601f19601f82011682018060405250810190610dcb919061178c565b610dd58284611733565b1115610e195760405162461bcd60e51b81526020600482015260136024820152721513d2d15394d7d393d517d491551554939151606a1b6044820152606401610432565b505050505050565b60008080602084901c603085901c610e3d6001620100006115b0565b8216610e4f60016401000000006115b0565b8716935093509350509193909250565b6000546001600160a01b031615610e885760405162dc149f60e41b815260040160405180910390fd5b600080546001600160a01b0319166001600160a01b0383169081179091556040805163313ce56760e01b8152905163313ce567916004808201926020929091908290030181865afa158015610ee1573d6000803e3d6000fd5b505050506040513d601f19601f82011682018060405250810190610f0591906117e2565b60ff1660015560005b600a811015610f5757600154610f2590600a6118e9565b610f308260026118e9565b610f3a919061174b565b600382600a8110610f4d57610f4d6115c7565b0155600101610f0e565b5050565b610f63611205565b610f6c83611022565b50610f75611205565b60005b600381101561101a576000858152600e602090815260408083208784528252808320848452600201909152902054828260038110610fb857610fb86115c7565b60209081029190910151919091526000868152600e8252604080822087835283528082208483526002019092522060010154828260038110610ffc57610ffc6115c7565b60200201516001602002015280611012816118f5565b915050610f78565b509392505050565b600080805b600a81101561105d5783600382600a8110611044576110446115c7565b01540361105057600191505b8161105d57600101611027565b50806110a05760405162461bcd60e51b8152602060048201526012602482015271105353d5539517d393d517d0531313d5d15160721b6044820152606401610432565b5090919050565b60006110b1611232565b60006110bc85611022565b6000818152600e6020908152604080832088845290915281209192505b60038160ff1610156111465760ff8116600090815260028381016020526040918290208251808401938490529290919082845b81548152602001906001019080831161110c575050505050848260ff1660038110611139576111396115c7565b60200201526001016110d9565b506000806111578360010154610e21565b9250509150600060014361116b91906115b0565b8454604051611184924091859187908b9060200161190e565b60408051808303601f1901815291905280516020909101209998505050505050505050565b60405180604001604052806002906020820280368337509192915050565b82600281019282156111f5579160200282015b828111156111f55782518255916020019190600101906111da565b5061120192915061125f565b5090565b60405180606001604052806003905b61121c6111a9565b8152602001906001900390816112145790505090565b60405180606001604052806003905b6112496111a9565b8152602001906001900390816112415790505090565b5b808211156112015760008155600101611260565b60006020828403121561128657600080fd5b5035919050565b6001600160a01b03811681146112a257600080fd5b50565b634e487b7160e01b600052604160045260246000fd5b604051601f8201601f1916810167ffffffffffffffff811182821017156112e4576112e46112a5565b604052919050565b600082601f8301126112fd57600080fd5b6040516040810181811067ffffffffffffffff82111715611320576113206112a5565b806040525080604084018581111561133757600080fd5b845b81811015611351578035835260209283019201611339565b509195945050505050565b60008060008060008060e0878903121561137557600080fd5b86356113808161128d565b9550602087810135955060408801359450606088013593506113a58960808a016112ec565b925060c088013567ffffffffffffffff808211156113c257600080fd5b818a0191508a601f8301126113d657600080fd5b8135818111156113e8576113e86112a5565b8060051b91506113f98483016112bb565b818152918301840191848101908d84111561141357600080fd5b938501935b8385101561143157843582529385019390850190611418565b8096505050505050509295509295509295565b6000806040838503121561145757600080fd5b50508035926020909101359150565b6000806060838503121561147957600080fd5b8235915061148a84602085016112ec565b90509250929050565b600080600080606085870312156114a957600080fd5b84356114b48161128d565b935060208501359250604085013567ffffffffffffffff808211156114d857600080fd5b818701915087601f8301126114ec57600080fd5b8135818111156114fb57600080fd5b88602082850101111561150d57600080fd5b95989497505060200194505050565b60006020828403121561152e57600080fd5b81356115398161128d565b9392505050565b60c0810181836000805b600381101561159057825184835b6002811015611577578251825260209283019290910190600101611558565b505050604093909301926020929092019160010161154a565b5050505092915050565b634e487b7160e01b600052601160045260246000fd5b6000828210156115c2576115c261159a565b500390565b634e487b7160e01b600052603260045260246000fd5b8060005b60028110156116005781518452602093840193909101906001016115e1565b50505050565b600081518084526020808501945080840160005b838110156116365781518752958201959082019060010161161a565b509495945050505050565b600081518084526020808501945080840160005b83811015611636576116688783516115dd565b6040969096019590820190600101611655565b60c08152600086518060c084015260005b818110156116a9576020818a0181015160e086840101520161168c565b818111156116bb57600060e083860101525b5060208301879052601f01601f191682016116d960408401876115dd565b60e08382030160808401526116f160e0820186611606565b905082810360a08401526117058185611641565b98975050505050505050565b60006020828403121561172357600080fd5b8151801515811461153957600080fd5b600082198211156117465761174661159a565b500190565b60008160001904831182151516156117655761176561159a565b500290565b60008261178757634e487b7160e01b600052601260045260246000fd5b500490565b60006020828403121561179e57600080fd5b5051919050565b84815283602082015260606040820152816060820152818360808301376000818301608090810191909152601f909201601f191601019392505050565b6000602082840312156117f457600080fd5b815160ff8116811461153957600080fd5b600181815b808511156118405781600019048211156118265761182661159a565b8085161561183357918102915b93841c939080029061180a565b509250929050565b60008261185757506001610b38565b8161186457506000610b38565b816001811461187a5760028114611884576118a0565b6001915050610b38565b60ff8411156118955761189561159a565b50506001821b610b38565b5060208310610133831016604e8410600b84101617156118c3575081810a610b38565b6118cd8383611805565b80600019048211156118e1576118e161159a565b029392505050565b60006115398383611848565b6000600182016119075761190761159a565b5060010190565b8581526000602086818401526040868185015285606085015260808401856000805b600381101561196e57825184835b600281101561195b5782518252918801919088019060010161193e565b5050509284019291850191600101611930565b50505050505061014082019050969550505050505056fea26469706673582212209805cd7124e09ee7001f46131ebffbc4dbfe7e2e49511e0d5e5fad39d79dc4a864736f6c634300080d0033a2646970667358221220ac08e0b03992a92fc361347a178441606d679917c15551acfff3989caca8fede64736f6c634300080d0033",
  "language": "Solidity",
  "natspec": {
    "kind": "dev",
    "methods": {},
    "version": 1
  },
  "opcodes": "PUSH1 0x80 PUSH1 0x40 MSTORE CALLVALUE DUP1 ISZERO PUSH2 0x10 JUMPI PUSH1 0x0 DUP1 REVERT JUMPDEST POP PUSH1 0x4 CALLDATASIZE LT PUSH2 0x62 JUMPI PUSH1 0x0 CALLDATALOAD PUSH1 0xE0 SHR DUP1 PUSH4 0x41D1DE97 EQ PUSH2 0x67 JUMPI DUP1 PUSH4 0x481C6A75 EQ PUSH2 0x97 JUMPI DUP1 PUSH4 0x9049F9D2 EQ PUSH2 0xAA JUMPI DUP1 PUSH4 0xA4063DBC EQ PUSH2 0xBD JUMPI DUP1 PUSH4 0xD0EBDBE7 EQ PUSH2 0xE6 JUMPI DUP1 PUSH4 0xEFDE4E64 EQ PUSH2 0xFB JUMPI JUMPDEST PUSH1 0x0 DUP1 REVERT JUMPDEST PUSH2 0x7A PUSH2 0x75 CALLDATASIZE PUSH1 0x4 PUSH2 0x360 JUMP JUMPDEST PUSH2 0x10C JUMP JUMPDEST PUSH1 0x40 MLOAD PUSH1 0x1 PUSH1 0x1 PUSH1 0xA0 SHL SUB SWAP1 SWAP2 AND DUP2 MSTORE PUSH1 0x20 ADD JUMPDEST PUSH1 0x40 MLOAD DUP1 SWAP2 SUB SWAP1 RETURN JUMPDEST PUSH1 0x1 SLOAD PUSH2 0x7A SWAP1 PUSH1 0x1 PUSH1 0x1 PUSH1 0xA0 SHL SUB AND DUP2 JUMP JUMPDEST PUSH2 0x7A PUSH2 0xB8 CALLDATASIZE PUSH1 0x4 PUSH2 0x379 JUMP JUMPDEST PUSH2 0x136 JUMP JUMPDEST PUSH2 0x7A PUSH2 0xCB CALLDATASIZE PUSH1 0x4 PUSH2 0x379 JUMP JUMPDEST PUSH1 0x2 PUSH1 0x20 MSTORE PUSH1 0x0 SWAP1 DUP2 MSTORE PUSH1 0x40 SWAP1 KECCAK256 SLOAD PUSH1 0x1 PUSH1 0x1 PUSH1 0xA0 SHL SUB AND DUP2 JUMP JUMPDEST PUSH2 0xF9 PUSH2 0xF4 CALLDATASIZE PUSH1 0x4 PUSH2 0x379 JUMP JUMPDEST PUSH2 0x306 JUMP JUMPDEST STOP JUMPDEST PUSH1 0x0 SLOAD PUSH1 0x40 MLOAD SWAP1 DUP2 MSTORE PUSH1 0x20 ADD PUSH2 0x8E JUMP JUMPDEST PUSH1 0x0 DUP2 DUP2 SLOAD DUP2 LT PUSH2 0x11C JUMPI PUSH1 0x0 DUP1 REVERT JUMPDEST PUSH1 0x0 SWAP2 DUP3 MSTORE PUSH1 0x20 SWAP1 SWAP2 KECCAK256 ADD SLOAD PUSH1 0x1 PUSH1 0x1 PUSH1 0xA0 SHL SUB AND SWAP1 POP DUP2 JUMP JUMPDEST PUSH1 0x0 PUSH1 0x1 PUSH1 0x1 PUSH1 0xA0 SHL SUB DUP3 AND PUSH2 0x15F JUMPI PUSH1 0x40 MLOAD PUSH4 0xD92E233D PUSH1 0xE0 SHL DUP2 MSTORE PUSH1 0x4 ADD PUSH1 0x40 MLOAD DUP1 SWAP2 SUB SWAP1 REVERT JUMPDEST PUSH1 0x1 PUSH1 0x1 PUSH1 0xA0 SHL SUB DUP3 DUP2 AND PUSH1 0x0 SWAP1 DUP2 MSTORE PUSH1 0x2 PUSH1 0x20 MSTORE PUSH1 0x40 SWAP1 KECCAK256 SLOAD AND ISZERO PUSH2 0x198 JUMPI PUSH1 0x40 MLOAD PUSH4 0x7A471E13 PUSH1 0xE1 SHL DUP2 MSTORE PUSH1 0x4 ADD PUSH1 0x40 MLOAD DUP1 SWAP2 SUB SWAP1 REVERT JUMPDEST PUSH1 0x0 PUSH1 0x40 MLOAD DUP1 PUSH1 0x20 ADD PUSH2 0x1AA SWAP1 PUSH2 0x353 JUMP JUMPDEST PUSH1 0x1F NOT DUP3 DUP3 SUB DUP2 ADD DUP4 MSTORE PUSH1 0x1F SWAP1 SWAP2 ADD AND PUSH1 0x40 DUP2 SWAP1 MSTORE PUSH12 0xFFFFFFFFFFFFFFFFFFFFFFFF NOT PUSH1 0x60 DUP7 SWAP1 SHL AND PUSH1 0x20 DUP3 ADD MSTORE SWAP1 SWAP2 POP PUSH1 0x0 SWAP1 PUSH1 0x34 ADD PUSH1 0x40 MLOAD PUSH1 0x20 DUP2 DUP4 SUB SUB DUP2 MSTORE SWAP1 PUSH1 0x40 MSTORE DUP1 MLOAD SWAP1 PUSH1 0x20 ADD KECCAK256 SWAP1 POP DUP1 DUP3 MLOAD PUSH1 0x20 DUP5 ADD PUSH1 0x0 CREATE2 PUSH1 0x40 MLOAD PUSH4 0x189ACDBD PUSH1 0xE3 SHL DUP2 MSTORE PUSH1 0x1 PUSH1 0x1 PUSH1 0xA0 SHL SUB DUP7 DUP2 AND PUSH1 0x4 DUP4 ADD MSTORE SWAP2 SWAP5 POP SWAP1 DUP5 AND SWAP1 PUSH4 0xC4D66DE8 SWAP1 PUSH1 0x24 ADD PUSH1 0x0 PUSH1 0x40 MLOAD DUP1 DUP4 SUB DUP2 PUSH1 0x0 DUP8 DUP1 EXTCODESIZE ISZERO DUP1 ISZERO PUSH2 0x24A JUMPI PUSH1 0x0 DUP1 REVERT JUMPDEST POP GAS CALL ISZERO DUP1 ISZERO PUSH2 0x25E JUMPI RETURNDATASIZE PUSH1 0x0 DUP1 RETURNDATACOPY RETURNDATASIZE PUSH1 0x0 REVERT JUMPDEST POP POP POP POP PUSH1 0x1 PUSH1 0x1 PUSH1 0xA0 SHL SUB DUP5 DUP2 AND PUSH1 0x0 DUP2 DUP2 MSTORE PUSH1 0x2 PUSH1 0x20 SWAP1 DUP2 MSTORE PUSH1 0x40 DUP1 DUP4 KECCAK256 DUP1 SLOAD SWAP6 DUP10 AND PUSH1 0x1 PUSH1 0x1 PUSH1 0xA0 SHL SUB NOT SWAP7 DUP8 AND DUP2 OR SWAP1 SWAP2 SSTORE DUP4 SLOAD PUSH1 0x1 DUP2 ADD DUP6 SSTORE SWAP4 DUP1 MSTORE PUSH32 0x290DECD9548B62A8D60345A988386FC84BA6BC95484008F6362F93160EF3E563 SWAP1 SWAP4 ADD DUP1 SLOAD SWAP1 SWAP6 AND DUP4 OR SWAP1 SWAP5 SSTORE SWAP3 MLOAD SWAP1 DUP2 MSTORE SWAP1 SWAP2 PUSH32 0x4F2CE4E40F623CA765FC0167A25CB7842CEAAFB8D82D3DEC26CA0D0E0D2D4896 SWAP2 ADD PUSH1 0x40 MLOAD DUP1 SWAP2 SUB SWAP1 LOG2 POP POP SWAP2 SWAP1 POP JUMP JUMPDEST PUSH1 0x1 SLOAD PUSH1 0x1 PUSH1 0x1 PUSH1 0xA0 SHL SUB AND CALLER EQ PUSH2 0x331 JUMPI PUSH1 0x40 MLOAD PUSH4 0x1DD2188D PUSH1 0xE3 SHL DUP2 MSTORE PUSH1 0x4 ADD PUSH1 0x40 MLOAD DUP1 SWAP2 SUB SWAP1 REVERT JUMPDEST PUSH1 0x1 DUP1 SLOAD PUSH1 0x1 PUSH1 0x1 PUSH1 0xA0 SHL SUB NOT AND PUSH1 0x1 PUSH1 0x1 PUSH1 0xA0 SHL SUB SWAP3 SWAP1 SWAP3 AND SWAP2 SWAP1 SWAP2 OR SWAP1 SSTORE JUMP JUMPDEST PUSH2 0x19E0 DUP1 PUSH2 0x3AA DUP4 CODECOPY ADD SWAP1 JUMP JUMPDEST PUSH1 0x0 PUSH1 0x20 DUP3 DUP5 SUB SLT ISZERO PUSH2 0x372 JUMPI PUSH1 0x0 DUP1 REVERT JUMPDEST POP CALLDATALOAD SWAP2 SWAP1 POP JUMP JUMPDEST PUSH1 0x0 PUSH1 0x20 DUP3 DUP5 SUB SLT ISZERO PUSH2 0x38B JUMPI PUSH1 0x0 DUP1 REVERT JUMPDEST DUP2 CALLDATALOAD PUSH1 0x1 PUSH1 0x1 PUSH1 0xA0 SHL SUB DUP2 AND DUP2 EQ PUSH2 0x3A2 JUMPI PUSH1 0x0 DUP1 REVERT JUMPDEST SWAP4 SWAP3 POP POP POP JUMP INVALID PUSH1 0x80 PUSH1 0x40 MSTORE PUSH1 0x9 PUSH1 0x2 SSTORE CALLVALUE DUP1 ISZERO PUSH2 0x15 JUMPI PUSH1 0x0 DUP1 REVERT JUMPDEST POP PUSH2 0x19BB DUP1 PUSH2 0x25 PUSH1 0x0 CODECOPY PUSH1 0x0 RETURN INVALID PUSH1 0x80 PUSH1 0x40 MSTORE PUSH1 0x4 CALLDATASIZE LT PUSH2 0x109 JUMPI PUSH1 0x0 CALLDATALOAD PUSH1 0xE0 SHR DUP1 PUSH4 0x9BCB5572 GT PUSH2 0x95 JUMPI DUP1 PUSH4 0xB61D27F6 GT PUSH2 0x64 JUMPI DUP1 PUSH4 0xB61D27F6 EQ PUSH2 0x2E8 JUMPI DUP1 PUSH4 0xBF12505B EQ PUSH2 0x2FB JUMPI DUP1 PUSH4 0xC4D66DE8 EQ PUSH2 0x31B JUMPI DUP1 PUSH4 0xD5FCE735 EQ PUSH2 0x33B JUMPI DUP1 PUSH4 0xFC0C546A EQ PUSH2 0x368 JUMPI PUSH1 0x0 DUP1 REVERT JUMPDEST DUP1 PUSH4 0x9BCB5572 EQ PUSH2 0x27C JUMPI DUP1 PUSH4 0x9EDB6CBD EQ PUSH2 0x292 JUMPI DUP1 PUSH4 0x9F1961E6 EQ PUSH2 0x2B3 JUMPI DUP1 PUSH4 0xABD70AA2 EQ PUSH2 0x2D3 JUMPI PUSH1 0x0 DUP1 REVERT JUMPDEST DUP1 PUSH4 0x71D8DED9 GT PUSH2 0xDC JUMPI DUP1 PUSH4 0x71D8DED9 EQ PUSH2 0x1DB JUMPI DUP1 PUSH4 0x7C0FFAA2 EQ PUSH2 0x1FB JUMPI DUP1 PUSH4 0x7F5BF51C EQ PUSH2 0x20F JUMPI DUP1 PUSH4 0x8AE0EDBA EQ PUSH2 0x22F JUMPI DUP1 PUSH4 0x9325019D EQ PUSH2 0x24F JUMPI PUSH1 0x0 DUP1 REVERT JUMPDEST DUP1 PUSH4 0x1B9DB2EF EQ PUSH2 0x10E JUMPI DUP1 PUSH4 0x3B97E856 EQ PUSH2 0x141 JUMPI DUP1 PUSH4 0x62230498 EQ PUSH2 0x157 JUMPI DUP1 PUSH4 0x6381D19E EQ PUSH2 0x179 JUMPI JUMPDEST PUSH1 0x0 DUP1 REVERT JUMPDEST CALLVALUE DUP1 ISZERO PUSH2 0x11A JUMPI PUSH1 0x0 DUP1 REVERT JUMPDEST POP PUSH2 0x12E PUSH2 0x129 CALLDATASIZE PUSH1 0x4 PUSH2 0x1274 JUMP JUMPDEST PUSH2 0x3A0 JUMP JUMPDEST PUSH1 0x40 MLOAD SWAP1 DUP2 MSTORE PUSH1 0x20 ADD JUMPDEST PUSH1 0x40 MLOAD DUP1 SWAP2 SUB SWAP1 RETURN JUMPDEST CALLVALUE DUP1 ISZERO PUSH2 0x14D JUMPI PUSH1 0x0 DUP1 REVERT JUMPDEST POP PUSH2 0x12E PUSH1 0x1 SLOAD DUP2 JUMP JUMPDEST CALLVALUE DUP1 ISZERO PUSH2 0x163 JUMPI PUSH1 0x0 DUP1 REVERT JUMPDEST POP PUSH2 0x177 PUSH2 0x172 CALLDATASIZE PUSH1 0x4 PUSH2 0x135C JUMP JUMPDEST PUSH2 0x3BC JUMP JUMPDEST STOP JUMPDEST CALLVALUE DUP1 ISZERO PUSH2 0x185 JUMPI PUSH1 0x0 DUP1 REVERT JUMPDEST POP PUSH2 0x1C0 PUSH2 0x194 CALLDATASIZE PUSH1 0x4 PUSH2 0x1444 JUMP JUMPDEST PUSH1 0xE PUSH1 0x20 SWAP1 DUP2 MSTORE PUSH1 0x0 SWAP3 DUP4 MSTORE PUSH1 0x40 DUP1 DUP5 KECCAK256 SWAP1 SWAP2 MSTORE SWAP1 DUP3 MSTORE SWAP1 KECCAK256 DUP1 SLOAD PUSH1 0x1 DUP3 ADD SLOAD PUSH1 0x4 SWAP1 SWAP3 ADD SLOAD SWAP1 SWAP2 SWAP1 DUP4 JUMP JUMPDEST PUSH1 0x40 DUP1 MLOAD SWAP4 DUP5 MSTORE PUSH1 0x20 DUP5 ADD SWAP3 SWAP1 SWAP3 MSTORE SWAP1 DUP3 ADD MSTORE PUSH1 0x60 ADD PUSH2 0x138 JUMP JUMPDEST CALLVALUE DUP1 ISZERO PUSH2 0x1E7 JUMPI PUSH1 0x0 DUP1 REVERT JUMPDEST POP PUSH2 0x177 PUSH2 0x1F6 CALLDATASIZE PUSH1 0x4 PUSH2 0x1466 JUMP JUMPDEST PUSH2 0x7FD JUMP JUMPDEST CALLVALUE DUP1 ISZERO PUSH2 0x207 JUMPI PUSH1 0x0 DUP1 REVERT JUMPDEST POP PUSH1 0x3 PUSH2 0x12E JUMP JUMPDEST CALLVALUE DUP1 ISZERO PUSH2 0x21B JUMPI PUSH1 0x0 DUP1 REVERT JUMPDEST POP PUSH2 0x12E PUSH2 0x22A CALLDATASIZE PUSH1 0x4 PUSH2 0x1274 JUMP JUMPDEST PUSH2 0xAFC JUMP JUMPDEST CALLVALUE DUP1 ISZERO PUSH2 0x23B JUMPI PUSH1 0x0 DUP1 REVERT JUMPDEST POP PUSH2 0x12E PUSH2 0x24A CALLDATASIZE PUSH1 0x4 PUSH2 0x1274 JUMP JUMPDEST PUSH2 0xB1B JUMP JUMPDEST CALLVALUE DUP1 ISZERO PUSH2 0x25B JUMPI PUSH1 0x0 DUP1 REVERT JUMPDEST POP PUSH2 0x12E PUSH2 0x26A CALLDATASIZE PUSH1 0x4 PUSH2 0x1274 JUMP JUMPDEST PUSH1 0xD PUSH1 0x20 MSTORE PUSH1 0x0 SWAP1 DUP2 MSTORE PUSH1 0x40 SWAP1 KECCAK256 SLOAD DUP2 JUMP JUMPDEST CALLVALUE DUP1 ISZERO PUSH2 0x288 JUMPI PUSH1 0x0 DUP1 REVERT JUMPDEST POP PUSH2 0x12E PUSH1 0x2 SLOAD DUP2 JUMP JUMPDEST CALLVALUE DUP1 ISZERO PUSH2 0x29E JUMPI PUSH1 0x0 DUP1 REVERT JUMPDEST POP PUSH2 0x12E PUSH2 0x2AD CALLDATASIZE PUSH1 0x4 PUSH2 0x1274 JUMP JUMPDEST PUSH1 0x30 SHR SWAP1 JUMP JUMPDEST CALLVALUE DUP1 ISZERO PUSH2 0x2BF JUMPI PUSH1 0x0 DUP1 REVERT JUMPDEST POP PUSH2 0x12E PUSH2 0x2CE CALLDATASIZE PUSH1 0x4 PUSH2 0x1444 JUMP JUMPDEST PUSH2 0xB3E JUMP JUMPDEST CALLVALUE DUP1 ISZERO PUSH2 0x2DF JUMPI PUSH1 0x0 DUP1 REVERT JUMPDEST POP PUSH2 0x12E PUSH2 0xB70 JUMP JUMPDEST PUSH2 0x177 PUSH2 0x2F6 CALLDATASIZE PUSH1 0x4 PUSH2 0x1493 JUMP JUMPDEST PUSH2 0xBE2 JUMP JUMPDEST CALLVALUE DUP1 ISZERO PUSH2 0x307 JUMPI PUSH1 0x0 DUP1 REVERT JUMPDEST POP PUSH2 0x1C0 PUSH2 0x316 CALLDATASIZE PUSH1 0x4 PUSH2 0x1274 JUMP JUMPDEST PUSH2 0xE21 JUMP JUMPDEST CALLVALUE DUP1 ISZERO PUSH2 0x327 JUMPI PUSH1 0x0 DUP1 REVERT JUMPDEST POP PUSH2 0x177 PUSH2 0x336 CALLDATASIZE PUSH1 0x4 PUSH2 0x151C JUMP JUMPDEST PUSH2 0xE5F JUMP JUMPDEST CALLVALUE DUP1 ISZERO PUSH2 0x347 JUMPI PUSH1 0x0 DUP1 REVERT JUMPDEST POP PUSH2 0x35B PUSH2 0x356 CALLDATASIZE PUSH1 0x4 PUSH2 0x1444 JUMP JUMPDEST PUSH2 0xF5B JUMP JUMPDEST PUSH1 0x40 MLOAD PUSH2 0x138 SWAP2 SWAP1 PUSH2 0x1540 JUMP JUMPDEST CALLVALUE DUP1 ISZERO PUSH2 0x374 JUMPI PUSH1 0x0 DUP1 REVERT JUMPDEST POP PUSH1 0x0 SLOAD PUSH2 0x388 SWAP1 PUSH1 0x1 PUSH1 0x1 PUSH1 0xA0 SHL SUB AND DUP2 JUMP JUMPDEST PUSH1 0x40 MLOAD PUSH1 0x1 PUSH1 0x1 PUSH1 0xA0 SHL SUB SWAP1 SWAP2 AND DUP2 MSTORE PUSH1 0x20 ADD PUSH2 0x138 JUMP JUMPDEST PUSH1 0x0 PUSH1 0x20 DUP3 SWAP1 SHR PUSH2 0x3B5 PUSH1 0x1 PUSH3 0x10000 PUSH2 0x15B0 JUMP JUMPDEST AND SWAP3 SWAP2 POP POP JUMP JUMPDEST PUSH1 0x0 DUP6 DUP2 MSTORE PUSH1 0xE PUSH1 0x20 SWAP1 DUP2 MSTORE PUSH1 0x40 DUP1 DUP4 KECCAK256 DUP8 DUP5 MSTORE SWAP1 SWAP2 MSTORE DUP2 KECCAK256 PUSH1 0x1 DUP2 ADD SLOAD SWAP1 SWAP2 SWAP1 DUP2 SWAP1 DUP2 SWAP1 PUSH2 0x3EA SWAP1 PUSH2 0xE21 JUMP JUMPDEST SWAP2 SWAP5 POP SWAP3 POP SWAP1 POP PUSH1 0x1 PUSH1 0x1 PUSH1 0xA0 SHL SUB DUP11 AND PUSH2 0x43B JUMPI PUSH1 0x40 MLOAD PUSH3 0x461BCD PUSH1 0xE5 SHL DUP2 MSTORE PUSH1 0x20 PUSH1 0x4 DUP3 ADD MSTORE PUSH1 0xC PUSH1 0x24 DUP3 ADD MSTORE PUSH12 0x5A45524F5F41444452455353 PUSH1 0xA0 SHL PUSH1 0x44 DUP3 ADD MSTORE PUSH1 0x64 ADD JUMPDEST PUSH1 0x40 MLOAD DUP1 SWAP2 SUB SWAP1 REVERT JUMPDEST PUSH1 0x3 DUP4 LT PUSH2 0x481 JUMPI PUSH1 0x40 MLOAD PUSH3 0x461BCD PUSH1 0xE5 SHL DUP2 MSTORE PUSH1 0x20 PUSH1 0x4 DUP3 ADD MSTORE PUSH1 0x13 PUSH1 0x24 DUP3 ADD MSTORE PUSH19 0x20A6262FA32AA72229AFABA4AA24222920ABA7 PUSH1 0x69 SHL PUSH1 0x44 DUP3 ADD MSTORE PUSH1 0x64 ADD PUSH2 0x432 JUMP JUMPDEST PUSH1 0x4 DUP5 ADD SLOAD PUSH2 0x4C4 JUMPI PUSH1 0x40 MLOAD PUSH3 0x461BCD PUSH1 0xE5 SHL DUP2 MSTORE PUSH1 0x20 PUSH1 0x4 DUP3 ADD MSTORE PUSH1 0xF PUSH1 0x24 DUP3 ADD MSTORE PUSH15 0x14925391D7D393D517D0D313D4D151 PUSH1 0x8A SHL PUSH1 0x44 DUP3 ADD MSTORE PUSH1 0x64 ADD PUSH2 0x432 JUMP JUMPDEST PUSH1 0x40 DUP1 MLOAD PUSH1 0x3 DUP1 DUP3 MSTORE PUSH1 0x80 DUP3 ADD SWAP1 SWAP3 MSTORE PUSH1 0x0 SWAP2 DUP2 PUSH1 0x20 ADD JUMPDEST PUSH2 0x4E4 PUSH2 0x11A9 JUMP JUMPDEST DUP2 MSTORE PUSH1 0x20 ADD SWAP1 PUSH1 0x1 SWAP1 SUB SWAP1 DUP2 PUSH2 0x4DC JUMPI SWAP1 POP POP SWAP1 POP PUSH1 0x0 JUMPDEST PUSH1 0x3 DUP2 LT ISZERO PUSH2 0x565 JUMPI PUSH1 0x0 DUP2 DUP2 MSTORE PUSH1 0x2 DUP8 DUP2 ADD PUSH1 0x20 MSTORE PUSH1 0x40 SWAP2 DUP3 SWAP1 KECCAK256 DUP3 MLOAD DUP1 DUP5 ADD SWAP4 DUP5 SWAP1 MSTORE SWAP3 SWAP1 SWAP2 SWAP1 DUP3 DUP5 JUMPDEST DUP2 SLOAD DUP2 MSTORE PUSH1 0x20 ADD SWAP1 PUSH1 0x1 ADD SWAP1 DUP1 DUP4 GT PUSH2 0x528 JUMPI POP POP POP POP POP DUP3 DUP3 DUP2 MLOAD DUP2 LT PUSH2 0x552 JUMPI PUSH2 0x552 PUSH2 0x15C7 JUMP JUMPDEST PUSH1 0x20 SWAP1 DUP2 MUL SWAP2 SWAP1 SWAP2 ADD ADD MSTORE PUSH1 0x1 ADD PUSH2 0x4FC JUMP JUMPDEST POP PUSH1 0x0 PUSH20 0x0 PUSH4 0xFE46A2B2 DUP8 PUSH1 0x4 ADD SLOAD DUP15 PUSH1 0x40 MLOAD PUSH1 0x20 ADD PUSH2 0x5B4 SWAP3 SWAP2 SWAP1 SWAP2 DUP3 MSTORE PUSH1 0x60 SHL PUSH12 0xFFFFFFFFFFFFFFFFFFFFFFFF NOT AND PUSH1 0x20 DUP3 ADD MSTORE PUSH1 0x34 ADD SWAP1 JUMP JUMPDEST PUSH1 0x40 MLOAD PUSH1 0x20 DUP2 DUP4 SUB SUB DUP2 MSTORE SWAP1 PUSH1 0x40 MSTORE DUP12 DUP12 DUP12 DUP8 PUSH1 0x40 MLOAD DUP7 PUSH4 0xFFFFFFFF AND PUSH1 0xE0 SHL DUP2 MSTORE PUSH1 0x4 ADD PUSH2 0x5E7 SWAP6 SWAP5 SWAP4 SWAP3 SWAP2 SWAP1 PUSH2 0x167B JUMP JUMPDEST PUSH1 0x20 PUSH1 0x40 MLOAD DUP1 DUP4 SUB DUP2 DUP7 GAS DELEGATECALL ISZERO DUP1 ISZERO PUSH2 0x604 JUMPI RETURNDATASIZE PUSH1 0x0 DUP1 RETURNDATACOPY RETURNDATASIZE PUSH1 0x0 REVERT JUMPDEST POP POP POP POP PUSH1 0x40 MLOAD RETURNDATASIZE PUSH1 0x1F NOT PUSH1 0x1F DUP3 ADD AND DUP3 ADD DUP1 PUSH1 0x40 MSTORE POP DUP2 ADD SWAP1 PUSH2 0x628 SWAP2 SWAP1 PUSH2 0x1711 JUMP JUMPDEST SWAP1 POP DUP1 PUSH2 0x66B JUMPI PUSH1 0x40 MLOAD PUSH3 0x461BCD PUSH1 0xE5 SHL DUP2 MSTORE PUSH1 0x20 PUSH1 0x4 DUP3 ADD MSTORE PUSH1 0x11 PUSH1 0x24 DUP3 ADD MSTORE PUSH17 0x494E56414C49445F5349474E4154555245 PUSH1 0x78 SHL PUSH1 0x44 DUP3 ADD MSTORE PUSH1 0x64 ADD PUSH2 0x432 JUMP JUMPDEST PUSH1 0x0 JUMPDEST DUP6 DUP2 LT ISZERO PUSH2 0x6F4 JUMPI DUP9 MLOAD PUSH1 0x0 DUP3 DUP2 MSTORE PUSH1 0x3 DUP10 ADD PUSH1 0x20 MSTORE PUSH1 0x40 SWAP1 KECCAK256 SLOAD EQ DUP1 ISZERO PUSH2 0x6AE JUMPI POP PUSH1 0x20 DUP1 DUP11 ADD MLOAD PUSH1 0x0 DUP4 DUP2 MSTORE PUSH1 0x3 DUP11 ADD SWAP1 SWAP3 MSTORE PUSH1 0x40 SWAP1 SWAP2 KECCAK256 PUSH1 0x1 ADD SLOAD EQ JUMPDEST ISZERO PUSH2 0x6EC JUMPI PUSH1 0x40 MLOAD PUSH3 0x461BCD PUSH1 0xE5 SHL DUP2 MSTORE PUSH1 0x20 PUSH1 0x4 DUP3 ADD MSTORE PUSH1 0xE PUSH1 0x24 DUP3 ADD MSTORE PUSH14 0x555345445F5349474E4154555245 PUSH1 0x90 SHL PUSH1 0x44 DUP3 ADD MSTORE PUSH1 0x64 ADD PUSH2 0x432 JUMP JUMPDEST PUSH1 0x1 ADD PUSH2 0x66E JUMP JUMPDEST POP PUSH1 0x0 DUP6 DUP2 MSTORE PUSH1 0x3 DUP8 ADD PUSH1 0x20 MSTORE PUSH1 0x40 SWAP1 KECCAK256 PUSH2 0x711 SWAP1 DUP10 PUSH1 0x2 PUSH2 0x11C7 JUMP JUMPDEST POP PUSH1 0x1 SWAP5 DUP6 ADD PUSH1 0x10 DUP2 SWAP1 SHL DUP6 OR PUSH1 0x20 SHL DUP5 OR SWAP6 DUP8 ADD DUP7 SWAP1 SSTORE PUSH1 0x0 SLOAD PUSH1 0x40 MLOAD PUSH4 0xA9059CBB PUSH1 0xE0 SHL DUP2 MSTORE PUSH1 0x1 PUSH1 0x1 PUSH1 0xA0 SHL SUB DUP16 DUP2 AND PUSH1 0x4 DUP4 ADD MSTORE PUSH1 0x24 DUP3 ADD DUP16 SWAP1 MSTORE SWAP3 SWAP8 SWAP3 SWAP1 SWAP2 AND SWAP1 PUSH4 0xA9059CBB SWAP1 PUSH1 0x44 ADD PUSH1 0x20 PUSH1 0x40 MLOAD DUP1 DUP4 SUB DUP2 PUSH1 0x0 DUP8 GAS CALL ISZERO DUP1 ISZERO PUSH2 0x77F JUMPI RETURNDATASIZE PUSH1 0x0 DUP1 RETURNDATACOPY RETURNDATASIZE PUSH1 0x0 REVERT JUMPDEST POP POP POP POP PUSH1 0x40 MLOAD RETURNDATASIZE PUSH1 0x1F NOT PUSH1 0x1F DUP3 ADD AND DUP3 ADD DUP1 PUSH1 0x40 MSTORE POP DUP2 ADD SWAP1 PUSH2 0x7A3 SWAP2 SWAP1 PUSH2 0x1711 JUMP JUMPDEST POP PUSH1 0x40 DUP1 MLOAD PUSH1 0x1 PUSH1 0x1 PUSH1 0xA0 SHL SUB DUP16 AND DUP2 MSTORE PUSH1 0x20 DUP2 ADD DUP15 SWAP1 MSTORE SWAP1 DUP2 ADD DUP13 SWAP1 MSTORE PUSH32 0x92CCF450A286A957AF52509BC1C9939D1A6A481783E142E41E2499F0BB66EBC6 SWAP1 PUSH1 0x60 ADD PUSH1 0x40 MLOAD DUP1 SWAP2 SUB SWAP1 LOG1 POP POP POP POP POP POP POP POP POP POP POP POP POP JUMP JUMPDEST PUSH1 0x0 PUSH2 0x808 DUP4 PUSH2 0x1022 JUMP JUMPDEST PUSH1 0x0 SLOAD PUSH1 0x40 MLOAD PUSH4 0x23B872DD PUSH1 0xE0 SHL DUP2 MSTORE CALLER PUSH1 0x4 DUP3 ADD MSTORE ADDRESS PUSH1 0x24 DUP3 ADD MSTORE PUSH1 0x44 DUP2 ADD DUP7 SWAP1 MSTORE SWAP2 SWAP3 POP PUSH1 0x1 PUSH1 0x1 PUSH1 0xA0 SHL SUB AND SWAP1 PUSH4 0x23B872DD SWAP1 PUSH1 0x64 ADD PUSH1 0x20 PUSH1 0x40 MLOAD DUP1 DUP4 SUB DUP2 PUSH1 0x0 DUP8 GAS CALL ISZERO DUP1 ISZERO PUSH2 0x860 JUMPI RETURNDATASIZE PUSH1 0x0 DUP1 RETURNDATACOPY RETURNDATASIZE PUSH1 0x0 REVERT JUMPDEST POP POP POP POP PUSH1 0x40 MLOAD RETURNDATASIZE PUSH1 0x1F NOT PUSH1 0x1F DUP3 ADD AND DUP3 ADD DUP1 PUSH1 0x40 MSTORE POP DUP2 ADD SWAP1 PUSH2 0x884 SWAP2 SWAP1 PUSH2 0x1711 JUMP JUMPDEST POP DUP2 MLOAD PUSH1 0x20 DUP4 ADD MLOAD PUSH1 0x40 MLOAD PUSH4 0xCD3B289 PUSH1 0xE3 SHL DUP2 MSTORE PUSH1 0x4 DUP2 ADD SWAP3 SWAP1 SWAP3 MSTORE PUSH1 0x24 DUP3 ADD MSTORE PUSH20 0x0 SWAP1 PUSH4 0x669D9448 SWAP1 PUSH1 0x44 ADD PUSH1 0x20 PUSH1 0x40 MLOAD DUP1 DUP4 SUB DUP2 DUP7 GAS DELEGATECALL ISZERO DUP1 ISZERO PUSH2 0x8E2 JUMPI RETURNDATASIZE PUSH1 0x0 DUP1 RETURNDATACOPY RETURNDATASIZE PUSH1 0x0 REVERT JUMPDEST POP POP POP POP PUSH1 0x40 MLOAD RETURNDATASIZE PUSH1 0x1F NOT PUSH1 0x1F DUP3 ADD AND DUP3 ADD DUP1 PUSH1 0x40 MSTORE POP DUP2 ADD SWAP1 PUSH2 0x906 SWAP2 SWAP1 PUSH2 0x1711 JUMP JUMPDEST PUSH2 0x944 JUMPI PUSH1 0x40 MLOAD PUSH3 0x461BCD PUSH1 0xE5 SHL DUP2 MSTORE PUSH1 0x20 PUSH1 0x4 DUP3 ADD MSTORE PUSH1 0xF PUSH1 0x24 DUP3 ADD MSTORE PUSH15 0x504B5F4E4F545F4F4E5F4355525645 PUSH1 0x88 SHL PUSH1 0x44 DUP3 ADD MSTORE PUSH1 0x64 ADD PUSH2 0x432 JUMP JUMPDEST PUSH1 0x0 DUP2 DUP2 MSTORE PUSH1 0xD PUSH1 0x20 SWAP1 DUP2 MSTORE PUSH1 0x40 DUP1 DUP4 KECCAK256 SLOAD PUSH1 0xE DUP4 MSTORE DUP2 DUP5 KECCAK256 DUP2 DUP6 MSTORE SWAP1 SWAP3 MSTORE DUP3 KECCAK256 PUSH1 0x1 DUP2 ADD SLOAD SWAP2 SWAP3 SWAP1 SWAP2 DUP2 SWAP1 DUP2 SWAP1 PUSH2 0x97B SWAP1 PUSH2 0xE21 JUMP JUMPDEST SWAP3 POP SWAP3 POP SWAP3 POP PUSH1 0x0 JUMPDEST DUP3 DUP2 LT ISZERO PUSH2 0xA0E JUMPI DUP8 MLOAD PUSH1 0x0 DUP3 DUP2 MSTORE PUSH1 0x2 DUP8 ADD PUSH1 0x20 MSTORE PUSH1 0x40 SWAP1 KECCAK256 SLOAD EQ DUP1 ISZERO PUSH2 0x9C4 JUMPI POP PUSH1 0x20 DUP1 DUP10 ADD MLOAD PUSH1 0x0 DUP4 DUP2 MSTORE PUSH1 0x2 DUP9 ADD SWAP1 SWAP3 MSTORE PUSH1 0x40 SWAP1 SWAP2 KECCAK256 PUSH1 0x1 ADD SLOAD EQ JUMPDEST ISZERO PUSH2 0xA06 JUMPI PUSH1 0x40 MLOAD PUSH3 0x461BCD PUSH1 0xE5 SHL DUP2 MSTORE PUSH1 0x20 PUSH1 0x4 DUP3 ADD MSTORE PUSH1 0x12 PUSH1 0x24 DUP3 ADD MSTORE PUSH18 0x504B5F414C52454144595F494E5F52494E47 PUSH1 0x70 SHL PUSH1 0x44 DUP3 ADD MSTORE PUSH1 0x64 ADD PUSH2 0x432 JUMP JUMPDEST PUSH1 0x1 ADD PUSH2 0x984 JUMP JUMPDEST POP DUP2 PUSH1 0x0 SUB PUSH2 0xA25 JUMPI PUSH2 0xA22 PUSH1 0x1 NUMBER PUSH2 0x15B0 JUMP JUMPDEST SWAP1 POP JUMPDEST PUSH1 0x0 DUP3 DUP2 MSTORE PUSH1 0x2 DUP1 DUP7 ADD PUSH1 0x20 MSTORE PUSH1 0x40 SWAP1 SWAP2 KECCAK256 PUSH2 0xA42 SWAP2 DUP10 SWAP1 PUSH2 0x11C7 JUMP JUMPDEST POP DUP6 DUP5 PUSH1 0x0 ADD PUSH1 0x0 DUP3 DUP3 SLOAD PUSH2 0xA57 SWAP2 SWAP1 PUSH2 0x1733 JUMP JUMPDEST SWAP1 SWAP2 SSTORE POP POP PUSH1 0x1 SWAP2 DUP3 ADD PUSH1 0x10 DUP5 SWAP1 SHL DUP2 OR PUSH1 0x20 SHL DUP3 OR SWAP3 DUP6 ADD DUP4 SWAP1 SSTORE SWAP2 PUSH1 0x3 DUP4 LT PUSH2 0xAB0 JUMPI PUSH2 0xA86 DUP8 DUP8 PUSH2 0x10A7 JUMP JUMPDEST PUSH1 0x4 DUP7 ADD SSTORE PUSH1 0x0 DUP8 DUP2 MSTORE PUSH1 0xD PUSH1 0x20 MSTORE PUSH1 0x40 DUP2 KECCAK256 DUP1 SLOAD PUSH1 0x1 SWAP3 SWAP1 PUSH2 0xAAA SWAP1 DUP5 SWAP1 PUSH2 0x1733 JUMP JUMPDEST SWAP1 SWAP2 SSTORE POP POP JUMPDEST PUSH1 0x40 DUP1 MLOAD CALLER DUP2 MSTORE PUSH1 0x20 DUP2 ADD DUP10 SWAP1 MSTORE SWAP1 DUP2 ADD DUP8 SWAP1 MSTORE PUSH32 0x73A19DD210F1A7F902193214C0EE91DD35EE5B4D920CBA8D519ECA65A7B488CA SWAP1 PUSH1 0x60 ADD PUSH1 0x40 MLOAD DUP1 SWAP2 SUB SWAP1 LOG1 POP POP POP POP POP POP POP POP POP JUMP JUMPDEST PUSH1 0x0 PUSH2 0xB07 DUP3 PUSH2 0x1022 JUMP JUMPDEST POP POP PUSH1 0x0 SWAP1 DUP2 MSTORE PUSH1 0xD PUSH1 0x20 MSTORE PUSH1 0x40 SWAP1 KECCAK256 SLOAD SWAP1 JUMP JUMPDEST PUSH1 0x0 PUSH2 0x2710 PUSH1 0x2 SLOAD DUP4 PUSH2 0xB2E SWAP2 SWAP1 PUSH2 0x174B JUMP JUMPDEST PUSH2 0xB38 SWAP2 SWAP1 PUSH2 0x176A JUMP JUMPDEST SWAP3 SWAP2 POP POP JUMP JUMPDEST PUSH1 0x0 DUP1 PUSH2 0xB4A DUP5 PUSH2 0x1022 JUMP JUMPDEST PUSH1 0x0 SWAP1 DUP2 MSTORE PUSH1 0xE PUSH1 0x20 SWAP1 DUP2 MSTORE PUSH1 0x40 DUP1 DUP4 KECCAK256 DUP7 DUP5 MSTORE SWAP1 SWAP2 MSTORE SWAP1 KECCAK256 PUSH1 0x4 ADD SLOAD SWAP2 POP POP SWAP3 SWAP2 POP POP JUMP JUMPDEST PUSH1 0x0 DUP1 SLOAD PUSH1 0x40 MLOAD PUSH4 0x70A08231 PUSH1 0xE0 SHL DUP2 MSTORE ADDRESS PUSH1 0x4 DUP3 ADD MSTORE PUSH1 0x1 PUSH1 0x1 PUSH1 0xA0 SHL SUB SWAP1 SWAP2 AND SWAP1 PUSH4 0x70A08231 SWAP1 PUSH1 0x24 ADD PUSH1 0x20 PUSH1 0x40 MLOAD DUP1 DUP4 SUB DUP2 DUP7 GAS STATICCALL ISZERO DUP1 ISZERO PUSH2 0xBB9 JUMPI RETURNDATASIZE PUSH1 0x0 DUP1 RETURNDATACOPY RETURNDATASIZE PUSH1 0x0 REVERT JUMPDEST POP POP POP POP PUSH1 0x40 MLOAD RETURNDATASIZE PUSH1 0x1F NOT PUSH1 0x1F DUP3 ADD AND DUP3 ADD DUP1 PUSH1 0x40 MSTORE POP DUP2 ADD SWAP1 PUSH2 0xBDD SWAP2 SWAP1 PUSH2 0x178C JUMP JUMPDEST SWAP1 POP SWAP1 JUMP JUMPDEST PUSH1 0x0 PUSH2 0xBEC PUSH2 0xB70 JUMP JUMPDEST SWAP1 POP DUP4 DUP2 LT ISZERO PUSH2 0xC33 JUMPI PUSH1 0x40 MLOAD PUSH3 0x461BCD PUSH1 0xE5 SHL DUP2 MSTORE PUSH1 0x20 PUSH1 0x4 DUP3 ADD MSTORE PUSH1 0x12 PUSH1 0x24 DUP3 ADD MSTORE PUSH18 0x494E53554646494349454E545F46554E4453 PUSH1 0x70 SHL PUSH1 0x44 DUP3 ADD MSTORE PUSH1 0x64 ADD PUSH2 0x432 JUMP JUMPDEST PUSH1 0x0 PUSH2 0xC3E DUP6 PUSH2 0xB1B JUMP JUMPDEST SWAP1 POP DUP6 PUSH1 0x1 PUSH1 0x1 PUSH1 0xA0 SHL SUB AND PUSH32 0x8852F4CB22828DA9DDC44460130398D816E46FD1F370D80D82A4DE81FCD5AEEE DUP7 PUSH1 0x40 MLOAD PUSH2 0xC7B SWAP2 DUP2 MSTORE PUSH1 0x20 ADD SWAP1 JUMP JUMPDEST PUSH1 0x40 MLOAD DUP1 SWAP2 SUB SWAP1 LOG2 PUSH1 0x0 SLOAD PUSH1 0x40 MLOAD PUSH4 0xA9059CBB PUSH1 0xE0 SHL DUP2 MSTORE PUSH1 0x1 PUSH1 0x1 PUSH1 0xA0 SHL SUB DUP9 DUP2 AND PUSH1 0x4 DUP4 ADD MSTORE PUSH1 0x24 DUP3 ADD DUP9 SWAP1 MSTORE SWAP1 SWAP2 AND SWAP1 PUSH4 0xA9059CBB SWAP1 PUSH1 0x44 ADD PUSH1 0x20 PUSH1 0x40 MLOAD DUP1 DUP4 SUB DUP2 PUSH1 0x0 DUP8 GAS CALL ISZERO DUP1 ISZERO PUSH2 0xCD6 JUMPI RETURNDATASIZE PUSH1 0x0 DUP1 RETURNDATACOPY RETURNDATASIZE PUSH1 0x0 REVERT JUMPDEST POP POP POP POP PUSH1 0x40 MLOAD RETURNDATASIZE PUSH1 0x1F NOT PUSH1 0x1F DUP3 ADD AND DUP3 ADD DUP1 PUSH1 0x40 MSTORE POP DUP2 ADD SWAP1 PUSH2 0xCFA SWAP2 SWAP1 PUSH2 0x1711 JUMP JUMPDEST POP PUSH1 0x40 MLOAD PUSH4 0x7924FD7D PUSH1 0xE0 SHL DUP2 MSTORE PUSH1 0x1 PUSH1 0x1 PUSH1 0xA0 SHL SUB DUP8 AND SWAP1 PUSH4 0x7924FD7D SWAP1 PUSH2 0xD2D SWAP1 DUP9 SWAP1 DUP6 SWAP1 DUP10 SWAP1 DUP10 SWAP1 PUSH1 0x4 ADD PUSH2 0x17A5 JUMP JUMPDEST PUSH1 0x0 PUSH1 0x40 MLOAD DUP1 DUP4 SUB DUP2 PUSH1 0x0 DUP8 DUP1 EXTCODESIZE ISZERO DUP1 ISZERO PUSH2 0xD47 JUMPI PUSH1 0x0 DUP1 REVERT JUMPDEST POP GAS CALL ISZERO DUP1 ISZERO PUSH2 0xD5B JUMPI RETURNDATASIZE PUSH1 0x0 DUP1 RETURNDATACOPY RETURNDATASIZE PUSH1 0x0 REVERT JUMPDEST POP POP PUSH1 0x0 SLOAD PUSH1 0x40 MLOAD PUSH4 0x70A08231 PUSH1 0xE0 SHL DUP2 MSTORE ADDRESS PUSH1 0x4 DUP3 ADD MSTORE PUSH1 0x1 PUSH1 0x1 PUSH1 0xA0 SHL SUB SWAP1 SWAP2 AND SWAP3 POP PUSH4 0x70A08231 SWAP2 POP PUSH1 0x24 ADD PUSH1 0x20 PUSH1 0x40 MLOAD DUP1 DUP4 SUB DUP2 DUP7 GAS STATICCALL ISZERO DUP1 ISZERO PUSH2 0xDA7 JUMPI RETURNDATASIZE PUSH1 0x0 DUP1 RETURNDATACOPY RETURNDATASIZE PUSH1 0x0 REVERT JUMPDEST POP POP POP POP PUSH1 0x40 MLOAD RETURNDATASIZE PUSH1 0x1F NOT PUSH1 0x1F DUP3 ADD AND DUP3 ADD DUP1 PUSH1 0x40 MSTORE POP DUP2 ADD SWAP1 PUSH2 0xDCB SWAP2 SWAP1 PUSH2 0x178C JUMP JUMPDEST PUSH2 0xDD5 DUP3 DUP5 PUSH2 0x1733 JUMP JUMPDEST GT ISZERO PUSH2 0xE19 JUMPI PUSH1 0x40 MLOAD PUSH3 0x461BCD PUSH1 0xE5 SHL DUP2 MSTORE PUSH1 0x20 PUSH1 0x4 DUP3 ADD MSTORE PUSH1 0x13 PUSH1 0x24 DUP3 ADD MSTORE PUSH19 0x1513D2D15394D7D393D517D491551554939151 PUSH1 0x6A SHL PUSH1 0x44 DUP3 ADD MSTORE PUSH1 0x64 ADD PUSH2 0x432 JUMP JUMPDEST POP POP POP POP POP POP JUMP JUMPDEST PUSH1 0x0 DUP1 DUP1 PUSH1 0x20 DUP5 SWAP1 SHR PUSH1 0x30 DUP6 SWAP1 SHR PUSH2 0xE3D PUSH1 0x1 PUSH3 0x10000 PUSH2 0x15B0 JUMP JUMPDEST DUP3 AND PUSH2 0xE4F PUSH1 0x1 PUSH5 0x100000000 PUSH2 0x15B0 JUMP JUMPDEST DUP8 AND SWAP4 POP SWAP4 POP SWAP4 POP POP SWAP2 SWAP4 SWAP1 SWAP3 POP JUMP JUMPDEST PUSH1 0x0 SLOAD PUSH1 0x1 PUSH1 0x1 PUSH1 0xA0 SHL SUB AND ISZERO PUSH2 0xE88 JUMPI PUSH1 0x40 MLOAD PUSH3 0xDC149F PUSH1 0xE4 SHL DUP2 MSTORE PUSH1 0x4 ADD PUSH1 0x40 MLOAD DUP1 SWAP2 SUB SWAP1 REVERT JUMPDEST PUSH1 0x0 DUP1 SLOAD PUSH1 0x1 PUSH1 0x1 PUSH1 0xA0 SHL SUB NOT AND PUSH1 0x1 PUSH1 0x1 PUSH1 0xA0 SHL SUB DUP4 AND SWAP1 DUP2 OR SWAP1 SWAP2 SSTORE PUSH1 0x40 DUP1 MLOAD PUSH4 0x313CE567 PUSH1 0xE0 SHL DUP2 MSTORE SWAP1 MLOAD PUSH4 0x313CE567 SWAP2 PUSH1 0x4 DUP1 DUP3 ADD SWAP3 PUSH1 0x20 SWAP3 SWAP1 SWAP2 SWAP1 DUP3 SWAP1 SUB ADD DUP2 DUP7 GAS STATICCALL ISZERO DUP1 ISZERO PUSH2 0xEE1 JUMPI RETURNDATASIZE PUSH1 0x0 DUP1 RETURNDATACOPY RETURNDATASIZE PUSH1 0x0 REVERT JUMPDEST POP POP POP POP PUSH1 0x40 MLOAD RETURNDATASIZE PUSH1 0x1F NOT PUSH1 0x1F DUP3 ADD AND DUP3 ADD DUP1 PUSH1 0x40 MSTORE POP DUP2 ADD SWAP1 PUSH2 0xF05 SWAP2 SWAP1 PUSH2 0x17E2 JUMP JUMPDEST PUSH1 0xFF AND PUSH1 0x1 SSTORE PUSH1 0x0 JUMPDEST PUSH1 0xA DUP2 LT ISZERO PUSH2 0xF57 JUMPI PUSH1 0x1 SLOAD PUSH2 0xF25 SWAP1 PUSH1 0xA PUSH2 0x18E9 JUMP JUMPDEST PUSH2 0xF30 DUP3 PUSH1 0x2 PUSH2 0x18E9 JUMP JUMPDEST PUSH2 0xF3A SWAP2 SWAP1 PUSH2 0x174B JUMP JUMPDEST PUSH1 0x3 DUP3 PUSH1 0xA DUP2 LT PUSH2 0xF4D JUMPI PUSH2 0xF4D PUSH2 0x15C7 JUMP JUMPDEST ADD SSTORE PUSH1 0x1 ADD PUSH2 0xF0E JUMP JUMPDEST POP POP JUMP JUMPDEST PUSH2 0xF63 PUSH2 0x1205 JUMP JUMPDEST PUSH2 0xF6C DUP4 PUSH2 0x1022 JUMP JUMPDEST POP PUSH2 0xF75 PUSH2 0x1205 JUMP JUMPDEST PUSH1 0x0 JUMPDEST PUSH1 0x3 DUP2 LT ISZERO PUSH2 0x101A JUMPI PUSH1 0x0 DUP6 DUP2 MSTORE PUSH1 0xE PUSH1 0x20 SWAP1 DUP2 MSTORE PUSH1 0x40 DUP1 DUP4 KECCAK256 DUP8 DUP5 MSTORE DUP3 MSTORE DUP1 DUP4 KECCAK256 DUP5 DUP5 MSTORE PUSH1 0x2 ADD SWAP1 SWAP2 MSTORE SWAP1 KECCAK256 SLOAD DUP3 DUP3 PUSH1 0x3 DUP2 LT PUSH2 0xFB8 JUMPI PUSH2 0xFB8 PUSH2 0x15C7 JUMP JUMPDEST PUSH1 0x20 SWAP1 DUP2 MUL SWAP2 SWAP1 SWAP2 ADD MLOAD SWAP2 SWAP1 SWAP2 MSTORE PUSH1 0x0 DUP7 DUP2 MSTORE PUSH1 0xE DUP3 MSTORE PUSH1 0x40 DUP1 DUP3 KECCAK256 DUP8 DUP4 MSTORE DUP4 MSTORE DUP1 DUP3 KECCAK256 DUP5 DUP4 MSTORE PUSH1 0x2 ADD SWAP1 SWAP3 MSTORE KECCAK256 PUSH1 0x1 ADD SLOAD DUP3 DUP3 PUSH1 0x3 DUP2 LT PUSH2 0xFFC JUMPI PUSH2 0xFFC PUSH2 0x15C7 JUMP JUMPDEST PUSH1 0x20 MUL ADD MLOAD PUSH1 0x1 PUSH1 0x20 MUL ADD MSTORE DUP1 PUSH2 0x1012 DUP2 PUSH2 0x18F5 JUMP JUMPDEST SWAP2 POP POP PUSH2 0xF78 JUMP JUMPDEST POP SWAP4 SWAP3 POP POP POP JUMP JUMPDEST PUSH1 0x0 DUP1 DUP1 JUMPDEST PUSH1 0xA DUP2 LT ISZERO PUSH2 0x105D JUMPI DUP4 PUSH1 0x3 DUP3 PUSH1 0xA DUP2 LT PUSH2 0x1044 JUMPI PUSH2 0x1044 PUSH2 0x15C7 JUMP JUMPDEST ADD SLOAD SUB PUSH2 0x1050 JUMPI PUSH1 0x1 SWAP2 POP JUMPDEST DUP2 PUSH2 0x105D JUMPI PUSH1 0x1 ADD PUSH2 0x1027 JUMP JUMPDEST POP DUP1 PUSH2 0x10A0 JUMPI PUSH1 0x40 MLOAD PUSH3 0x461BCD PUSH1 0xE5 SHL DUP2 MSTORE PUSH1 0x20 PUSH1 0x4 DUP3 ADD MSTORE PUSH1 0x12 PUSH1 0x24 DUP3 ADD MSTORE PUSH18 0x105353D5539517D393D517D0531313D5D151 PUSH1 0x72 SHL PUSH1 0x44 DUP3 ADD MSTORE PUSH1 0x64 ADD PUSH2 0x432 JUMP JUMPDEST POP SWAP1 SWAP2 SWAP1 POP JUMP JUMPDEST PUSH1 0x0 PUSH2 0x10B1 PUSH2 0x1232 JUMP JUMPDEST PUSH1 0x0 PUSH2 0x10BC DUP6 PUSH2 0x1022 JUMP JUMPDEST PUSH1 0x0 DUP2 DUP2 MSTORE PUSH1 0xE PUSH1 0x20 SWAP1 DUP2 MSTORE PUSH1 0x40 DUP1 DUP4 KECCAK256 DUP9 DUP5 MSTORE SWAP1 SWAP2 MSTORE DUP2 KECCAK256 SWAP2 SWAP3 POP JUMPDEST PUSH1 0x3 DUP2 PUSH1 0xFF AND LT ISZERO PUSH2 0x1146 JUMPI PUSH1 0xFF DUP2 AND PUSH1 0x0 SWAP1 DUP2 MSTORE PUSH1 0x2 DUP4 DUP2 ADD PUSH1 0x20 MSTORE PUSH1 0x40 SWAP2 DUP3 SWAP1 KECCAK256 DUP3 MLOAD DUP1 DUP5 ADD SWAP4 DUP5 SWAP1 MSTORE SWAP3 SWAP1 SWAP2 SWAP1 DUP3 DUP5 JUMPDEST DUP2 SLOAD DUP2 MSTORE PUSH1 0x20 ADD SWAP1 PUSH1 0x1 ADD SWAP1 DUP1 DUP4 GT PUSH2 0x110C JUMPI POP POP POP POP POP DUP5 DUP3 PUSH1 0xFF AND PUSH1 0x3 DUP2 LT PUSH2 0x1139 JUMPI PUSH2 0x1139 PUSH2 0x15C7 JUMP JUMPDEST PUSH1 0x20 MUL ADD MSTORE PUSH1 0x1 ADD PUSH2 0x10D9 JUMP JUMPDEST POP PUSH1 0x0 DUP1 PUSH2 0x1157 DUP4 PUSH1 0x1 ADD SLOAD PUSH2 0xE21 JUMP JUMPDEST SWAP3 POP POP SWAP2 POP PUSH1 0x0 PUSH1 0x1 NUMBER PUSH2 0x116B SWAP2 SWAP1 PUSH2 0x15B0 JUMP JUMPDEST DUP5 SLOAD PUSH1 0x40 MLOAD PUSH2 0x1184 SWAP3 BLOCKHASH SWAP2 DUP6 SWAP2 DUP8 SWAP1 DUP12 SWAP1 PUSH1 0x20 ADD PUSH2 0x190E JUMP JUMPDEST PUSH1 0x40 DUP1 MLOAD DUP1 DUP4 SUB PUSH1 0x1F NOT ADD DUP2 MSTORE SWAP2 SWAP1 MSTORE DUP1 MLOAD PUSH1 0x20 SWAP1 SWAP2 ADD KECCAK256 SWAP10 SWAP9 POP POP POP POP POP POP POP POP POP JUMP JUMPDEST PUSH1 0x40 MLOAD DUP1 PUSH1 0x40 ADD PUSH1 0x40 MSTORE DUP1 PUSH1 0x2 SWAP1 PUSH1 0x20 DUP3 MUL DUP1 CALLDATASIZE DUP4 CALLDATACOPY POP SWAP2 SWAP3 SWAP2 POP POP JUMP JUMPDEST DUP3 PUSH1 0x2 DUP2 ADD SWAP3 DUP3 ISZERO PUSH2 0x11F5 JUMPI SWAP2 PUSH1 0x20 MUL DUP3 ADD JUMPDEST DUP3 DUP2 GT ISZERO PUSH2 0x11F5 JUMPI DUP3 MLOAD DUP3 SSTORE SWAP2 PUSH1 0x20 ADD SWAP2 SWAP1 PUSH1 0x1 ADD SWAP1 PUSH2 0x11DA JUMP JUMPDEST POP PUSH2 0x1201 SWAP3 SWAP2 POP PUSH2 0x125F JUMP JUMPDEST POP SWAP1 JUMP JUMPDEST PUSH1 0x40 MLOAD DUP1 PUSH1 0x60 ADD PUSH1 0x40 MSTORE DUP1 PUSH1 0x3 SWAP1 JUMPDEST PUSH2 0x121C PUSH2 0x11A9 JUMP JUMPDEST DUP2 MSTORE PUSH1 0x20 ADD SWAP1 PUSH1 0x1 SWAP1 SUB SWAP1 DUP2 PUSH2 0x1214 JUMPI SWAP1 POP POP SWAP1 JUMP JUMPDEST PUSH1 0x40 MLOAD DUP1 PUSH1 0x60 ADD PUSH1 0x40 MSTORE DUP1 PUSH1 0x3 SWAP1 JUMPDEST PUSH2 0x1249 PUSH2 0x11A9 JUMP JUMPDEST DUP2 MSTORE PUSH1 0x20 ADD SWAP1 PUSH1 0x1 SWAP1 SUB SWAP1 DUP2 PUSH2 0x1241 JUMPI SWAP1 POP POP SWAP1 JUMP JUMPDEST JUMPDEST DUP1 DUP3 GT ISZERO PUSH2 0x1201 JUMPI PUSH1 0x0 DUP2 SSTORE PUSH1 0x1 ADD PUSH2 0x1260 JUMP JUMPDEST PUSH1 0x0 PUSH1 0x20 DUP3 DUP5 SUB SLT ISZERO PUSH2 0x1286 JUMPI PUSH1 0x0 DUP1 REVERT JUMPDEST POP CALLDATALOAD SWAP2 SWAP1 POP JUMP JUMPDEST PUSH1 0x1 PUSH1 0x1 PUSH1 0xA0 SHL SUB DUP2 AND DUP2 EQ PUSH2 0x12A2 JUMPI PUSH1 0x0 DUP1 REVERT JUMPDEST POP JUMP JUMPDEST PUSH4 0x4E487B71 PUSH1 0xE0 SHL PUSH1 0x0 MSTORE PUSH1 0x41 PUSH1 0x4 MSTORE PUSH1 0x24 PUSH1 0x0 REVERT JUMPDEST PUSH1 0x40 MLOAD PUSH1 0x1F DUP3 ADD PUSH1 0x1F NOT AND DUP2 ADD PUSH8 0xFFFFFFFFFFFFFFFF DUP2 GT DUP3 DUP3 LT OR ISZERO PUSH2 0x12E4 JUMPI PUSH2 0x12E4 PUSH2 0x12A5 JUMP JUMPDEST PUSH1 0x40 MSTORE SWAP2 SWAP1 POP JUMP JUMPDEST PUSH1 0x0 DUP3 PUSH1 0x1F DUP4 ADD SLT PUSH2 0x12FD JUMPI PUSH1 0x0 DUP1 REVERT JUMPDEST PUSH1 0x40 MLOAD PUSH1 0x40 DUP2 ADD DUP2 DUP2 LT PUSH8 0xFFFFFFFFFFFFFFFF DUP3 GT OR ISZERO PUSH2 0x1320 JUMPI PUSH2 0x1320 PUSH2 0x12A5 JUMP JUMPDEST DUP1 PUSH1 0x40 MSTORE POP DUP1 PUSH1 0x40 DUP5 ADD DUP6 DUP2 GT ISZERO PUSH2 0x1337 JUMPI PUSH1 0x0 DUP1 REVERT JUMPDEST DUP5 JUMPDEST DUP2 DUP2 LT ISZERO PUSH2 0x1351 JUMPI DUP1 CALLDATALOAD DUP4 MSTORE PUSH1 0x20 SWAP3 DUP4 ADD SWAP3 ADD PUSH2 0x1339 JUMP JUMPDEST POP SWAP2 SWAP6 SWAP5 POP POP POP POP POP JUMP JUMPDEST PUSH1 0x0 DUP1 PUSH1 0x0 DUP1 PUSH1 0x0 DUP1 PUSH1 0xE0 DUP8 DUP10 SUB SLT ISZERO PUSH2 0x1375 JUMPI PUSH1 0x0 DUP1 REVERT JUMPDEST DUP7 CALLDATALOAD PUSH2 0x1380 DUP2 PUSH2 0x128D JUMP JUMPDEST SWAP6 POP PUSH1 0x20 DUP8 DUP2 ADD CALLDATALOAD SWAP6 POP PUSH1 0x40 DUP9 ADD CALLDATALOAD SWAP5 POP PUSH1 0x60 DUP9 ADD CALLDATALOAD SWAP4 POP PUSH2 0x13A5 DUP10 PUSH1 0x80 DUP11 ADD PUSH2 0x12EC JUMP JUMPDEST SWAP3 POP PUSH1 0xC0 DUP9 ADD CALLDATALOAD PUSH8 0xFFFFFFFFFFFFFFFF DUP1 DUP3 GT ISZERO PUSH2 0x13C2 JUMPI PUSH1 0x0 DUP1 REVERT JUMPDEST DUP2 DUP11 ADD SWAP2 POP DUP11 PUSH1 0x1F DUP4 ADD SLT PUSH2 0x13D6 JUMPI PUSH1 0x0 DUP1 REVERT JUMPDEST DUP2 CALLDATALOAD DUP2 DUP2 GT ISZERO PUSH2 0x13E8 JUMPI PUSH2 0x13E8 PUSH2 0x12A5 JUMP JUMPDEST DUP1 PUSH1 0x5 SHL SWAP2 POP PUSH2 0x13F9 DUP5 DUP4 ADD PUSH2 0x12BB JUMP JUMPDEST DUP2 DUP2 MSTORE SWAP2 DUP4 ADD DUP5 ADD SWAP2 DUP5 DUP2 ADD SWAP1 DUP14 DUP5 GT ISZERO PUSH2 0x1413 JUMPI PUSH1 0x0 DUP1 REVERT JUMPDEST SWAP4 DUP6 ADD SWAP4 JUMPDEST DUP4 DUP6 LT ISZERO PUSH2 0x1431 JUMPI DUP5 CALLDATALOAD DUP3 MSTORE SWAP4 DUP6 ADD SWAP4 SWAP1 DUP6 ADD SWAP1 PUSH2 0x1418 JUMP JUMPDEST DUP1 SWAP7 POP POP POP POP POP POP POP SWAP3 SWAP6 POP SWAP3 SWAP6 POP SWAP3 SWAP6 JUMP JUMPDEST PUSH1 0x0 DUP1 PUSH1 0x40 DUP4 DUP6 SUB SLT ISZERO PUSH2 0x1457 JUMPI PUSH1 0x0 DUP1 REVERT JUMPDEST POP POP DUP1 CALLDATALOAD SWAP3 PUSH1 0x20 SWAP1 SWAP2 ADD CALLDATALOAD SWAP2 POP JUMP JUMPDEST PUSH1 0x0 DUP1 PUSH1 0x60 DUP4 DUP6 SUB SLT ISZERO PUSH2 0x1479 JUMPI PUSH1 0x0 DUP1 REVERT JUMPDEST DUP3 CALLDATALOAD SWAP2 POP PUSH2 0x148A DUP5 PUSH1 0x20 DUP6 ADD PUSH2 0x12EC JUMP JUMPDEST SWAP1 POP SWAP3 POP SWAP3 SWAP1 POP JUMP JUMPDEST PUSH1 0x0 DUP1 PUSH1 0x0 DUP1 PUSH1 0x60 DUP6 DUP8 SUB SLT ISZERO PUSH2 0x14A9 JUMPI PUSH1 0x0 DUP1 REVERT JUMPDEST DUP5 CALLDATALOAD PUSH2 0x14B4 DUP2 PUSH2 0x128D JUMP JUMPDEST SWAP4 POP PUSH1 0x20 DUP6 ADD CALLDATALOAD SWAP3 POP PUSH1 0x40 DUP6 ADD CALLDATALOAD PUSH8 0xFFFFFFFFFFFFFFFF DUP1 DUP3 GT ISZERO PUSH2 0x14D8 JUMPI PUSH1 0x0 DUP1 REVERT JUMPDEST DUP2 DUP8 ADD SWAP2 POP DUP8 PUSH1 0x1F DUP4 ADD SLT PUSH2 0x14EC JUMPI PUSH1 0x0 DUP1 REVERT JUMPDEST DUP2 CALLDATALOAD DUP2 DUP2 GT ISZERO PUSH2 0x14FB JUMPI PUSH1 0x0 DUP1 REVERT JUMPDEST DUP9 PUSH1 0x20 DUP3 DUP6 ADD ADD GT ISZERO PUSH2 0x150D JUMPI PUSH1 0x0 DUP1 REVERT JUMPDEST SWAP6 SWAP9 SWAP5 SWAP8 POP POP PUSH1 0x20 ADD SWAP5 POP POP POP JUMP JUMPDEST PUSH1 0x0 PUSH1 0x20 DUP3 DUP5 SUB SLT ISZERO PUSH2 0x152E JUMPI PUSH1 0x0 DUP1 REVERT JUMPDEST DUP2 CALLDATALOAD PUSH2 0x1539 DUP2 PUSH2 0x128D JUMP JUMPDEST SWAP4 SWAP3 POP POP POP JUMP JUMPDEST PUSH1 0xC0 DUP2 ADD DUP2 DUP4 PUSH1 0x0 DUP1 JUMPDEST PUSH1 0x3 DUP2 LT ISZERO PUSH2 0x1590 JUMPI DUP3 MLOAD DUP5 DUP4 JUMPDEST PUSH1 0x2 DUP2 LT ISZERO PUSH2 0x1577 JUMPI DUP3 MLOAD DUP3 MSTORE PUSH1 0x20 SWAP3 DUP4 ADD SWAP3 SWAP1 SWAP2 ADD SWAP1 PUSH1 0x1 ADD PUSH2 0x1558 JUMP JUMPDEST POP POP POP PUSH1 0x40 SWAP4 SWAP1 SWAP4 ADD SWAP3 PUSH1 0x20 SWAP3 SWAP1 SWAP3 ADD SWAP2 PUSH1 0x1 ADD PUSH2 0x154A JUMP JUMPDEST POP POP POP POP SWAP3 SWAP2 POP POP JUMP JUMPDEST PUSH4 0x4E487B71 PUSH1 0xE0 SHL PUSH1 0x0 MSTORE PUSH1 0x11 PUSH1 0x4 MSTORE PUSH1 0x24 PUSH1 0x0 REVERT JUMPDEST PUSH1 0x0 DUP3 DUP3 LT ISZERO PUSH2 0x15C2 JUMPI PUSH2 0x15C2 PUSH2 0x159A JUMP JUMPDEST POP SUB SWAP1 JUMP JUMPDEST PUSH4 0x4E487B71 PUSH1 0xE0 SHL PUSH1 0x0 MSTORE PUSH1 0x32 PUSH1 0x4 MSTORE PUSH1 0x24 PUSH1 0x0 REVERT JUMPDEST DUP1 PUSH1 0x0 JUMPDEST PUSH1 0x2 DUP2 LT ISZERO PUSH2 0x1600 JUMPI DUP2 MLOAD DUP5 MSTORE PUSH1 0x20 SWAP4 DUP5 ADD SWAP4 SWAP1 SWAP2 ADD SWAP1 PUSH1 0x1 ADD PUSH2 0x15E1 JUMP JUMPDEST POP POP POP POP JUMP JUMPDEST PUSH1 0x0 DUP2 MLOAD DUP1 DUP5 MSTORE PUSH1 0x20 DUP1 DUP6 ADD SWAP5 POP DUP1 DUP5 ADD PUSH1 0x0 JUMPDEST DUP4 DUP2 LT ISZERO PUSH2 0x1636 JUMPI DUP2 MLOAD DUP8 MSTORE SWAP6 DUP3 ADD SWAP6 SWAP1 DUP3 ADD SWAP1 PUSH1 0x1 ADD PUSH2 0x161A JUMP JUMPDEST POP SWAP5 SWAP6 SWAP5 POP POP POP POP POP JUMP JUMPDEST PUSH1 0x0 DUP2 MLOAD DUP1 DUP5 MSTORE PUSH1 0x20 DUP1 DUP6 ADD SWAP5 POP DUP1 DUP5 ADD PUSH1 0x0 JUMPDEST DUP4 DUP2 LT ISZERO PUSH2 0x1636 JUMPI PUSH2 0x1668 DUP8 DUP4 MLOAD PUSH2 0x15DD JUMP JUMPDEST PUSH1 0x40 SWAP7 SWAP1 SWAP7 ADD SWAP6 SWAP1 DUP3 ADD SWAP1 PUSH1 0x1 ADD PUSH2 0x1655 JUMP JUMPDEST PUSH1 0xC0 DUP2 MSTORE PUSH1 0x0 DUP7 MLOAD DUP1 PUSH1 0xC0 DUP5 ADD MSTORE PUSH1 0x0 JUMPDEST DUP2 DUP2 LT ISZERO PUSH2 0x16A9 JUMPI PUSH1 0x20 DUP2 DUP11 ADD DUP2 ADD MLOAD PUSH1 0xE0 DUP7 DUP5 ADD ADD MSTORE ADD PUSH2 0x168C JUMP JUMPDEST DUP2 DUP2 GT ISZERO PUSH2 0x16BB JUMPI PUSH1 0x0 PUSH1 0xE0 DUP4 DUP7 ADD ADD MSTORE JUMPDEST POP PUSH1 0x20 DUP4 ADD DUP8 SWAP1 MSTORE PUSH1 0x1F ADD PUSH1 0x1F NOT AND DUP3 ADD PUSH2 0x16D9 PUSH1 0x40 DUP5 ADD DUP8 PUSH2 0x15DD JUMP JUMPDEST PUSH1 0xE0 DUP4 DUP3 SUB ADD PUSH1 0x80 DUP5 ADD MSTORE PUSH2 0x16F1 PUSH1 0xE0 DUP3 ADD DUP7 PUSH2 0x1606 JUMP JUMPDEST SWAP1 POP DUP3 DUP2 SUB PUSH1 0xA0 DUP5 ADD MSTORE PUSH2 0x1705 DUP2 DUP6 PUSH2 0x1641 JUMP JUMPDEST SWAP9 SWAP8 POP POP POP POP POP POP POP POP JUMP JUMPDEST PUSH1 0x0 PUSH1 0x20 DUP3 DUP5 SUB SLT ISZERO PUSH2 0x1723 JUMPI PUSH1 0x0 DUP1 REVERT JUMPDEST DUP2 MLOAD DUP1 ISZERO ISZERO DUP2 EQ PUSH2 0x1539 JUMPI PUSH1 0x0 DUP1 REVERT JUMPDEST PUSH1 0x0 DUP3 NOT DUP3 GT ISZERO PUSH2 0x1746 JUMPI PUSH2 0x1746 PUSH2 0x159A JUMP JUMPDEST POP ADD SWAP1 JUMP JUMPDEST PUSH1 0x0 DUP2 PUSH1 0x0 NOT DIV DUP4 GT DUP3 ISZERO ISZERO AND ISZERO PUSH2 0x1765 JUMPI PUSH2 0x1765 PUSH2 0x159A JUMP JUMPDEST POP MUL SWAP1 JUMP JUMPDEST PUSH1 0x0 DUP3 PUSH2 0x1787 JUMPI PUSH4 0x4E487B71 PUSH1 0xE0 SHL PUSH1 0x0 MSTORE PUSH1 0x12 PUSH1 0x4 MSTORE PUSH1 0x24 PUSH1 0x0 REVERT JUMPDEST POP DIV SWAP1 JUMP JUMPDEST PUSH1 0x0 PUSH1 0x20 DUP3 DUP5 SUB SLT ISZERO PUSH2 0x179E JUMPI PUSH1 0x0 DUP1 REVERT JUMPDEST POP MLOAD SWAP2 SWAP1 POP JUMP JUMPDEST DUP5 DUP2 MSTORE DUP4 PUSH1 0x20 DUP3 ADD MSTORE PUSH1 0x60 PUSH1 0x40 DUP3 ADD MSTORE DUP2 PUSH1 0x60 DUP3 ADD MSTORE DUP2 DUP4 PUSH1 0x80 DUP4 ADD CALLDATACOPY PUSH1 0x0 DUP2 DUP4 ADD PUSH1 0x80 SWAP1 DUP2 ADD SWAP2 SWAP1 SWAP2 MSTORE PUSH1 0x1F SWAP1 SWAP3 ADD PUSH1 0x1F NOT AND ADD ADD SWAP4 SWAP3 POP POP POP JUMP JUMPDEST PUSH1 0x0 PUSH1 0x20 DUP3 DUP5 SUB SLT ISZERO PUSH2 0x17F4 JUMPI PUSH1 0x0 DUP1 REVERT JUMPDEST DUP2 MLOAD PUSH1 0xFF DUP2 AND DUP2 EQ PUSH2 0x1539 JUMPI PUSH1 0x0 DUP1 REVERT JUMPDEST PUSH1 0x1 DUP2 DUP2 JUMPDEST DUP1 DUP6 GT ISZERO PUSH2 0x1840 JUMPI DUP2 PUSH1 0x0 NOT DIV DUP3 GT ISZERO PUSH2 0x1826 JUMPI PUSH2 0x1826 PUSH2 0x159A JUMP JUMPDEST DUP1 DUP6 AND ISZERO PUSH2 0x1833 JUMPI SWAP2 DUP2 MUL SWAP2 JUMPDEST SWAP4 DUP5 SHR SWAP4 SWAP1 DUP1 MUL SWAP1 PUSH2 0x180A JUMP JUMPDEST POP SWAP3 POP SWAP3 SWAP1 POP JUMP JUMPDEST PUSH1 0x0 DUP3 PUSH2 0x1857 JUMPI POP PUSH1 0x1 PUSH2 0xB38 JUMP JUMPDEST DUP2 PUSH2 0x1864 JUMPI POP PUSH1 0x0 PUSH2 0xB38 JUMP JUMPDEST DUP2 PUSH1 0x1 DUP2 EQ PUSH2 0x187A JUMPI PUSH1 0x2 DUP2 EQ PUSH2 0x1884 JUMPI PUSH2 0x18A0 JUMP JUMPDEST PUSH1 0x1 SWAP2 POP POP PUSH2 0xB38 JUMP JUMPDEST PUSH1 0xFF DUP5 GT ISZERO PUSH2 0x1895 JUMPI PUSH2 0x1895 PUSH2 0x159A JUMP JUMPDEST POP POP PUSH1 0x1 DUP3 SHL PUSH2 0xB38 JUMP JUMPDEST POP PUSH1 0x20 DUP4 LT PUSH2 0x133 DUP4 LT AND PUSH1 0x4E DUP5 LT PUSH1 0xB DUP5 LT AND OR ISZERO PUSH2 0x18C3 JUMPI POP DUP2 DUP2 EXP PUSH2 0xB38 JUMP JUMPDEST PUSH2 0x18CD DUP4 DUP4 PUSH2 0x1805 JUMP JUMPDEST DUP1 PUSH1 0x0 NOT DIV DUP3 GT ISZERO PUSH2 0x18E1 JUMPI PUSH2 0x18E1 PUSH2 0x159A JUMP JUMPDEST MUL SWAP4 SWAP3 POP POP POP JUMP JUMPDEST PUSH1 0x0 PUSH2 0x1539 DUP4 DUP4 PUSH2 0x1848 JUMP JUMPDEST PUSH1 0x0 PUSH1 0x1 DUP3 ADD PUSH2 0x1907 JUMPI PUSH2 0x1907 PUSH2 0x159A JUMP JUMPDEST POP PUSH1 0x1 ADD SWAP1 JUMP JUMPDEST DUP6 DUP2 MSTORE PUSH1 0x0 PUSH1 0x20 DUP7 DUP2 DUP5 ADD MSTORE PUSH1 0x40 DUP7 DUP2 DUP6 ADD MSTORE DUP6 PUSH1 0x60 DUP6 ADD MSTORE PUSH1 0x80 DUP5 ADD DUP6 PUSH1 0x0 DUP1 JUMPDEST PUSH1 0x3 DUP2 LT ISZERO PUSH2 0x196E JUMPI DUP3 MLOAD DUP5 DUP4 JUMPDEST PUSH1 0x2 DUP2 LT ISZERO PUSH2 0x195B JUMPI DUP3 MLOAD DUP3 MSTORE SWAP2 DUP9 ADD SWAP2 SWAP1 DUP9 ADD SWAP1 PUSH1 0x1 ADD PUSH2 0x193E JUMP JUMPDEST POP POP POP SWAP3 DUP5 ADD SWAP3 SWAP2 DUP6 ADD SWAP2 PUSH1 0x1 ADD PUSH2 0x1930 JUMP JUMPDEST POP POP POP POP POP POP PUSH2 0x140 DUP3 ADD SWAP1 POP SWAP7 SWAP6 POP POP POP POP POP POP JUMP INVALID LOG2 PUSH5 0x6970667358 0x22 SLT KECCAK256 SWAP9 SDIV 0xCD PUSH18 0x24E09EE7001F46131EBFFBC4DBFE7E2E4951 0x1E 0xD 0x5E 0x5F 0xAD CODECOPY 0xD7 SWAP14 0xC4 0xA8 PUSH5 0x736F6C6343 STOP ADDMOD 0xD STOP CALLER LOG2 PUSH5 0x6970667358 0x22 SLT KECCAK256 0xAC ADDMOD 0xE0 0xB0 CODECOPY SWAP3 0xA9 0x2F 0xC3 PUSH2 0x347A OR DUP5 COINBASE PUSH1 0x6D PUSH8 0x9917C15551ACFFF3 SWAP9 SWAP13 0xAC 0xA8 INVALID 0xDE PUSH5 0x736F6C6343 STOP ADDMOD 0xD STOP CALLER ",
  "sha1": "83e2bafad488cbf25b9a92a12c4bcd54b4b39de9",
  "source": "// SPDX-License-Identifier: AGPL-3.0-only\n\npragma solidity ^0.8.5;\n\nimport \"./HettiPool.sol\";\nimport \"./interfaces/IHettiPool.sol\";\n\ncontract HettiFactory {\n\n    // Errors\n    error PoolExists();\n    error ZeroAddress();\n    error Forbidden();\n\n    // Events\n    event PoolCreated(\n        address indexed token,\n        address poolAddress\n    );\n\n    address[] public allPools;\n    address public manager;\n\n    mapping(address => address) public pools;\n\n\n    constructor(address _manager) {\n        manager = _manager;\n    }\n\n    function createPool(address token) public returns (address vault) {\n\n        if (token == address(0)) revert ZeroAddress();\n        if(pools[token] != address(0)) revert PoolExists();\n\n\n        bytes memory bytecode = type(HettiPool).creationCode;\n        bytes32 salt = keccak256(abi.encodePacked(token));\n\n        assembly {\n            vault := create2(0, add(bytecode, 32), mload(bytecode), salt)\n        }\n\n        IHettiPool(vault).initialize(token);\n\n        pools[token] = vault;\n        allPools.push(vault);\n\n        emit PoolCreated(token, vault);\n    }\n\n    function allPoolsLength() external view returns (uint) {\n        return allPools.length;\n    }\n\n    function setManager(address _manager) external {\n        if (msg.sender != manager) revert Forbidden();\n        manager = _manager;\n    }\n}",
  "sourcePath": "contracts/HettiFactory.sol",
  "type": "contract"
}