{
  "abi": [
    {
      "inputs": [
        {
          "internalType": "uint256[2]",
          "name": "publicKey",
          "type": "uint256[2]"
        }
      ],
      "name": "deposit",
      "outputs": [],
      "stateMutability": "payable",
      "type": "function"
    },
    {
      "inputs": [
        {
          "internalType": "uint256",
          "name": "amount",
          "type": "uint256"
        },
        {
          "internalType": "uint256",
          "name": "index",
          "type": "uint256"
        }
      ],
      "name": "forceCloseRing",
      "outputs": [],
      "stateMutability": "nonpayable",
      "type": "function"
    },
    {
      "inputs": [
        {
          "internalType": "uint256",
          "name": "amountEther",
          "type": "uint256"
        },
        {
          "internalType": "uint256",
          "name": "index",
          "type": "uint256"
        }
      ],
      "name": "getRingHash",
      "outputs": [
        {
          "internalType": "bytes32",
          "name": "",
          "type": "bytes32"
        }
      ],
      "stateMutability": "view",
      "type": "function"
    },
    {
      "inputs": [
        {
          "internalType": "uint256",
          "name": "sk",
          "type": "uint256"
        }
      ],
      "name": "privateToPublic",
      "outputs": [
        {
          "internalType": "uint256[2]",
          "name": "publicKey",
          "type": "uint256[2]"
        }
      ],
      "stateMutability": "view",
      "type": "function"
    },
    {
      "inputs": [
        {
          "internalType": "uint256",
          "name": "",
          "type": "uint256"
        },
        {
          "internalType": "uint256",
          "name": "",
          "type": "uint256"
        }
      ],
      "name": "rings",
      "outputs": [
        {
          "internalType": "uint256",
          "name": "createdBlockNumber",
          "type": "uint256"
        },
        {
          "internalType": "uint256",
          "name": "amountDeposited",
          "type": "uint256"
        },
        {
          "internalType": "bytes32",
          "name": "ringHash",
          "type": "bytes32"
        },
        {
          "internalType": "uint8",
          "name": "dParticipantsNo",
          "type": "uint8"
        },
        {
          "internalType": "uint8",
          "name": "wParticipantsNo",
          "type": "uint8"
        }
      ],
      "stateMutability": "view",
      "type": "function"
    },
    {
      "inputs": [
        {
          "internalType": "address payable",
          "name": "receiver",
          "type": "address"
        },
        {
          "internalType": "uint256",
          "name": "amountEther",
          "type": "uint256"
        },
        {
          "internalType": "uint256",
          "name": "index",
          "type": "uint256"
        },
        {
          "internalType": "uint256",
          "name": "c0",
          "type": "uint256"
        },
        {
          "internalType": "uint256[2]",
          "name": "keyImage",
          "type": "uint256[2]"
        },
        {
          "internalType": "uint256[]",
          "name": "s",
          "type": "uint256[]"
        }
      ],
      "name": "withdraw",
      "outputs": [],
      "stateMutability": "nonpayable",
      "type": "function"
    }
  ],
  "bytecode": "6101a0604052671bc16d674ec800006080908152673782dace9d90000060a052676f05b59d3b20000060c05267de0b6b3a7640000060e0526801bc16d674ec800000610100526803782dace9d9000000610120526806f05b59d3b200000061014052680de0b6b3a76400000061016052681bc16d674ec80000006101805261008b90600090600961009e565b5034801561009857600080fd5b506100fc565b82600a81019282156100d7579160200282015b828111156100d757825182906001600160481b03169055916020019190600101906100b1565b506100e39291506100e7565b5090565b5b808211156100e357600081556001016100e8565b61131b8061010b6000396000f3fe6080604052600436106100555760003560e01c806310837eec1461005a578063143ad3561461009057806362230498146100a55780636381d19e146100c55780636a6dcd421461014c5780639f1961e61461016c575b600080fd5b34801561006657600080fd5b5061007a610075366004610d84565b61019a565b6040516100879190610d9d565b60405180910390f35b6100a361009e366004610e8e565b6102e1565b005b3480156100b157600080fd5b506100a36100c0366004610eb1565b610573565b3480156100d157600080fd5b5061011e6100e0366004610fa5565b600b60209081526000928352604080842090915290825290208054600182015460028301546003909301549192909160ff8082169161010090041685565b6040805195865260208601949094529284019190915260ff908116606084015216608082015260a001610087565b34801561015857600080fd5b506100a3610167366004610fa5565b61095f565b34801561017857600080fd5b5061018c610187366004610fa5565b610abf565b604051908152602001610087565b6101a2610ce6565b6040516308b86e6360e31b81526004810183905273__AltBn128______________________________906345c37318906024016040805180830381865af41580156101f1573d6000803e3d6000fd5b505050506040513d601f19601f820116820180604052508101906102159190610fc7565b80516020820151604051630cd3b28960e31b81526004810192909252602482015290915073__AltBn128______________________________9063669d944890604401602060405180830381865af4158015610275573d6000803e3d6000fd5b505050506040513d601f19601f820116820180604052508101906102999190611032565b6102dc5760405162461bcd60e51b815260206004820152600f60248201526e504b5f4e4f545f4f4e5f435552564560881b60448201526064015b60405180910390fd5b919050565b60006102ec34610afd565b6000818152600a6020908152604080832054600b83528184208185528352928190208651928701519151630cd3b28960e31b81526004810193909352602483019190915292935090919073__AltBn128______________________________9063669d944890604401602060405180830381865af4158015610372573d6000803e3d6000fd5b505050506040513d601f19601f820116820180604052508101906103969190611032565b6103db5760405162461bcd60e51b81526020600482015260166024820152755075626c6963204b6579206e6f206f6e20437572766560501b60448201526064016102d3565b60005b600382015460ff908116908216101561049057845160ff82166000908152600484016020526040902054148015610431575060208086015160ff8316600090815260048501909252604090912060010154145b1561047e5760405162461bcd60e51b815260206004820152601f60248201527f4164647265737320616c726561647920696e2063757272656e742052696e670060448201526064016102d3565b806104888161106a565b9150506103de565b50600381015460ff166000036104ae576104ab600143611089565b81555b600381015460ff16600090815260048201602052604090206104d290856002610d04565b5060038101805460ff169060006104e88361106a565b91906101000a81548160ff021916908360ff160217905550508281600101600082825461051591906110a0565b909155505060038181015460ff161061056d5761054361053d670de0b6b3a7640000856110b8565b83610bdc565b60028201556000838152600a602052604081208054600192906105679084906110a0565b90915550505b50505050565b6000805a9050600061059561059089670de0b6b3a76400006110da565b610afd565b6000818152600b602090815260408083208b845290915290206003808201549293509091610100900460ff16106106255760405162461bcd60e51b815260206004820152602e60248201527f416c6c2066756e64732066726f6d2063757272656e742052696e67206861732060448201526d3132b2b7103bb4ba34323930bbb760911b60648201526084016102d3565b600281015461066a5760405162461bcd60e51b8152602060048201526011602482015270149a5b99c81a5cdb89dd0818db1bdcd959607a1b60448201526064016102d3565b60408051600380825260808201909252600091816020015b61068a610ce6565b815260200190600190039081610682579050509050600094505b60038510156107125760408051808201825260ff8716600081815260048601602081815294822080548552929091528352600101549181019190915281518290879081106106f4576106f461101c565b6020026020010181905250848061070a906110f9565b9550506106a4565b600073__LSAG__________________________________63fe46a2b2846002015460405160200161074591815260200190565b6040516020818303038152906040528b8b8b876040518663ffffffff1660e01b81526004016107789594939291906111aa565b602060405180830381865af4158015610795573d6000803e3d6000fd5b505050506040513d601f19601f820116820180604052508101906107b99190611032565b9050806107fc5760405162461bcd60e51b8152602060048201526011602482015270496e76616c6964207369676e617475726560781b60448201526064016102d3565b600095505b6003830154610100900460ff168610156108b457875160ff87166000908152600585016020526040902054148015610855575060208089015160ff8816600090815260058601909252604090912060010154145b156108a25760405162461bcd60e51b815260206004820152601860248201527f5369676e617475726520686173206265656e207573656421000000000000000060448201526064016102d3565b856108ac816110f9565b965050610801565b6003830154610100900460ff16600090815260058401602052604090206108dd90896002610d04565b5060018360030160018282829054906101000a900460ff166108ff9190611240565b92506101000a81548160ff021916908360ff1602179055508b6001600160a01b03166108fc859081150290604051600060405180830381858888f19350505050158015610950573d6000803e3d6000fd5b50505050505050505050505050565b600061097661059084670de0b6b3a76400006110da565b6000818152600a6020908152604080832054600b835281842081855290925290912060028101549293509091156109ef5760405162461bcd60e51b815260206004820152601760248201527f52696e6720697320616c726561647920636c6f7365642100000000000000000060448201526064016102d3565b80546000906109ff600143611089565b610a099190611089565b10610a745760405162461bcd60e51b815260206004820152603560248201527f52696e67206e6565647320746f206d6174757265206c6f6e676572206265666f604482015274726520666f72636566756c6c7920636c6f73696e6760581b60648201526084016102d3565b610a8f610a89670de0b6b3a7640000856110b8565b85610bdc565b60028201556000838152600a60205260408120805460019290610ab39084906110a0565b90915550505050505050565b600080610ad761059085670de0b6b3a76400006110da565b6000908152600b6020908152604080832086845290915290206002015491505092915050565b6000808080610b14670de0b6b3a7640000866110b8565b610b2690670de0b6b3a76400006110da565b9050600092505b600a831015610b6d5780600084600a8110610b4a57610b4a61101c565b015403610b5657600191505b81610b6d5782610b65816110f9565b935050610b2d565b81610bd45760405162461bcd60e51b815260206004820152603160248201527f4f6e6c79204554482076616c756573206f6620322c20342c20362c2038202e2e6044820152700b880d4c4c88185c9948185b1b1bddd959607a1b60648201526084016102d3565b949350505050565b6000610be6610d42565b6000610bfd61059086670de0b6b3a76400006110da565b6000818152600b6020908152604080832088845290915281209192505b60038160ff161015610c905760ff81166000908152600483016020526040908190208151808301928390529160029082845b815481526020019060010190808311610c4c575050505050848260ff1660038110610c7957610c7961101c565b602002015280610c888161106a565b915050610c1a565b506000610c9e600143611089565b825460018401546003850154604051610cc3944093929160ff16908990602001611265565b60408051808303601f190181529190528051602090910120979650505050505050565b60405180604001604052806002906020820280368337509192915050565b8260028101928215610d32579160200282015b82811115610d32578251825591602001919060010190610d17565b50610d3e929150610d6f565b5090565b60405180606001604052806003905b610d59610ce6565b815260200190600190039081610d515790505090565b5b80821115610d3e5760008155600101610d70565b600060208284031215610d9657600080fd5b5035919050565b60408101818360005b6002811015610dc5578151835260209283019290910190600101610da6565b50505092915050565b634e487b7160e01b600052604160045260246000fd5b6040805190810167ffffffffffffffff81118282101715610e0757610e07610dce565b60405290565b604051601f8201601f1916810167ffffffffffffffff81118282101715610e3657610e36610dce565b604052919050565b600082601f830112610e4f57600080fd5b610e57610de4565b806040840185811115610e6957600080fd5b845b81811015610e83578035845260209384019301610e6b565b509095945050505050565b600060408284031215610ea057600080fd5b610eaa8383610e3e565b9392505050565b60008060008060008060e08789031215610eca57600080fd5b86356001600160a01b0381168114610ee157600080fd5b955060208781013595506040880135945060608801359350610f068960808a01610e3e565b925060c088013567ffffffffffffffff80821115610f2357600080fd5b818a0191508a601f830112610f3757600080fd5b813581811115610f4957610f49610dce565b8060051b9150610f5a848301610e0d565b818152918301840191848101908d841115610f7457600080fd5b938501935b83851015610f9257843582529385019390850190610f79565b8096505050505050509295509295509295565b60008060408385031215610fb857600080fd5b50508035926020909101359150565b600060408284031215610fd957600080fd5b82601f830112610fe857600080fd5b610ff0610de4565b80604084018581111561100257600080fd5b845b81811015610e83578051845260209384019301611004565b634e487b7160e01b600052603260045260246000fd5b60006020828403121561104457600080fd5b81518015158114610eaa57600080fd5b634e487b7160e01b600052601160045260246000fd5b600060ff821660ff810361108057611080611054565b60010192915050565b60008282101561109b5761109b611054565b500390565b600082198211156110b3576110b3611054565b500190565b6000826110d557634e487b7160e01b600052601260045260246000fd5b500490565b60008160001904831182151516156110f4576110f4611054565b500290565b60006001820161110b5761110b611054565b5060010190565b8060005b600281101561056d578151845260209384019390910190600101611116565b600081518084526020808501945080840160005b8381101561116557815187529582019590820190600101611149565b509495945050505050565b600081518084526020808501945080840160005b8381101561116557611197878351611112565b6040969096019590820190600101611184565b60c08152600086518060c084015260005b818110156111d8576020818a0181015160e08684010152016111bb565b818111156111ea57600060e083860101525b5060208301879052601f01601f191682016112086040840187611112565b60e083820301608084015261122060e0820186611135565b905082810360a08401526112348185611170565b98975050505050505050565b600060ff821660ff84168060ff0382111561125d5761125d611054565b019392505050565b8581526000602086818401526040868185015260ff60f81b8660f81b16606085015260618401856000805b60038110156112ce57825184835b60028110156112bb5782518252918801919088019060010161129e565b5050509284019291850191600101611290565b50505050505061012182019050969550505050505056fea26469706673582212201c354fbceee137e1c34139d2bf4a74777b4def18f14a99f8266ef5b7f0178dae64736f6c634300080d0033",
  "bytecodeSha1": "3b97e8e40a10039bb211d39284ce83c4669511e4",
  "compiler": {
    "evm_version": "istanbul",
    "optimizer": {
      "enabled": true,
      "runs": 200
    },
    "version": "0.8.13+commit.abaa5c0e"
  },
  "contractName": "Hetti",
  "deployedBytecode": "6080604052600436106100555760003560e01c806310837eec1461005a578063143ad3561461009057806362230498146100a55780636381d19e146100c55780636a6dcd421461014c5780639f1961e61461016c575b600080fd5b34801561006657600080fd5b5061007a610075366004610d84565b61019a565b6040516100879190610d9d565b60405180910390f35b6100a361009e366004610e8e565b6102e1565b005b3480156100b157600080fd5b506100a36100c0366004610eb1565b610573565b3480156100d157600080fd5b5061011e6100e0366004610fa5565b600b60209081526000928352604080842090915290825290208054600182015460028301546003909301549192909160ff8082169161010090041685565b6040805195865260208601949094529284019190915260ff908116606084015216608082015260a001610087565b34801561015857600080fd5b506100a3610167366004610fa5565b61095f565b34801561017857600080fd5b5061018c610187366004610fa5565b610abf565b604051908152602001610087565b6101a2610ce6565b6040516308b86e6360e31b81526004810183905273__$0769e4187bae5c4f4cd6ae56e4ede5e405$__906345c37318906024016040805180830381865af41580156101f1573d6000803e3d6000fd5b505050506040513d601f19601f820116820180604052508101906102159190610fc7565b80516020820151604051630cd3b28960e31b81526004810192909252602482015290915073__$0769e4187bae5c4f4cd6ae56e4ede5e405$__9063669d944890604401602060405180830381865af4158015610275573d6000803e3d6000fd5b505050506040513d601f19601f820116820180604052508101906102999190611032565b6102dc5760405162461bcd60e51b815260206004820152600f60248201526e504b5f4e4f545f4f4e5f435552564560881b60448201526064015b60405180910390fd5b919050565b60006102ec34610afd565b6000818152600a6020908152604080832054600b83528184208185528352928190208651928701519151630cd3b28960e31b81526004810193909352602483019190915292935090919073__$0769e4187bae5c4f4cd6ae56e4ede5e405$__9063669d944890604401602060405180830381865af4158015610372573d6000803e3d6000fd5b505050506040513d601f19601f820116820180604052508101906103969190611032565b6103db5760405162461bcd60e51b81526020600482015260166024820152755075626c6963204b6579206e6f206f6e20437572766560501b60448201526064016102d3565b60005b600382015460ff908116908216101561049057845160ff82166000908152600484016020526040902054148015610431575060208086015160ff8316600090815260048501909252604090912060010154145b1561047e5760405162461bcd60e51b815260206004820152601f60248201527f4164647265737320616c726561647920696e2063757272656e742052696e670060448201526064016102d3565b806104888161106a565b9150506103de565b50600381015460ff166000036104ae576104ab600143611089565b81555b600381015460ff16600090815260048201602052604090206104d290856002610d04565b5060038101805460ff169060006104e88361106a565b91906101000a81548160ff021916908360ff160217905550508281600101600082825461051591906110a0565b909155505060038181015460ff161061056d5761054361053d670de0b6b3a7640000856110b8565b83610bdc565b60028201556000838152600a602052604081208054600192906105679084906110a0565b90915550505b50505050565b6000805a9050600061059561059089670de0b6b3a76400006110da565b610afd565b6000818152600b602090815260408083208b845290915290206003808201549293509091610100900460ff16106106255760405162461bcd60e51b815260206004820152602e60248201527f416c6c2066756e64732066726f6d2063757272656e742052696e67206861732060448201526d3132b2b7103bb4ba34323930bbb760911b60648201526084016102d3565b600281015461066a5760405162461bcd60e51b8152602060048201526011602482015270149a5b99c81a5cdb89dd0818db1bdcd959607a1b60448201526064016102d3565b60408051600380825260808201909252600091816020015b61068a610ce6565b815260200190600190039081610682579050509050600094505b60038510156107125760408051808201825260ff8716600081815260048601602081815294822080548552929091528352600101549181019190915281518290879081106106f4576106f461101c565b6020026020010181905250848061070a906110f9565b9550506106a4565b600073__$59a6a99b146727e155adc36af30d91d8cc$__63fe46a2b2846002015460405160200161074591815260200190565b6040516020818303038152906040528b8b8b876040518663ffffffff1660e01b81526004016107789594939291906111aa565b602060405180830381865af4158015610795573d6000803e3d6000fd5b505050506040513d601f19601f820116820180604052508101906107b99190611032565b9050806107fc5760405162461bcd60e51b8152602060048201526011602482015270496e76616c6964207369676e617475726560781b60448201526064016102d3565b600095505b6003830154610100900460ff168610156108b457875160ff87166000908152600585016020526040902054148015610855575060208089015160ff8816600090815260058601909252604090912060010154145b156108a25760405162461bcd60e51b815260206004820152601860248201527f5369676e617475726520686173206265656e207573656421000000000000000060448201526064016102d3565b856108ac816110f9565b965050610801565b6003830154610100900460ff16600090815260058401602052604090206108dd90896002610d04565b5060018360030160018282829054906101000a900460ff166108ff9190611240565b92506101000a81548160ff021916908360ff1602179055508b6001600160a01b03166108fc859081150290604051600060405180830381858888f19350505050158015610950573d6000803e3d6000fd5b50505050505050505050505050565b600061097661059084670de0b6b3a76400006110da565b6000818152600a6020908152604080832054600b835281842081855290925290912060028101549293509091156109ef5760405162461bcd60e51b815260206004820152601760248201527f52696e6720697320616c726561647920636c6f7365642100000000000000000060448201526064016102d3565b80546000906109ff600143611089565b610a099190611089565b10610a745760405162461bcd60e51b815260206004820152603560248201527f52696e67206e6565647320746f206d6174757265206c6f6e676572206265666f604482015274726520666f72636566756c6c7920636c6f73696e6760581b60648201526084016102d3565b610a8f610a89670de0b6b3a7640000856110b8565b85610bdc565b60028201556000838152600a60205260408120805460019290610ab39084906110a0565b90915550505050505050565b600080610ad761059085670de0b6b3a76400006110da565b6000908152600b6020908152604080832086845290915290206002015491505092915050565b6000808080610b14670de0b6b3a7640000866110b8565b610b2690670de0b6b3a76400006110da565b9050600092505b600a831015610b6d5780600084600a8110610b4a57610b4a61101c565b015403610b5657600191505b81610b6d5782610b65816110f9565b935050610b2d565b81610bd45760405162461bcd60e51b815260206004820152603160248201527f4f6e6c79204554482076616c756573206f6620322c20342c20362c2038202e2e6044820152700b880d4c4c88185c9948185b1b1bddd959607a1b60648201526084016102d3565b949350505050565b6000610be6610d42565b6000610bfd61059086670de0b6b3a76400006110da565b6000818152600b6020908152604080832088845290915281209192505b60038160ff161015610c905760ff81166000908152600483016020526040908190208151808301928390529160029082845b815481526020019060010190808311610c4c575050505050848260ff1660038110610c7957610c7961101c565b602002015280610c888161106a565b915050610c1a565b506000610c9e600143611089565b825460018401546003850154604051610cc3944093929160ff16908990602001611265565b60408051808303601f190181529190528051602090910120979650505050505050565b60405180604001604052806002906020820280368337509192915050565b8260028101928215610d32579160200282015b82811115610d32578251825591602001919060010190610d17565b50610d3e929150610d6f565b5090565b60405180606001604052806003905b610d59610ce6565b815260200190600190039081610d515790505090565b5b80821115610d3e5760008155600101610d70565b600060208284031215610d9657600080fd5b5035919050565b60408101818360005b6002811015610dc5578151835260209283019290910190600101610da6565b50505092915050565b634e487b7160e01b600052604160045260246000fd5b6040805190810167ffffffffffffffff81118282101715610e0757610e07610dce565b60405290565b604051601f8201601f1916810167ffffffffffffffff81118282101715610e3657610e36610dce565b604052919050565b600082601f830112610e4f57600080fd5b610e57610de4565b806040840185811115610e6957600080fd5b845b81811015610e83578035845260209384019301610e6b565b509095945050505050565b600060408284031215610ea057600080fd5b610eaa8383610e3e565b9392505050565b60008060008060008060e08789031215610eca57600080fd5b86356001600160a01b0381168114610ee157600080fd5b955060208781013595506040880135945060608801359350610f068960808a01610e3e565b925060c088013567ffffffffffffffff80821115610f2357600080fd5b818a0191508a601f830112610f3757600080fd5b813581811115610f4957610f49610dce565b8060051b9150610f5a848301610e0d565b818152918301840191848101908d841115610f7457600080fd5b938501935b83851015610f9257843582529385019390850190610f79565b8096505050505050509295509295509295565b60008060408385031215610fb857600080fd5b50508035926020909101359150565b600060408284031215610fd957600080fd5b82601f830112610fe857600080fd5b610ff0610de4565b80604084018581111561100257600080fd5b845b81811015610e83578051845260209384019301611004565b634e487b7160e01b600052603260045260246000fd5b60006020828403121561104457600080fd5b81518015158114610eaa57600080fd5b634e487b7160e01b600052601160045260246000fd5b600060ff821660ff810361108057611080611054565b60010192915050565b60008282101561109b5761109b611054565b500390565b600082198211156110b3576110b3611054565b500190565b6000826110d557634e487b7160e01b600052601260045260246000fd5b500490565b60008160001904831182151516156110f4576110f4611054565b500290565b60006001820161110b5761110b611054565b5060010190565b8060005b600281101561056d578151845260209384019390910190600101611116565b600081518084526020808501945080840160005b8381101561116557815187529582019590820190600101611149565b509495945050505050565b600081518084526020808501945080840160005b8381101561116557611197878351611112565b6040969096019590820190600101611184565b60c08152600086518060c084015260005b818110156111d8576020818a0181015160e08684010152016111bb565b818111156111ea57600060e083860101525b5060208301879052601f01601f191682016112086040840187611112565b60e083820301608084015261122060e0820186611135565b905082810360a08401526112348185611170565b98975050505050505050565b600060ff821660ff84168060ff0382111561125d5761125d611054565b019392505050565b8581526000602086818401526040868185015260ff60f81b8660f81b16606085015260618401856000805b60038110156112ce57825184835b60028110156112bb5782518252918801919088019060010161129e565b5050509284019291850191600101611290565b50505050505061012182019050969550505050505056fea26469706673582212201c354fbceee137e1c34139d2bf4a74777b4def18f14a99f8266ef5b7f0178dae64736f6c634300080d0033",
  "language": "Solidity",
  "natspec": {
    "kind": "dev",
    "methods": {},
    "version": 1
  },
  "opcodes": "PUSH1 0x80 PUSH1 0x40 MSTORE PUSH1 0x4 CALLDATASIZE LT PUSH2 0x55 JUMPI PUSH1 0x0 CALLDATALOAD PUSH1 0xE0 SHR DUP1 PUSH4 0x10837EEC EQ PUSH2 0x5A JUMPI DUP1 PUSH4 0x143AD356 EQ PUSH2 0x90 JUMPI DUP1 PUSH4 0x62230498 EQ PUSH2 0xA5 JUMPI DUP1 PUSH4 0x6381D19E EQ PUSH2 0xC5 JUMPI DUP1 PUSH4 0x6A6DCD42 EQ PUSH2 0x14C JUMPI DUP1 PUSH4 0x9F1961E6 EQ PUSH2 0x16C JUMPI JUMPDEST PUSH1 0x0 DUP1 REVERT JUMPDEST CALLVALUE DUP1 ISZERO PUSH2 0x66 JUMPI PUSH1 0x0 DUP1 REVERT JUMPDEST POP PUSH2 0x7A PUSH2 0x75 CALLDATASIZE PUSH1 0x4 PUSH2 0xD84 JUMP JUMPDEST PUSH2 0x19A JUMP JUMPDEST PUSH1 0x40 MLOAD PUSH2 0x87 SWAP2 SWAP1 PUSH2 0xD9D JUMP JUMPDEST PUSH1 0x40 MLOAD DUP1 SWAP2 SUB SWAP1 RETURN JUMPDEST PUSH2 0xA3 PUSH2 0x9E CALLDATASIZE PUSH1 0x4 PUSH2 0xE8E JUMP JUMPDEST PUSH2 0x2E1 JUMP JUMPDEST STOP JUMPDEST CALLVALUE DUP1 ISZERO PUSH2 0xB1 JUMPI PUSH1 0x0 DUP1 REVERT JUMPDEST POP PUSH2 0xA3 PUSH2 0xC0 CALLDATASIZE PUSH1 0x4 PUSH2 0xEB1 JUMP JUMPDEST PUSH2 0x573 JUMP JUMPDEST CALLVALUE DUP1 ISZERO PUSH2 0xD1 JUMPI PUSH1 0x0 DUP1 REVERT JUMPDEST POP PUSH2 0x11E PUSH2 0xE0 CALLDATASIZE PUSH1 0x4 PUSH2 0xFA5 JUMP JUMPDEST PUSH1 0xB PUSH1 0x20 SWAP1 DUP2 MSTORE PUSH1 0x0 SWAP3 DUP4 MSTORE PUSH1 0x40 DUP1 DUP5 KECCAK256 SWAP1 SWAP2 MSTORE SWAP1 DUP3 MSTORE SWAP1 KECCAK256 DUP1 SLOAD PUSH1 0x1 DUP3 ADD SLOAD PUSH1 0x2 DUP4 ADD SLOAD PUSH1 0x3 SWAP1 SWAP4 ADD SLOAD SWAP2 SWAP3 SWAP1 SWAP2 PUSH1 0xFF DUP1 DUP3 AND SWAP2 PUSH2 0x100 SWAP1 DIV AND DUP6 JUMP JUMPDEST PUSH1 0x40 DUP1 MLOAD SWAP6 DUP7 MSTORE PUSH1 0x20 DUP7 ADD SWAP5 SWAP1 SWAP5 MSTORE SWAP3 DUP5 ADD SWAP2 SWAP1 SWAP2 MSTORE PUSH1 0xFF SWAP1 DUP2 AND PUSH1 0x60 DUP5 ADD MSTORE AND PUSH1 0x80 DUP3 ADD MSTORE PUSH1 0xA0 ADD PUSH2 0x87 JUMP JUMPDEST CALLVALUE DUP1 ISZERO PUSH2 0x158 JUMPI PUSH1 0x0 DUP1 REVERT JUMPDEST POP PUSH2 0xA3 PUSH2 0x167 CALLDATASIZE PUSH1 0x4 PUSH2 0xFA5 JUMP JUMPDEST PUSH2 0x95F JUMP JUMPDEST CALLVALUE DUP1 ISZERO PUSH2 0x178 JUMPI PUSH1 0x0 DUP1 REVERT JUMPDEST POP PUSH2 0x18C PUSH2 0x187 CALLDATASIZE PUSH1 0x4 PUSH2 0xFA5 JUMP JUMPDEST PUSH2 0xABF JUMP JUMPDEST PUSH1 0x40 MLOAD SWAP1 DUP2 MSTORE PUSH1 0x20 ADD PUSH2 0x87 JUMP JUMPDEST PUSH2 0x1A2 PUSH2 0xCE6 JUMP JUMPDEST PUSH1 0x40 MLOAD PUSH4 0x8B86E63 PUSH1 0xE3 SHL DUP2 MSTORE PUSH1 0x4 DUP2 ADD DUP4 SWAP1 MSTORE PUSH20 0x0 SWAP1 PUSH4 0x45C37318 SWAP1 PUSH1 0x24 ADD PUSH1 0x40 DUP1 MLOAD DUP1 DUP4 SUB DUP2 DUP7 GAS DELEGATECALL ISZERO DUP1 ISZERO PUSH2 0x1F1 JUMPI RETURNDATASIZE PUSH1 0x0 DUP1 RETURNDATACOPY RETURNDATASIZE PUSH1 0x0 REVERT JUMPDEST POP POP POP POP PUSH1 0x40 MLOAD RETURNDATASIZE PUSH1 0x1F NOT PUSH1 0x1F DUP3 ADD AND DUP3 ADD DUP1 PUSH1 0x40 MSTORE POP DUP2 ADD SWAP1 PUSH2 0x215 SWAP2 SWAP1 PUSH2 0xFC7 JUMP JUMPDEST DUP1 MLOAD PUSH1 0x20 DUP3 ADD MLOAD PUSH1 0x40 MLOAD PUSH4 0xCD3B289 PUSH1 0xE3 SHL DUP2 MSTORE PUSH1 0x4 DUP2 ADD SWAP3 SWAP1 SWAP3 MSTORE PUSH1 0x24 DUP3 ADD MSTORE SWAP1 SWAP2 POP PUSH20 0x0 SWAP1 PUSH4 0x669D9448 SWAP1 PUSH1 0x44 ADD PUSH1 0x20 PUSH1 0x40 MLOAD DUP1 DUP4 SUB DUP2 DUP7 GAS DELEGATECALL ISZERO DUP1 ISZERO PUSH2 0x275 JUMPI RETURNDATASIZE PUSH1 0x0 DUP1 RETURNDATACOPY RETURNDATASIZE PUSH1 0x0 REVERT JUMPDEST POP POP POP POP PUSH1 0x40 MLOAD RETURNDATASIZE PUSH1 0x1F NOT PUSH1 0x1F DUP3 ADD AND DUP3 ADD DUP1 PUSH1 0x40 MSTORE POP DUP2 ADD SWAP1 PUSH2 0x299 SWAP2 SWAP1 PUSH2 0x1032 JUMP JUMPDEST PUSH2 0x2DC JUMPI PUSH1 0x40 MLOAD PUSH3 0x461BCD PUSH1 0xE5 SHL DUP2 MSTORE PUSH1 0x20 PUSH1 0x4 DUP3 ADD MSTORE PUSH1 0xF PUSH1 0x24 DUP3 ADD MSTORE PUSH15 0x504B5F4E4F545F4F4E5F4355525645 PUSH1 0x88 SHL PUSH1 0x44 DUP3 ADD MSTORE PUSH1 0x64 ADD JUMPDEST PUSH1 0x40 MLOAD DUP1 SWAP2 SUB SWAP1 REVERT JUMPDEST SWAP2 SWAP1 POP JUMP JUMPDEST PUSH1 0x0 PUSH2 0x2EC CALLVALUE PUSH2 0xAFD JUMP JUMPDEST PUSH1 0x0 DUP2 DUP2 MSTORE PUSH1 0xA PUSH1 0x20 SWAP1 DUP2 MSTORE PUSH1 0x40 DUP1 DUP4 KECCAK256 SLOAD PUSH1 0xB DUP4 MSTORE DUP2 DUP5 KECCAK256 DUP2 DUP6 MSTORE DUP4 MSTORE SWAP3 DUP2 SWAP1 KECCAK256 DUP7 MLOAD SWAP3 DUP8 ADD MLOAD SWAP2 MLOAD PUSH4 0xCD3B289 PUSH1 0xE3 SHL DUP2 MSTORE PUSH1 0x4 DUP2 ADD SWAP4 SWAP1 SWAP4 MSTORE PUSH1 0x24 DUP4 ADD SWAP2 SWAP1 SWAP2 MSTORE SWAP3 SWAP4 POP SWAP1 SWAP2 SWAP1 PUSH20 0x0 SWAP1 PUSH4 0x669D9448 SWAP1 PUSH1 0x44 ADD PUSH1 0x20 PUSH1 0x40 MLOAD DUP1 DUP4 SUB DUP2 DUP7 GAS DELEGATECALL ISZERO DUP1 ISZERO PUSH2 0x372 JUMPI RETURNDATASIZE PUSH1 0x0 DUP1 RETURNDATACOPY RETURNDATASIZE PUSH1 0x0 REVERT JUMPDEST POP POP POP POP PUSH1 0x40 MLOAD RETURNDATASIZE PUSH1 0x1F NOT PUSH1 0x1F DUP3 ADD AND DUP3 ADD DUP1 PUSH1 0x40 MSTORE POP DUP2 ADD SWAP1 PUSH2 0x396 SWAP2 SWAP1 PUSH2 0x1032 JUMP JUMPDEST PUSH2 0x3DB JUMPI PUSH1 0x40 MLOAD PUSH3 0x461BCD PUSH1 0xE5 SHL DUP2 MSTORE PUSH1 0x20 PUSH1 0x4 DUP3 ADD MSTORE PUSH1 0x16 PUSH1 0x24 DUP3 ADD MSTORE PUSH22 0x5075626C6963204B6579206E6F206F6E204375727665 PUSH1 0x50 SHL PUSH1 0x44 DUP3 ADD MSTORE PUSH1 0x64 ADD PUSH2 0x2D3 JUMP JUMPDEST PUSH1 0x0 JUMPDEST PUSH1 0x3 DUP3 ADD SLOAD PUSH1 0xFF SWAP1 DUP2 AND SWAP1 DUP3 AND LT ISZERO PUSH2 0x490 JUMPI DUP5 MLOAD PUSH1 0xFF DUP3 AND PUSH1 0x0 SWAP1 DUP2 MSTORE PUSH1 0x4 DUP5 ADD PUSH1 0x20 MSTORE PUSH1 0x40 SWAP1 KECCAK256 SLOAD EQ DUP1 ISZERO PUSH2 0x431 JUMPI POP PUSH1 0x20 DUP1 DUP7 ADD MLOAD PUSH1 0xFF DUP4 AND PUSH1 0x0 SWAP1 DUP2 MSTORE PUSH1 0x4 DUP6 ADD SWAP1 SWAP3 MSTORE PUSH1 0x40 SWAP1 SWAP2 KECCAK256 PUSH1 0x1 ADD SLOAD EQ JUMPDEST ISZERO PUSH2 0x47E JUMPI PUSH1 0x40 MLOAD PUSH3 0x461BCD PUSH1 0xE5 SHL DUP2 MSTORE PUSH1 0x20 PUSH1 0x4 DUP3 ADD MSTORE PUSH1 0x1F PUSH1 0x24 DUP3 ADD MSTORE PUSH32 0x4164647265737320616C726561647920696E2063757272656E742052696E6700 PUSH1 0x44 DUP3 ADD MSTORE PUSH1 0x64 ADD PUSH2 0x2D3 JUMP JUMPDEST DUP1 PUSH2 0x488 DUP2 PUSH2 0x106A JUMP JUMPDEST SWAP2 POP POP PUSH2 0x3DE JUMP JUMPDEST POP PUSH1 0x3 DUP2 ADD SLOAD PUSH1 0xFF AND PUSH1 0x0 SUB PUSH2 0x4AE JUMPI PUSH2 0x4AB PUSH1 0x1 NUMBER PUSH2 0x1089 JUMP JUMPDEST DUP2 SSTORE JUMPDEST PUSH1 0x3 DUP2 ADD SLOAD PUSH1 0xFF AND PUSH1 0x0 SWAP1 DUP2 MSTORE PUSH1 0x4 DUP3 ADD PUSH1 0x20 MSTORE PUSH1 0x40 SWAP1 KECCAK256 PUSH2 0x4D2 SWAP1 DUP6 PUSH1 0x2 PUSH2 0xD04 JUMP JUMPDEST POP PUSH1 0x3 DUP2 ADD DUP1 SLOAD PUSH1 0xFF AND SWAP1 PUSH1 0x0 PUSH2 0x4E8 DUP4 PUSH2 0x106A JUMP JUMPDEST SWAP2 SWAP1 PUSH2 0x100 EXP DUP2 SLOAD DUP2 PUSH1 0xFF MUL NOT AND SWAP1 DUP4 PUSH1 0xFF AND MUL OR SWAP1 SSTORE POP POP DUP3 DUP2 PUSH1 0x1 ADD PUSH1 0x0 DUP3 DUP3 SLOAD PUSH2 0x515 SWAP2 SWAP1 PUSH2 0x10A0 JUMP JUMPDEST SWAP1 SWAP2 SSTORE POP POP PUSH1 0x3 DUP2 DUP2 ADD SLOAD PUSH1 0xFF AND LT PUSH2 0x56D JUMPI PUSH2 0x543 PUSH2 0x53D PUSH8 0xDE0B6B3A7640000 DUP6 PUSH2 0x10B8 JUMP JUMPDEST DUP4 PUSH2 0xBDC JUMP JUMPDEST PUSH1 0x2 DUP3 ADD SSTORE PUSH1 0x0 DUP4 DUP2 MSTORE PUSH1 0xA PUSH1 0x20 MSTORE PUSH1 0x40 DUP2 KECCAK256 DUP1 SLOAD PUSH1 0x1 SWAP3 SWAP1 PUSH2 0x567 SWAP1 DUP5 SWAP1 PUSH2 0x10A0 JUMP JUMPDEST SWAP1 SWAP2 SSTORE POP POP JUMPDEST POP POP POP POP JUMP JUMPDEST PUSH1 0x0 DUP1 GAS SWAP1 POP PUSH1 0x0 PUSH2 0x595 PUSH2 0x590 DUP10 PUSH8 0xDE0B6B3A7640000 PUSH2 0x10DA JUMP JUMPDEST PUSH2 0xAFD JUMP JUMPDEST PUSH1 0x0 DUP2 DUP2 MSTORE PUSH1 0xB PUSH1 0x20 SWAP1 DUP2 MSTORE PUSH1 0x40 DUP1 DUP4 KECCAK256 DUP12 DUP5 MSTORE SWAP1 SWAP2 MSTORE SWAP1 KECCAK256 PUSH1 0x3 DUP1 DUP3 ADD SLOAD SWAP3 SWAP4 POP SWAP1 SWAP2 PUSH2 0x100 SWAP1 DIV PUSH1 0xFF AND LT PUSH2 0x625 JUMPI PUSH1 0x40 MLOAD PUSH3 0x461BCD PUSH1 0xE5 SHL DUP2 MSTORE PUSH1 0x20 PUSH1 0x4 DUP3 ADD MSTORE PUSH1 0x2E PUSH1 0x24 DUP3 ADD MSTORE PUSH32 0x416C6C2066756E64732066726F6D2063757272656E742052696E672068617320 PUSH1 0x44 DUP3 ADD MSTORE PUSH14 0x3132B2B7103BB4BA34323930BBB7 PUSH1 0x91 SHL PUSH1 0x64 DUP3 ADD MSTORE PUSH1 0x84 ADD PUSH2 0x2D3 JUMP JUMPDEST PUSH1 0x2 DUP2 ADD SLOAD PUSH2 0x66A JUMPI PUSH1 0x40 MLOAD PUSH3 0x461BCD PUSH1 0xE5 SHL DUP2 MSTORE PUSH1 0x20 PUSH1 0x4 DUP3 ADD MSTORE PUSH1 0x11 PUSH1 0x24 DUP3 ADD MSTORE PUSH17 0x149A5B99C81A5CDB89DD0818DB1BDCD959 PUSH1 0x7A SHL PUSH1 0x44 DUP3 ADD MSTORE PUSH1 0x64 ADD PUSH2 0x2D3 JUMP JUMPDEST PUSH1 0x40 DUP1 MLOAD PUSH1 0x3 DUP1 DUP3 MSTORE PUSH1 0x80 DUP3 ADD SWAP1 SWAP3 MSTORE PUSH1 0x0 SWAP2 DUP2 PUSH1 0x20 ADD JUMPDEST PUSH2 0x68A PUSH2 0xCE6 JUMP JUMPDEST DUP2 MSTORE PUSH1 0x20 ADD SWAP1 PUSH1 0x1 SWAP1 SUB SWAP1 DUP2 PUSH2 0x682 JUMPI SWAP1 POP POP SWAP1 POP PUSH1 0x0 SWAP5 POP JUMPDEST PUSH1 0x3 DUP6 LT ISZERO PUSH2 0x712 JUMPI PUSH1 0x40 DUP1 MLOAD DUP1 DUP3 ADD DUP3 MSTORE PUSH1 0xFF DUP8 AND PUSH1 0x0 DUP2 DUP2 MSTORE PUSH1 0x4 DUP7 ADD PUSH1 0x20 DUP2 DUP2 MSTORE SWAP5 DUP3 KECCAK256 DUP1 SLOAD DUP6 MSTORE SWAP3 SWAP1 SWAP2 MSTORE DUP4 MSTORE PUSH1 0x1 ADD SLOAD SWAP2 DUP2 ADD SWAP2 SWAP1 SWAP2 MSTORE DUP2 MLOAD DUP3 SWAP1 DUP8 SWAP1 DUP2 LT PUSH2 0x6F4 JUMPI PUSH2 0x6F4 PUSH2 0x101C JUMP JUMPDEST PUSH1 0x20 MUL PUSH1 0x20 ADD ADD DUP2 SWAP1 MSTORE POP DUP5 DUP1 PUSH2 0x70A SWAP1 PUSH2 0x10F9 JUMP JUMPDEST SWAP6 POP POP PUSH2 0x6A4 JUMP JUMPDEST PUSH1 0x0 PUSH20 0x0 PUSH4 0xFE46A2B2 DUP5 PUSH1 0x2 ADD SLOAD PUSH1 0x40 MLOAD PUSH1 0x20 ADD PUSH2 0x745 SWAP2 DUP2 MSTORE PUSH1 0x20 ADD SWAP1 JUMP JUMPDEST PUSH1 0x40 MLOAD PUSH1 0x20 DUP2 DUP4 SUB SUB DUP2 MSTORE SWAP1 PUSH1 0x40 MSTORE DUP12 DUP12 DUP12 DUP8 PUSH1 0x40 MLOAD DUP7 PUSH4 0xFFFFFFFF AND PUSH1 0xE0 SHL DUP2 MSTORE PUSH1 0x4 ADD PUSH2 0x778 SWAP6 SWAP5 SWAP4 SWAP3 SWAP2 SWAP1 PUSH2 0x11AA JUMP JUMPDEST PUSH1 0x20 PUSH1 0x40 MLOAD DUP1 DUP4 SUB DUP2 DUP7 GAS DELEGATECALL ISZERO DUP1 ISZERO PUSH2 0x795 JUMPI RETURNDATASIZE PUSH1 0x0 DUP1 RETURNDATACOPY RETURNDATASIZE PUSH1 0x0 REVERT JUMPDEST POP POP POP POP PUSH1 0x40 MLOAD RETURNDATASIZE PUSH1 0x1F NOT PUSH1 0x1F DUP3 ADD AND DUP3 ADD DUP1 PUSH1 0x40 MSTORE POP DUP2 ADD SWAP1 PUSH2 0x7B9 SWAP2 SWAP1 PUSH2 0x1032 JUMP JUMPDEST SWAP1 POP DUP1 PUSH2 0x7FC JUMPI PUSH1 0x40 MLOAD PUSH3 0x461BCD PUSH1 0xE5 SHL DUP2 MSTORE PUSH1 0x20 PUSH1 0x4 DUP3 ADD MSTORE PUSH1 0x11 PUSH1 0x24 DUP3 ADD MSTORE PUSH17 0x496E76616C6964207369676E6174757265 PUSH1 0x78 SHL PUSH1 0x44 DUP3 ADD MSTORE PUSH1 0x64 ADD PUSH2 0x2D3 JUMP JUMPDEST PUSH1 0x0 SWAP6 POP JUMPDEST PUSH1 0x3 DUP4 ADD SLOAD PUSH2 0x100 SWAP1 DIV PUSH1 0xFF AND DUP7 LT ISZERO PUSH2 0x8B4 JUMPI DUP8 MLOAD PUSH1 0xFF DUP8 AND PUSH1 0x0 SWAP1 DUP2 MSTORE PUSH1 0x5 DUP6 ADD PUSH1 0x20 MSTORE PUSH1 0x40 SWAP1 KECCAK256 SLOAD EQ DUP1 ISZERO PUSH2 0x855 JUMPI POP PUSH1 0x20 DUP1 DUP10 ADD MLOAD PUSH1 0xFF DUP9 AND PUSH1 0x0 SWAP1 DUP2 MSTORE PUSH1 0x5 DUP7 ADD SWAP1 SWAP3 MSTORE PUSH1 0x40 SWAP1 SWAP2 KECCAK256 PUSH1 0x1 ADD SLOAD EQ JUMPDEST ISZERO PUSH2 0x8A2 JUMPI PUSH1 0x40 MLOAD PUSH3 0x461BCD PUSH1 0xE5 SHL DUP2 MSTORE PUSH1 0x20 PUSH1 0x4 DUP3 ADD MSTORE PUSH1 0x18 PUSH1 0x24 DUP3 ADD MSTORE PUSH32 0x5369676E617475726520686173206265656E2075736564210000000000000000 PUSH1 0x44 DUP3 ADD MSTORE PUSH1 0x64 ADD PUSH2 0x2D3 JUMP JUMPDEST DUP6 PUSH2 0x8AC DUP2 PUSH2 0x10F9 JUMP JUMPDEST SWAP7 POP POP PUSH2 0x801 JUMP JUMPDEST PUSH1 0x3 DUP4 ADD SLOAD PUSH2 0x100 SWAP1 DIV PUSH1 0xFF AND PUSH1 0x0 SWAP1 DUP2 MSTORE PUSH1 0x5 DUP5 ADD PUSH1 0x20 MSTORE PUSH1 0x40 SWAP1 KECCAK256 PUSH2 0x8DD SWAP1 DUP10 PUSH1 0x2 PUSH2 0xD04 JUMP JUMPDEST POP PUSH1 0x1 DUP4 PUSH1 0x3 ADD PUSH1 0x1 DUP3 DUP3 DUP3 SWAP1 SLOAD SWAP1 PUSH2 0x100 EXP SWAP1 DIV PUSH1 0xFF AND PUSH2 0x8FF SWAP2 SWAP1 PUSH2 0x1240 JUMP JUMPDEST SWAP3 POP PUSH2 0x100 EXP DUP2 SLOAD DUP2 PUSH1 0xFF MUL NOT AND SWAP1 DUP4 PUSH1 0xFF AND MUL OR SWAP1 SSTORE POP DUP12 PUSH1 0x1 PUSH1 0x1 PUSH1 0xA0 SHL SUB AND PUSH2 0x8FC DUP6 SWAP1 DUP2 ISZERO MUL SWAP1 PUSH1 0x40 MLOAD PUSH1 0x0 PUSH1 0x40 MLOAD DUP1 DUP4 SUB DUP2 DUP6 DUP9 DUP9 CALL SWAP4 POP POP POP POP ISZERO DUP1 ISZERO PUSH2 0x950 JUMPI RETURNDATASIZE PUSH1 0x0 DUP1 RETURNDATACOPY RETURNDATASIZE PUSH1 0x0 REVERT JUMPDEST POP POP POP POP POP POP POP POP POP POP POP POP POP JUMP JUMPDEST PUSH1 0x0 PUSH2 0x976 PUSH2 0x590 DUP5 PUSH8 0xDE0B6B3A7640000 PUSH2 0x10DA JUMP JUMPDEST PUSH1 0x0 DUP2 DUP2 MSTORE PUSH1 0xA PUSH1 0x20 SWAP1 DUP2 MSTORE PUSH1 0x40 DUP1 DUP4 KECCAK256 SLOAD PUSH1 0xB DUP4 MSTORE DUP2 DUP5 KECCAK256 DUP2 DUP6 MSTORE SWAP1 SWAP3 MSTORE SWAP1 SWAP2 KECCAK256 PUSH1 0x2 DUP2 ADD SLOAD SWAP3 SWAP4 POP SWAP1 SWAP2 ISZERO PUSH2 0x9EF JUMPI PUSH1 0x40 MLOAD PUSH3 0x461BCD PUSH1 0xE5 SHL DUP2 MSTORE PUSH1 0x20 PUSH1 0x4 DUP3 ADD MSTORE PUSH1 0x17 PUSH1 0x24 DUP3 ADD MSTORE PUSH32 0x52696E6720697320616C726561647920636C6F73656421000000000000000000 PUSH1 0x44 DUP3 ADD MSTORE PUSH1 0x64 ADD PUSH2 0x2D3 JUMP JUMPDEST DUP1 SLOAD PUSH1 0x0 SWAP1 PUSH2 0x9FF PUSH1 0x1 NUMBER PUSH2 0x1089 JUMP JUMPDEST PUSH2 0xA09 SWAP2 SWAP1 PUSH2 0x1089 JUMP JUMPDEST LT PUSH2 0xA74 JUMPI PUSH1 0x40 MLOAD PUSH3 0x461BCD PUSH1 0xE5 SHL DUP2 MSTORE PUSH1 0x20 PUSH1 0x4 DUP3 ADD MSTORE PUSH1 0x35 PUSH1 0x24 DUP3 ADD MSTORE PUSH32 0x52696E67206E6565647320746F206D6174757265206C6F6E676572206265666F PUSH1 0x44 DUP3 ADD MSTORE PUSH21 0x726520666F72636566756C6C7920636C6F73696E67 PUSH1 0x58 SHL PUSH1 0x64 DUP3 ADD MSTORE PUSH1 0x84 ADD PUSH2 0x2D3 JUMP JUMPDEST PUSH2 0xA8F PUSH2 0xA89 PUSH8 0xDE0B6B3A7640000 DUP6 PUSH2 0x10B8 JUMP JUMPDEST DUP6 PUSH2 0xBDC JUMP JUMPDEST PUSH1 0x2 DUP3 ADD SSTORE PUSH1 0x0 DUP4 DUP2 MSTORE PUSH1 0xA PUSH1 0x20 MSTORE PUSH1 0x40 DUP2 KECCAK256 DUP1 SLOAD PUSH1 0x1 SWAP3 SWAP1 PUSH2 0xAB3 SWAP1 DUP5 SWAP1 PUSH2 0x10A0 JUMP JUMPDEST SWAP1 SWAP2 SSTORE POP POP POP POP POP POP POP JUMP JUMPDEST PUSH1 0x0 DUP1 PUSH2 0xAD7 PUSH2 0x590 DUP6 PUSH8 0xDE0B6B3A7640000 PUSH2 0x10DA JUMP JUMPDEST PUSH1 0x0 SWAP1 DUP2 MSTORE PUSH1 0xB PUSH1 0x20 SWAP1 DUP2 MSTORE PUSH1 0x40 DUP1 DUP4 KECCAK256 DUP7 DUP5 MSTORE SWAP1 SWAP2 MSTORE SWAP1 KECCAK256 PUSH1 0x2 ADD SLOAD SWAP2 POP POP SWAP3 SWAP2 POP POP JUMP JUMPDEST PUSH1 0x0 DUP1 DUP1 DUP1 PUSH2 0xB14 PUSH8 0xDE0B6B3A7640000 DUP7 PUSH2 0x10B8 JUMP JUMPDEST PUSH2 0xB26 SWAP1 PUSH8 0xDE0B6B3A7640000 PUSH2 0x10DA JUMP JUMPDEST SWAP1 POP PUSH1 0x0 SWAP3 POP JUMPDEST PUSH1 0xA DUP4 LT ISZERO PUSH2 0xB6D JUMPI DUP1 PUSH1 0x0 DUP5 PUSH1 0xA DUP2 LT PUSH2 0xB4A JUMPI PUSH2 0xB4A PUSH2 0x101C JUMP JUMPDEST ADD SLOAD SUB PUSH2 0xB56 JUMPI PUSH1 0x1 SWAP2 POP JUMPDEST DUP2 PUSH2 0xB6D JUMPI DUP3 PUSH2 0xB65 DUP2 PUSH2 0x10F9 JUMP JUMPDEST SWAP4 POP POP PUSH2 0xB2D JUMP JUMPDEST DUP2 PUSH2 0xBD4 JUMPI PUSH1 0x40 MLOAD PUSH3 0x461BCD PUSH1 0xE5 SHL DUP2 MSTORE PUSH1 0x20 PUSH1 0x4 DUP3 ADD MSTORE PUSH1 0x31 PUSH1 0x24 DUP3 ADD MSTORE PUSH32 0x4F6E6C79204554482076616C756573206F6620322C20342C20362C2038202E2E PUSH1 0x44 DUP3 ADD MSTORE PUSH17 0xB880D4C4C88185C9948185B1B1BDDD959 PUSH1 0x7A SHL PUSH1 0x64 DUP3 ADD MSTORE PUSH1 0x84 ADD PUSH2 0x2D3 JUMP JUMPDEST SWAP5 SWAP4 POP POP POP POP JUMP JUMPDEST PUSH1 0x0 PUSH2 0xBE6 PUSH2 0xD42 JUMP JUMPDEST PUSH1 0x0 PUSH2 0xBFD PUSH2 0x590 DUP7 PUSH8 0xDE0B6B3A7640000 PUSH2 0x10DA JUMP JUMPDEST PUSH1 0x0 DUP2 DUP2 MSTORE PUSH1 0xB PUSH1 0x20 SWAP1 DUP2 MSTORE PUSH1 0x40 DUP1 DUP4 KECCAK256 DUP9 DUP5 MSTORE SWAP1 SWAP2 MSTORE DUP2 KECCAK256 SWAP2 SWAP3 POP JUMPDEST PUSH1 0x3 DUP2 PUSH1 0xFF AND LT ISZERO PUSH2 0xC90 JUMPI PUSH1 0xFF DUP2 AND PUSH1 0x0 SWAP1 DUP2 MSTORE PUSH1 0x4 DUP4 ADD PUSH1 0x20 MSTORE PUSH1 0x40 SWAP1 DUP2 SWAP1 KECCAK256 DUP2 MLOAD DUP1 DUP4 ADD SWAP3 DUP4 SWAP1 MSTORE SWAP2 PUSH1 0x2 SWAP1 DUP3 DUP5 JUMPDEST DUP2 SLOAD DUP2 MSTORE PUSH1 0x20 ADD SWAP1 PUSH1 0x1 ADD SWAP1 DUP1 DUP4 GT PUSH2 0xC4C JUMPI POP POP POP POP POP DUP5 DUP3 PUSH1 0xFF AND PUSH1 0x3 DUP2 LT PUSH2 0xC79 JUMPI PUSH2 0xC79 PUSH2 0x101C JUMP JUMPDEST PUSH1 0x20 MUL ADD MSTORE DUP1 PUSH2 0xC88 DUP2 PUSH2 0x106A JUMP JUMPDEST SWAP2 POP POP PUSH2 0xC1A JUMP JUMPDEST POP PUSH1 0x0 PUSH2 0xC9E PUSH1 0x1 NUMBER PUSH2 0x1089 JUMP JUMPDEST DUP3 SLOAD PUSH1 0x1 DUP5 ADD SLOAD PUSH1 0x3 DUP6 ADD SLOAD PUSH1 0x40 MLOAD PUSH2 0xCC3 SWAP5 BLOCKHASH SWAP4 SWAP3 SWAP2 PUSH1 0xFF AND SWAP1 DUP10 SWAP1 PUSH1 0x20 ADD PUSH2 0x1265 JUMP JUMPDEST PUSH1 0x40 DUP1 MLOAD DUP1 DUP4 SUB PUSH1 0x1F NOT ADD DUP2 MSTORE SWAP2 SWAP1 MSTORE DUP1 MLOAD PUSH1 0x20 SWAP1 SWAP2 ADD KECCAK256 SWAP8 SWAP7 POP POP POP POP POP POP POP JUMP JUMPDEST PUSH1 0x40 MLOAD DUP1 PUSH1 0x40 ADD PUSH1 0x40 MSTORE DUP1 PUSH1 0x2 SWAP1 PUSH1 0x20 DUP3 MUL DUP1 CALLDATASIZE DUP4 CALLDATACOPY POP SWAP2 SWAP3 SWAP2 POP POP JUMP JUMPDEST DUP3 PUSH1 0x2 DUP2 ADD SWAP3 DUP3 ISZERO PUSH2 0xD32 JUMPI SWAP2 PUSH1 0x20 MUL DUP3 ADD JUMPDEST DUP3 DUP2 GT ISZERO PUSH2 0xD32 JUMPI DUP3 MLOAD DUP3 SSTORE SWAP2 PUSH1 0x20 ADD SWAP2 SWAP1 PUSH1 0x1 ADD SWAP1 PUSH2 0xD17 JUMP JUMPDEST POP PUSH2 0xD3E SWAP3 SWAP2 POP PUSH2 0xD6F JUMP JUMPDEST POP SWAP1 JUMP JUMPDEST PUSH1 0x40 MLOAD DUP1 PUSH1 0x60 ADD PUSH1 0x40 MSTORE DUP1 PUSH1 0x3 SWAP1 JUMPDEST PUSH2 0xD59 PUSH2 0xCE6 JUMP JUMPDEST DUP2 MSTORE PUSH1 0x20 ADD SWAP1 PUSH1 0x1 SWAP1 SUB SWAP1 DUP2 PUSH2 0xD51 JUMPI SWAP1 POP POP SWAP1 JUMP JUMPDEST JUMPDEST DUP1 DUP3 GT ISZERO PUSH2 0xD3E JUMPI PUSH1 0x0 DUP2 SSTORE PUSH1 0x1 ADD PUSH2 0xD70 JUMP JUMPDEST PUSH1 0x0 PUSH1 0x20 DUP3 DUP5 SUB SLT ISZERO PUSH2 0xD96 JUMPI PUSH1 0x0 DUP1 REVERT JUMPDEST POP CALLDATALOAD SWAP2 SWAP1 POP JUMP JUMPDEST PUSH1 0x40 DUP2 ADD DUP2 DUP4 PUSH1 0x0 JUMPDEST PUSH1 0x2 DUP2 LT ISZERO PUSH2 0xDC5 JUMPI DUP2 MLOAD DUP4 MSTORE PUSH1 0x20 SWAP3 DUP4 ADD SWAP3 SWAP1 SWAP2 ADD SWAP1 PUSH1 0x1 ADD PUSH2 0xDA6 JUMP JUMPDEST POP POP POP SWAP3 SWAP2 POP POP JUMP JUMPDEST PUSH4 0x4E487B71 PUSH1 0xE0 SHL PUSH1 0x0 MSTORE PUSH1 0x41 PUSH1 0x4 MSTORE PUSH1 0x24 PUSH1 0x0 REVERT JUMPDEST PUSH1 0x40 DUP1 MLOAD SWAP1 DUP2 ADD PUSH8 0xFFFFFFFFFFFFFFFF DUP2 GT DUP3 DUP3 LT OR ISZERO PUSH2 0xE07 JUMPI PUSH2 0xE07 PUSH2 0xDCE JUMP JUMPDEST PUSH1 0x40 MSTORE SWAP1 JUMP JUMPDEST PUSH1 0x40 MLOAD PUSH1 0x1F DUP3 ADD PUSH1 0x1F NOT AND DUP2 ADD PUSH8 0xFFFFFFFFFFFFFFFF DUP2 GT DUP3 DUP3 LT OR ISZERO PUSH2 0xE36 JUMPI PUSH2 0xE36 PUSH2 0xDCE JUMP JUMPDEST PUSH1 0x40 MSTORE SWAP2 SWAP1 POP JUMP JUMPDEST PUSH1 0x0 DUP3 PUSH1 0x1F DUP4 ADD SLT PUSH2 0xE4F JUMPI PUSH1 0x0 DUP1 REVERT JUMPDEST PUSH2 0xE57 PUSH2 0xDE4 JUMP JUMPDEST DUP1 PUSH1 0x40 DUP5 ADD DUP6 DUP2 GT ISZERO PUSH2 0xE69 JUMPI PUSH1 0x0 DUP1 REVERT JUMPDEST DUP5 JUMPDEST DUP2 DUP2 LT ISZERO PUSH2 0xE83 JUMPI DUP1 CALLDATALOAD DUP5 MSTORE PUSH1 0x20 SWAP4 DUP5 ADD SWAP4 ADD PUSH2 0xE6B JUMP JUMPDEST POP SWAP1 SWAP6 SWAP5 POP POP POP POP POP JUMP JUMPDEST PUSH1 0x0 PUSH1 0x40 DUP3 DUP5 SUB SLT ISZERO PUSH2 0xEA0 JUMPI PUSH1 0x0 DUP1 REVERT JUMPDEST PUSH2 0xEAA DUP4 DUP4 PUSH2 0xE3E JUMP JUMPDEST SWAP4 SWAP3 POP POP POP JUMP JUMPDEST PUSH1 0x0 DUP1 PUSH1 0x0 DUP1 PUSH1 0x0 DUP1 PUSH1 0xE0 DUP8 DUP10 SUB SLT ISZERO PUSH2 0xECA JUMPI PUSH1 0x0 DUP1 REVERT JUMPDEST DUP7 CALLDATALOAD PUSH1 0x1 PUSH1 0x1 PUSH1 0xA0 SHL SUB DUP2 AND DUP2 EQ PUSH2 0xEE1 JUMPI PUSH1 0x0 DUP1 REVERT JUMPDEST SWAP6 POP PUSH1 0x20 DUP8 DUP2 ADD CALLDATALOAD SWAP6 POP PUSH1 0x40 DUP9 ADD CALLDATALOAD SWAP5 POP PUSH1 0x60 DUP9 ADD CALLDATALOAD SWAP4 POP PUSH2 0xF06 DUP10 PUSH1 0x80 DUP11 ADD PUSH2 0xE3E JUMP JUMPDEST SWAP3 POP PUSH1 0xC0 DUP9 ADD CALLDATALOAD PUSH8 0xFFFFFFFFFFFFFFFF DUP1 DUP3 GT ISZERO PUSH2 0xF23 JUMPI PUSH1 0x0 DUP1 REVERT JUMPDEST DUP2 DUP11 ADD SWAP2 POP DUP11 PUSH1 0x1F DUP4 ADD SLT PUSH2 0xF37 JUMPI PUSH1 0x0 DUP1 REVERT JUMPDEST DUP2 CALLDATALOAD DUP2 DUP2 GT ISZERO PUSH2 0xF49 JUMPI PUSH2 0xF49 PUSH2 0xDCE JUMP JUMPDEST DUP1 PUSH1 0x5 SHL SWAP2 POP PUSH2 0xF5A DUP5 DUP4 ADD PUSH2 0xE0D JUMP JUMPDEST DUP2 DUP2 MSTORE SWAP2 DUP4 ADD DUP5 ADD SWAP2 DUP5 DUP2 ADD SWAP1 DUP14 DUP5 GT ISZERO PUSH2 0xF74 JUMPI PUSH1 0x0 DUP1 REVERT JUMPDEST SWAP4 DUP6 ADD SWAP4 JUMPDEST DUP4 DUP6 LT ISZERO PUSH2 0xF92 JUMPI DUP5 CALLDATALOAD DUP3 MSTORE SWAP4 DUP6 ADD SWAP4 SWAP1 DUP6 ADD SWAP1 PUSH2 0xF79 JUMP JUMPDEST DUP1 SWAP7 POP POP POP POP POP POP POP SWAP3 SWAP6 POP SWAP3 SWAP6 POP SWAP3 SWAP6 JUMP JUMPDEST PUSH1 0x0 DUP1 PUSH1 0x40 DUP4 DUP6 SUB SLT ISZERO PUSH2 0xFB8 JUMPI PUSH1 0x0 DUP1 REVERT JUMPDEST POP POP DUP1 CALLDATALOAD SWAP3 PUSH1 0x20 SWAP1 SWAP2 ADD CALLDATALOAD SWAP2 POP JUMP JUMPDEST PUSH1 0x0 PUSH1 0x40 DUP3 DUP5 SUB SLT ISZERO PUSH2 0xFD9 JUMPI PUSH1 0x0 DUP1 REVERT JUMPDEST DUP3 PUSH1 0x1F DUP4 ADD SLT PUSH2 0xFE8 JUMPI PUSH1 0x0 DUP1 REVERT JUMPDEST PUSH2 0xFF0 PUSH2 0xDE4 JUMP JUMPDEST DUP1 PUSH1 0x40 DUP5 ADD DUP6 DUP2 GT ISZERO PUSH2 0x1002 JUMPI PUSH1 0x0 DUP1 REVERT JUMPDEST DUP5 JUMPDEST DUP2 DUP2 LT ISZERO PUSH2 0xE83 JUMPI DUP1 MLOAD DUP5 MSTORE PUSH1 0x20 SWAP4 DUP5 ADD SWAP4 ADD PUSH2 0x1004 JUMP JUMPDEST PUSH4 0x4E487B71 PUSH1 0xE0 SHL PUSH1 0x0 MSTORE PUSH1 0x32 PUSH1 0x4 MSTORE PUSH1 0x24 PUSH1 0x0 REVERT JUMPDEST PUSH1 0x0 PUSH1 0x20 DUP3 DUP5 SUB SLT ISZERO PUSH2 0x1044 JUMPI PUSH1 0x0 DUP1 REVERT JUMPDEST DUP2 MLOAD DUP1 ISZERO ISZERO DUP2 EQ PUSH2 0xEAA JUMPI PUSH1 0x0 DUP1 REVERT JUMPDEST PUSH4 0x4E487B71 PUSH1 0xE0 SHL PUSH1 0x0 MSTORE PUSH1 0x11 PUSH1 0x4 MSTORE PUSH1 0x24 PUSH1 0x0 REVERT JUMPDEST PUSH1 0x0 PUSH1 0xFF DUP3 AND PUSH1 0xFF DUP2 SUB PUSH2 0x1080 JUMPI PUSH2 0x1080 PUSH2 0x1054 JUMP JUMPDEST PUSH1 0x1 ADD SWAP3 SWAP2 POP POP JUMP JUMPDEST PUSH1 0x0 DUP3 DUP3 LT ISZERO PUSH2 0x109B JUMPI PUSH2 0x109B PUSH2 0x1054 JUMP JUMPDEST POP SUB SWAP1 JUMP JUMPDEST PUSH1 0x0 DUP3 NOT DUP3 GT ISZERO PUSH2 0x10B3 JUMPI PUSH2 0x10B3 PUSH2 0x1054 JUMP JUMPDEST POP ADD SWAP1 JUMP JUMPDEST PUSH1 0x0 DUP3 PUSH2 0x10D5 JUMPI PUSH4 0x4E487B71 PUSH1 0xE0 SHL PUSH1 0x0 MSTORE PUSH1 0x12 PUSH1 0x4 MSTORE PUSH1 0x24 PUSH1 0x0 REVERT JUMPDEST POP DIV SWAP1 JUMP JUMPDEST PUSH1 0x0 DUP2 PUSH1 0x0 NOT DIV DUP4 GT DUP3 ISZERO ISZERO AND ISZERO PUSH2 0x10F4 JUMPI PUSH2 0x10F4 PUSH2 0x1054 JUMP JUMPDEST POP MUL SWAP1 JUMP JUMPDEST PUSH1 0x0 PUSH1 0x1 DUP3 ADD PUSH2 0x110B JUMPI PUSH2 0x110B PUSH2 0x1054 JUMP JUMPDEST POP PUSH1 0x1 ADD SWAP1 JUMP JUMPDEST DUP1 PUSH1 0x0 JUMPDEST PUSH1 0x2 DUP2 LT ISZERO PUSH2 0x56D JUMPI DUP2 MLOAD DUP5 MSTORE PUSH1 0x20 SWAP4 DUP5 ADD SWAP4 SWAP1 SWAP2 ADD SWAP1 PUSH1 0x1 ADD PUSH2 0x1116 JUMP JUMPDEST PUSH1 0x0 DUP2 MLOAD DUP1 DUP5 MSTORE PUSH1 0x20 DUP1 DUP6 ADD SWAP5 POP DUP1 DUP5 ADD PUSH1 0x0 JUMPDEST DUP4 DUP2 LT ISZERO PUSH2 0x1165 JUMPI DUP2 MLOAD DUP8 MSTORE SWAP6 DUP3 ADD SWAP6 SWAP1 DUP3 ADD SWAP1 PUSH1 0x1 ADD PUSH2 0x1149 JUMP JUMPDEST POP SWAP5 SWAP6 SWAP5 POP POP POP POP POP JUMP JUMPDEST PUSH1 0x0 DUP2 MLOAD DUP1 DUP5 MSTORE PUSH1 0x20 DUP1 DUP6 ADD SWAP5 POP DUP1 DUP5 ADD PUSH1 0x0 JUMPDEST DUP4 DUP2 LT ISZERO PUSH2 0x1165 JUMPI PUSH2 0x1197 DUP8 DUP4 MLOAD PUSH2 0x1112 JUMP JUMPDEST PUSH1 0x40 SWAP7 SWAP1 SWAP7 ADD SWAP6 SWAP1 DUP3 ADD SWAP1 PUSH1 0x1 ADD PUSH2 0x1184 JUMP JUMPDEST PUSH1 0xC0 DUP2 MSTORE PUSH1 0x0 DUP7 MLOAD DUP1 PUSH1 0xC0 DUP5 ADD MSTORE PUSH1 0x0 JUMPDEST DUP2 DUP2 LT ISZERO PUSH2 0x11D8 JUMPI PUSH1 0x20 DUP2 DUP11 ADD DUP2 ADD MLOAD PUSH1 0xE0 DUP7 DUP5 ADD ADD MSTORE ADD PUSH2 0x11BB JUMP JUMPDEST DUP2 DUP2 GT ISZERO PUSH2 0x11EA JUMPI PUSH1 0x0 PUSH1 0xE0 DUP4 DUP7 ADD ADD MSTORE JUMPDEST POP PUSH1 0x20 DUP4 ADD DUP8 SWAP1 MSTORE PUSH1 0x1F ADD PUSH1 0x1F NOT AND DUP3 ADD PUSH2 0x1208 PUSH1 0x40 DUP5 ADD DUP8 PUSH2 0x1112 JUMP JUMPDEST PUSH1 0xE0 DUP4 DUP3 SUB ADD PUSH1 0x80 DUP5 ADD MSTORE PUSH2 0x1220 PUSH1 0xE0 DUP3 ADD DUP7 PUSH2 0x1135 JUMP JUMPDEST SWAP1 POP DUP3 DUP2 SUB PUSH1 0xA0 DUP5 ADD MSTORE PUSH2 0x1234 DUP2 DUP6 PUSH2 0x1170 JUMP JUMPDEST SWAP9 SWAP8 POP POP POP POP POP POP POP POP JUMP JUMPDEST PUSH1 0x0 PUSH1 0xFF DUP3 AND PUSH1 0xFF DUP5 AND DUP1 PUSH1 0xFF SUB DUP3 GT ISZERO PUSH2 0x125D JUMPI PUSH2 0x125D PUSH2 0x1054 JUMP JUMPDEST ADD SWAP4 SWAP3 POP POP POP JUMP JUMPDEST DUP6 DUP2 MSTORE PUSH1 0x0 PUSH1 0x20 DUP7 DUP2 DUP5 ADD MSTORE PUSH1 0x40 DUP7 DUP2 DUP6 ADD MSTORE PUSH1 0xFF PUSH1 0xF8 SHL DUP7 PUSH1 0xF8 SHL AND PUSH1 0x60 DUP6 ADD MSTORE PUSH1 0x61 DUP5 ADD DUP6 PUSH1 0x0 DUP1 JUMPDEST PUSH1 0x3 DUP2 LT ISZERO PUSH2 0x12CE JUMPI DUP3 MLOAD DUP5 DUP4 JUMPDEST PUSH1 0x2 DUP2 LT ISZERO PUSH2 0x12BB JUMPI DUP3 MLOAD DUP3 MSTORE SWAP2 DUP9 ADD SWAP2 SWAP1 DUP9 ADD SWAP1 PUSH1 0x1 ADD PUSH2 0x129E JUMP JUMPDEST POP POP POP SWAP3 DUP5 ADD SWAP3 SWAP2 DUP6 ADD SWAP2 PUSH1 0x1 ADD PUSH2 0x1290 JUMP JUMPDEST POP POP POP POP POP POP PUSH2 0x121 DUP3 ADD SWAP1 POP SWAP7 SWAP6 POP POP POP POP POP POP JUMP INVALID LOG2 PUSH5 0x6970667358 0x22 SLT KECCAK256 SHR CALLDATALOAD 0x4F 0xBC 0xEE 0xE1 CALLDATACOPY 0xE1 0xC3 COINBASE CODECOPY 0xD2 0xBF 0x4A PUSH21 0x777B4DEF18F14A99F8266EF5B7F0178DAE64736F6C PUSH4 0x4300080D STOP CALLER ",
  "sha1": "8e6d1e782db583d52da880bb9ff8757503b155d2",
  "source": "// SPDX-License-Identifier: AGPL-3.0-only\n\npragma solidity ^0.8.5;\n\nimport \"./lib/AltBn128.sol\";\nimport \"./lib/LSAG.sol\";\n\ncontract Hetti {\n\n    // Maximum number of participants in a ring\n    uint256 constant ringMaxParticipants = 3;\n\n    struct Ring {\n        uint256 createdBlockNumber;\n        uint256 amountDeposited;\n        bytes32 ringHash;\n        uint8 dParticipantsNo;\n        uint8 wParticipantsNo;\n        mapping (uint256 => uint256[2]) publicKeys;\n        mapping (uint256 => uint256[2]) keyImages;\n    }\n\n    uint256[10] allowedAmounts = [\n        2 ether, 4 ether, 8 ether, 16 ether, 32 ether,\n        64 ether, 128 ether, 256 ether, 512 ether\n    ];\n    \n    uint256 constant minBlockNumberToCloseRing = 0;\n    mapping(uint256 => uint256) ringsNo;\n\n    // allowedAmount => ringIndex => Ring\n    mapping (uint256 => mapping(uint256 => Ring)) public rings;\n\n    function deposit(uint256[2] memory publicKey) public payable\n    {\n        // Get amount sent\n        uint256 receivedEther = floorEtherAndCheck(msg.value);\n\n        // Gets the current ring for the amounts\n        uint256 curIndex = ringsNo[receivedEther];\n        Ring storage ring = rings[receivedEther][curIndex];\n\n        if (!AltBn128.onCurve(uint256(publicKey[0]), uint256(publicKey[1]))) {\n            revert(\"Public Key no on Curve\");\n        }\n\n        // Make sure that public key (stealth address)\n        // isn't already in there\n        for (uint8 i = 0; i < ring.dParticipantsNo; i++) {\n            if (ring.publicKeys[i][0] == publicKey[0] &&\n                ring.publicKeys[i][1] == publicKey[1]) {\n                revert(\"Address already in current Ring\");\n            }\n        }\n\n        // If its a new ring\n        // set createdBlockNum size\n        if (ring.dParticipantsNo == 0) {\n            ring.createdBlockNumber = block.number - 1;\n        }\n\n        // Update ring params\n        ring.publicKeys[ring.dParticipantsNo] = publicKey;\n        ring.dParticipantsNo++;\n        ring.amountDeposited += receivedEther;\n\n        // Create new ring if current ring has exceeded number of participants\n        if (ring.dParticipantsNo >= ringMaxParticipants) {\n            // Set ringHash\n            ring.ringHash = createRingHash(receivedEther / (1 ether), curIndex);\n\n            // Add new Ring pool\n            ringsNo[receivedEther] += 1;\n        }\n    }\n\n    function withdraw(\n        address payable receiver, uint256 amountEther, uint256 index,\n        uint256 c0, uint256[2] memory keyImage, uint256[] memory s\n    ) public\n    {\n        uint i;\n        uint256 startGas = gasleft();\n\n        // Get amount sent\n        uint256 withdrawEther = floorEtherAndCheck(amountEther * 1 ether);\n\n        // Gets the current ring for the amounts\n        Ring storage ring = rings[withdrawEther][index];\n\n        // If everyone has withdrawn\n        if (ring.wParticipantsNo >= ringMaxParticipants) {\n            revert(\"All funds from current Ring has been withdrawn\");\n        }\n\n        // Ring needs to be closed first\n        // TODO: Make sure ring is closed later on...\n        if (ring.ringHash == bytes32(0x00)) {\n            revert(\"Ring isn't closed\");\n        }\n\n        uint256[2][] memory publicKeys = new uint256[2][](ringMaxParticipants);\n\n        for (i = 0; i < ringMaxParticipants; i++) {\n            publicKeys[i] = [\n                uint256(ring.publicKeys[uint8(i)][0]),\n                uint256(ring.publicKeys[uint8(i)][1])\n            ];\n        }\n\n        // Attempts to verify ring signature\n        bool signatureVerified = LSAG.verify(\n            abi.encodePacked(ring.ringHash), // Convert to bytes\n            c0,\n            keyImage,\n            s,\n            publicKeys\n        );\n\n        if (!signatureVerified) {\n            revert(\"Invalid signature\");\n        }\n\n        // Checks if Key Image has been used\n        // AKA No double withdraw\n        for (i = 0; i < ring.wParticipantsNo; i++) {\n            if (ring.keyImages[uint8(i)][0] == keyImage[0] &&\n                ring.keyImages[uint8(i)][1] == keyImage[1]) {\n                revert(\"Signature has been used!\");\n            }\n        }\n\n        // Otherwise adds key image to the current key image\n        // And adjusts params accordingly\n        ring.keyImages[ring.wParticipantsNo] = keyImage;\n        ring.wParticipantsNo += 1;\n\n        receiver.transfer(withdrawEther);\n    }\n\n\n    function createRingHash(uint256 amountEther, uint256 index) internal view\n        returns (bytes32)\n    {\n        uint256[2][ringMaxParticipants] memory publicKeys;\n        uint256 receivedEther = floorEtherAndCheck(amountEther * 1 ether);\n\n        Ring storage r = rings[receivedEther][index];\n\n        for (uint8 i = 0; i < ringMaxParticipants; i++) {\n            publicKeys[i] = r.publicKeys[i];\n        }\n\n        bytes memory b = abi.encodePacked(\n            blockhash(block.number - 1),\n            r.createdBlockNumber,\n            r.amountDeposited,\n            r.dParticipantsNo,\n            publicKeys\n        );\n\n        return keccak256(b);\n    }\n\n    function forceCloseRing(\n        uint256 amount, uint256 index\n    ) public\n    {\n        // Get amount sent\n        uint256 receivedEther = floorEtherAndCheck(amount * 1 ether);\n\n        // Gets the current ring for the amounts\n        uint256 curIndex = ringsNo[receivedEther];\n        Ring storage ring = rings[receivedEther][curIndex];\n\n\n        if (ring.ringHash != bytes32(0x00)) {\n            revert(\"Ring is already closed!\");\n        }\n\n        if (block.number - 1 - ring.createdBlockNumber >= minBlockNumberToCloseRing) {\n            revert(\"Ring needs to mature longer before forcefully closing\");\n        }\n\n        // Close the ring\n        ring.ringHash = createRingHash(receivedEther / (1 ether), index);\n\n        // Create new ring\n        ringsNo[receivedEther] += 1;\n    }\n\n\n    function floorEtherAndCheck(uint256 receivedAmount) internal view\n        returns (uint256)\n    {\n        uint256 i;\n        bool allowed = false;\n\n        // Floors received ether\n        uint256 receivedEther = (receivedAmount / 1 ether) * 1 ether;\n\n        for (i = 0; i < 10; i ++) {\n            if (allowedAmounts[i] == receivedEther) {\n                allowed = true;\n            }\n            if (allowed) {\n                break;\n            }\n        }\n\n        // Revert if ETH sent isn't in the allowed fixed amounts\n        require(allowed, \"Only ETH values of 2, 4, 6, 8 ... 512 are allowed\");\n\n        return receivedEther;\n    }\n\n    function getRingHash(uint256 amountEther, uint256 index) public view\n        returns (bytes32)\n    {\n        uint256 receivedEther = floorEtherAndCheck(amountEther * 1 ether);\n        return rings[receivedEther][index].ringHash;\n    }\n\n    function privateToPublic(uint256 sk) public view returns (uint256[2] memory publicKey) {\n        publicKey = AltBn128.ecMulG(sk);\n        require(AltBn128.onCurve(publicKey[0], publicKey[1]), \"PK_NOT_ON_CURVE\");\n\n        return publicKey;\n    }\n\n    // function keyGen(int r) external view returns (uint256[2] memory) {\n    //     return LSAG.keyGen(r);\n    // }\n}",
  "sourcePath": "contracts/Hetti.sol",
  "type": "contract"
}