{
  "abi": [
    {
      "inputs": [
        {
          "internalType": "bytes",
          "name": "b",
          "type": "bytes"
        }
      ],
      "name": "H1",
      "outputs": [
        {
          "internalType": "uint256",
          "name": "",
          "type": "uint256"
        }
      ],
      "stateMutability": "pure",
      "type": "function"
    },
    {
      "inputs": [
        {
          "internalType": "bytes",
          "name": "b",
          "type": "bytes"
        }
      ],
      "name": "H2",
      "outputs": [
        {
          "internalType": "uint256[2]",
          "name": "",
          "type": "uint256[2]"
        }
      ],
      "stateMutability": "view",
      "type": "function"
    },
    {
      "inputs": [
        {
          "internalType": "uint256",
          "name": "_x",
          "type": "uint256"
        }
      ],
      "name": "intToPoint",
      "outputs": [
        {
          "internalType": "uint256[2]",
          "name": "",
          "type": "uint256[2]"
        }
      ],
      "stateMutability": "view",
      "type": "function"
    },
    {
      "inputs": [
        {
          "internalType": "uint256[2]",
          "name": "pubKey",
          "type": "uint256[2]"
        },
        {
          "internalType": "uint256",
          "name": "c",
          "type": "uint256"
        },
        {
          "internalType": "uint256",
          "name": "s",
          "type": "uint256"
        }
      ],
      "name": "ringCalcZ1",
      "outputs": [
        {
          "internalType": "uint256[2]",
          "name": "",
          "type": "uint256[2]"
        }
      ],
      "stateMutability": "view",
      "type": "function"
    },
    {
      "inputs": [
        {
          "internalType": "uint256[2]",
          "name": "keyImage",
          "type": "uint256[2]"
        },
        {
          "internalType": "uint256[2]",
          "name": "h",
          "type": "uint256[2]"
        },
        {
          "internalType": "uint256",
          "name": "s",
          "type": "uint256"
        },
        {
          "internalType": "uint256",
          "name": "c",
          "type": "uint256"
        }
      ],
      "name": "ringCalcZ2",
      "outputs": [
        {
          "internalType": "uint256[2]",
          "name": "",
          "type": "uint256[2]"
        }
      ],
      "stateMutability": "view",
      "type": "function"
    },
    {
      "inputs": [
        {
          "internalType": "bytes",
          "name": "message",
          "type": "bytes"
        },
        {
          "internalType": "uint256",
          "name": "c0",
          "type": "uint256"
        },
        {
          "internalType": "uint256[2]",
          "name": "keyImage",
          "type": "uint256[2]"
        },
        {
          "internalType": "uint256[]",
          "name": "s",
          "type": "uint256[]"
        },
        {
          "internalType": "uint256[2][]",
          "name": "publicKeys",
          "type": "uint256[2][]"
        }
      ],
      "name": "verify",
      "outputs": [
        {
          "internalType": "bool",
          "name": "",
          "type": "bool"
        }
      ],
      "stateMutability": "view",
      "type": "function"
    }
  ],
  "bytecode": "610e6661003a600b82828239805160001a60731461002d57634e487b7160e01b600052600060045260246000fd5b30600052607381538281f3fe730000000000000000000000000000000000000000301460806040526004361061006c5760003560e01c80632872d29a1461007157806336c91c051461009a57806385d88a43146100ad5780639728de98146100c0578063d6edde19146100e1578063fe46a2b2146100f4575b600080fd5b61008461007f36600461093f565b610117565b604051610091919061099c565b60405180910390f35b6100846100a83660046109aa565b61027a565b6100846100bb366004610a5e565b6103f4565b6100d36100ce366004610a5e565b61040e565b604051908152602001610091565b6100846100ef366004610a9b565b610492565b610107610102366004610b4c565b610633565b6040519015158152602001610091565b61011f610861565b6040516308b86e6360e31b81526004810183905273__AltBn128______________________________9063a867d0ca9082906345c37318906024016040805180830381865af4158015610176573d6000803e3d6000fd5b505050506040513d601f19601f8201168201806040525081019061019a9190610c44565b604051631c778dc960e21b815273__AltBn128______________________________906371de3724906101d3908a908a90600401610c99565b6040805180830381865af41580156101ef573d6000803e3d6000fd5b505050506040513d601f19601f820116820180604052508101906102139190610c44565b6040518363ffffffff1660e01b8152600401610230929190610cb4565b6040805180830381865af415801561024c573d6000803e3d6000fd5b505050506040513d601f19601f820116820180604052508101906102709190610c44565b90505b9392505050565b610282610861565b73__AltBn128______________________________63a867d0ca73__AltBn128______________________________6371de372487876040518363ffffffff1660e01b81526004016102d5929190610c99565b6040805180830381865af41580156102f1573d6000803e3d6000fd5b505050506040513d601f19601f820116820180604052508101906103159190610c44565b604051631c778dc960e21b815273__AltBn128______________________________906371de37249061034e908b908990600401610c99565b6040805180830381865af415801561036a573d6000803e3d6000fd5b505050506040513d601f19601f8201168201806040525081019061038e9190610c44565b6040518363ffffffff1660e01b81526004016103ab929190610cb4565b6040805180830381865af41580156103c7573d6000803e3d6000fd5b505050506040513d601f19601f820116820180604052508101906103eb9190610c44565b95945050505050565b6103fc610861565b6104086100ef8361040e565b92915050565b80516020820120604051634f06f27960e01b815260009173__AltBn128______________________________91634f06f279916104519160040190815260200190565b602060405180830381865af415801561046e573d6000803e3d6000fd5b505050506040513d601f19601f820116820180604052508101906104089190610ccf565b61049a610861565b816000805b60405163c690219b60e01b81526004810184905273__AltBn128______________________________9063c690219b906024016040805180830381865af41580156104ee573d6000803e3d6000fd5b505050506040513d601f19601f820116820180604052508101906105129190610ce8565b6040516340eeb4ff60e11b8152600481018390526024810182905290935090915073__AltBn128______________________________906381dd69fe90604401602060405180830381865af415801561056f573d6000803e3d6000fd5b505050506040513d601f19601f820116820180604052508101906105939190610d0c565b156105b1575060408051808201909152918252602082015292915050565b6040516373b7712160e11b8152600481018490526001602482015273__AltBn128______________________________9063e76ee24290604401602060405180830381865af4158015610608573d6000803e3d6000fd5b505050506040513d601f19601f8201168201806040525081019061062c9190610ccf565b925061049f565b600060028251101561068c5760405162461bcd60e51b815260206004820152601860248201527f5369676e61747572652073697a6520746f6f20736d616c6c000000000000000060448201526064015b60405180910390fd5b82518251146106dd5760405162461bcd60e51b815260206004820152601d60248201527f5369676e61747572652073697a657320646f206e6f74206d61746368210000006044820152606401610683565b6040805160208101909152600080825286915b8451821015610749578085838151811061070c5761070c610d2e565b6020026020010151604051602001610725929190610d7f565b6040516020818303038152906040529050818061074190610db6565b9250506106f0565b6000610754826103f4565b905061075e610861565b610766610861565b600094505b8751851015610833576107b188868151811061078957610789610d2e565b6020026020010151878b88815181106107a4576107a4610d2e565b6020026020010151610117565b91506107d88a848b88815181106107ca576107ca610d2e565b60200260200101518961027a565b9050600188516107e89190610dcf565b85146108215761081e848b8e858560405160200161080a959493929190610de6565b60405160208183030381529060405261040e565b95505b8461082b81610db6565b95505061076b565b61084f848b8e858560405160200161080a959493929190610de6565b909a149b9a5050505050505050505050565b60405180604001604052806002906020820280368337509192915050565b634e487b7160e01b600052604160045260246000fd5b6040805190810167ffffffffffffffff811182821017156108b8576108b861087f565b60405290565b604051601f8201601f1916810167ffffffffffffffff811182821017156108e7576108e761087f565b604052919050565b600082601f83011261090057600080fd5b610908610895565b80604084018581111561091a57600080fd5b845b8181101561093457803584526020938401930161091c565b509095945050505050565b60008060006080848603121561095457600080fd5b61095e85856108ef565b95604085013595506060909401359392505050565b8060005b6002811015610996578151845260209384019390910190600101610977565b50505050565b604081016104088284610973565b60008060008060c085870312156109c057600080fd5b6109ca86866108ef565b93506109d986604087016108ef565b939693955050505060808201359160a0013590565b600082601f8301126109ff57600080fd5b813567ffffffffffffffff811115610a1957610a1961087f565b610a2c601f8201601f19166020016108be565b818152846020838601011115610a4157600080fd5b816020850160208301376000918101602001919091529392505050565b600060208284031215610a7057600080fd5b813567ffffffffffffffff811115610a8757600080fd5b610a93848285016109ee565b949350505050565b600060208284031215610aad57600080fd5b5035919050565b600067ffffffffffffffff821115610ace57610ace61087f565b5060051b60200190565b600082601f830112610ae957600080fd5b81356020610afe610af983610ab4565b6108be565b82815260069290921b84018101918181019086841115610b1d57600080fd5b8286015b84811015610b4157610b3388826108ef565b835291830191604001610b21565b509695505050505050565b600080600080600060c08688031215610b6457600080fd5b853567ffffffffffffffff80821115610b7c57600080fd5b610b8889838a016109ee565b965060209150818801359550610ba18960408a016108ef565b9450608088013581811115610bb557600080fd5b8801601f81018a13610bc657600080fd5b8035610bd4610af982610ab4565b81815260059190911b8201840190848101908c831115610bf357600080fd5b928501925b82841015610c1157833582529285019290850190610bf8565b965050505060a0880135915080821115610c2a57600080fd5b50610c3788828901610ad8565b9150509295509295909350565b600060408284031215610c5657600080fd5b82601f830112610c6557600080fd5b610c6d610895565b806040840185811115610c7f57600080fd5b845b81811015610934578051845260209384019301610c81565b60608101610ca78285610973565b8260408301529392505050565b60808101610cc28285610973565b6102736040830184610973565b600060208284031215610ce157600080fd5b5051919050565b60008060408385031215610cfb57600080fd5b505080516020909101519092909150565b600060208284031215610d1e57600080fd5b8151801515811461027357600080fd5b634e487b7160e01b600052603260045260246000fd5b6000815160005b81811015610d655760208185018101518683015201610d4b565b81811115610d74576000828601525b509290920192915050565b6000610d8b8285610d44565b610d958185610973565b604001949350505050565b634e487b7160e01b600052601160045260246000fd5b600060018201610dc857610dc8610da0565b5060010190565b600082821015610de157610de1610da0565b500390565b6000610df28288610d44565b610dfc8188610973565b610e096040820187610d44565b9050610e158186610973565b610e226040820185610973565b60800197965050505050505056fea26469706673582212209ee3ed5809d8561beb3d2ba7042fd5350c49e9d0f2eaa4b9bc12c830675c8e7f64736f6c634300080d0033",
  "bytecodeSha1": "ebba322aa97fbede6da54dc3b9e27e050ede2fe1",
  "compiler": {
    "evm_version": "istanbul",
    "optimizer": {
      "enabled": true,
      "runs": 200
    },
    "version": "0.8.13+commit.abaa5c0e"
  },
  "contractName": "LSAG",
  "deployedBytecode": "730000000000000000000000000000000000000000301460806040526004361061006c5760003560e01c80632872d29a1461007157806336c91c051461009a57806385d88a43146100ad5780639728de98146100c0578063d6edde19146100e1578063fe46a2b2146100f4575b600080fd5b61008461007f36600461093f565b610117565b604051610091919061099c565b60405180910390f35b6100846100a83660046109aa565b61027a565b6100846100bb366004610a5e565b6103f4565b6100d36100ce366004610a5e565b61040e565b604051908152602001610091565b6100846100ef366004610a9b565b610492565b610107610102366004610b4c565b610633565b6040519015158152602001610091565b61011f610861565b6040516308b86e6360e31b81526004810183905273__$0769e4187bae5c4f4cd6ae56e4ede5e405$__9063a867d0ca9082906345c37318906024016040805180830381865af4158015610176573d6000803e3d6000fd5b505050506040513d601f19601f8201168201806040525081019061019a9190610c44565b604051631c778dc960e21b815273__$0769e4187bae5c4f4cd6ae56e4ede5e405$__906371de3724906101d3908a908a90600401610c99565b6040805180830381865af41580156101ef573d6000803e3d6000fd5b505050506040513d601f19601f820116820180604052508101906102139190610c44565b6040518363ffffffff1660e01b8152600401610230929190610cb4565b6040805180830381865af415801561024c573d6000803e3d6000fd5b505050506040513d601f19601f820116820180604052508101906102709190610c44565b90505b9392505050565b610282610861565b73__$0769e4187bae5c4f4cd6ae56e4ede5e405$__63a867d0ca73__$0769e4187bae5c4f4cd6ae56e4ede5e405$__6371de372487876040518363ffffffff1660e01b81526004016102d5929190610c99565b6040805180830381865af41580156102f1573d6000803e3d6000fd5b505050506040513d601f19601f820116820180604052508101906103159190610c44565b604051631c778dc960e21b815273__$0769e4187bae5c4f4cd6ae56e4ede5e405$__906371de37249061034e908b908990600401610c99565b6040805180830381865af415801561036a573d6000803e3d6000fd5b505050506040513d601f19601f8201168201806040525081019061038e9190610c44565b6040518363ffffffff1660e01b81526004016103ab929190610cb4565b6040805180830381865af41580156103c7573d6000803e3d6000fd5b505050506040513d601f19601f820116820180604052508101906103eb9190610c44565b95945050505050565b6103fc610861565b6104086100ef8361040e565b92915050565b80516020820120604051634f06f27960e01b815260009173__$0769e4187bae5c4f4cd6ae56e4ede5e405$__91634f06f279916104519160040190815260200190565b602060405180830381865af415801561046e573d6000803e3d6000fd5b505050506040513d601f19601f820116820180604052508101906104089190610ccf565b61049a610861565b816000805b60405163c690219b60e01b81526004810184905273__$0769e4187bae5c4f4cd6ae56e4ede5e405$__9063c690219b906024016040805180830381865af41580156104ee573d6000803e3d6000fd5b505050506040513d601f19601f820116820180604052508101906105129190610ce8565b6040516340eeb4ff60e11b8152600481018390526024810182905290935090915073__$0769e4187bae5c4f4cd6ae56e4ede5e405$__906381dd69fe90604401602060405180830381865af415801561056f573d6000803e3d6000fd5b505050506040513d601f19601f820116820180604052508101906105939190610d0c565b156105b1575060408051808201909152918252602082015292915050565b6040516373b7712160e11b8152600481018490526001602482015273__$0769e4187bae5c4f4cd6ae56e4ede5e405$__9063e76ee24290604401602060405180830381865af4158015610608573d6000803e3d6000fd5b505050506040513d601f19601f8201168201806040525081019061062c9190610ccf565b925061049f565b600060028251101561068c5760405162461bcd60e51b815260206004820152601860248201527f5369676e61747572652073697a6520746f6f20736d616c6c000000000000000060448201526064015b60405180910390fd5b82518251146106dd5760405162461bcd60e51b815260206004820152601d60248201527f5369676e61747572652073697a657320646f206e6f74206d61746368210000006044820152606401610683565b6040805160208101909152600080825286915b8451821015610749578085838151811061070c5761070c610d2e565b6020026020010151604051602001610725929190610d7f565b6040516020818303038152906040529050818061074190610db6565b9250506106f0565b6000610754826103f4565b905061075e610861565b610766610861565b600094505b8751851015610833576107b188868151811061078957610789610d2e565b6020026020010151878b88815181106107a4576107a4610d2e565b6020026020010151610117565b91506107d88a848b88815181106107ca576107ca610d2e565b60200260200101518961027a565b9050600188516107e89190610dcf565b85146108215761081e848b8e858560405160200161080a959493929190610de6565b60405160208183030381529060405261040e565b95505b8461082b81610db6565b95505061076b565b61084f848b8e858560405160200161080a959493929190610de6565b909a149b9a5050505050505050505050565b60405180604001604052806002906020820280368337509192915050565b634e487b7160e01b600052604160045260246000fd5b6040805190810167ffffffffffffffff811182821017156108b8576108b861087f565b60405290565b604051601f8201601f1916810167ffffffffffffffff811182821017156108e7576108e761087f565b604052919050565b600082601f83011261090057600080fd5b610908610895565b80604084018581111561091a57600080fd5b845b8181101561093457803584526020938401930161091c565b509095945050505050565b60008060006080848603121561095457600080fd5b61095e85856108ef565b95604085013595506060909401359392505050565b8060005b6002811015610996578151845260209384019390910190600101610977565b50505050565b604081016104088284610973565b60008060008060c085870312156109c057600080fd5b6109ca86866108ef565b93506109d986604087016108ef565b939693955050505060808201359160a0013590565b600082601f8301126109ff57600080fd5b813567ffffffffffffffff811115610a1957610a1961087f565b610a2c601f8201601f19166020016108be565b818152846020838601011115610a4157600080fd5b816020850160208301376000918101602001919091529392505050565b600060208284031215610a7057600080fd5b813567ffffffffffffffff811115610a8757600080fd5b610a93848285016109ee565b949350505050565b600060208284031215610aad57600080fd5b5035919050565b600067ffffffffffffffff821115610ace57610ace61087f565b5060051b60200190565b600082601f830112610ae957600080fd5b81356020610afe610af983610ab4565b6108be565b82815260069290921b84018101918181019086841115610b1d57600080fd5b8286015b84811015610b4157610b3388826108ef565b835291830191604001610b21565b509695505050505050565b600080600080600060c08688031215610b6457600080fd5b853567ffffffffffffffff80821115610b7c57600080fd5b610b8889838a016109ee565b965060209150818801359550610ba18960408a016108ef565b9450608088013581811115610bb557600080fd5b8801601f81018a13610bc657600080fd5b8035610bd4610af982610ab4565b81815260059190911b8201840190848101908c831115610bf357600080fd5b928501925b82841015610c1157833582529285019290850190610bf8565b965050505060a0880135915080821115610c2a57600080fd5b50610c3788828901610ad8565b9150509295509295909350565b600060408284031215610c5657600080fd5b82601f830112610c6557600080fd5b610c6d610895565b806040840185811115610c7f57600080fd5b845b81811015610934578051845260209384019301610c81565b60608101610ca78285610973565b8260408301529392505050565b60808101610cc28285610973565b6102736040830184610973565b600060208284031215610ce157600080fd5b5051919050565b60008060408385031215610cfb57600080fd5b505080516020909101519092909150565b600060208284031215610d1e57600080fd5b8151801515811461027357600080fd5b634e487b7160e01b600052603260045260246000fd5b6000815160005b81811015610d655760208185018101518683015201610d4b565b81811115610d74576000828601525b509290920192915050565b6000610d8b8285610d44565b610d958185610973565b604001949350505050565b634e487b7160e01b600052601160045260246000fd5b600060018201610dc857610dc8610da0565b5060010190565b600082821015610de157610de1610da0565b500390565b6000610df28288610d44565b610dfc8188610973565b610e096040820187610d44565b9050610e158186610973565b610e226040820185610973565b60800197965050505050505056fea26469706673582212209ee3ed5809d8561beb3d2ba7042fd5350c49e9d0f2eaa4b9bc12c830675c8e7f64736f6c634300080d0033",
  "language": "Solidity",
  "natspec": {
    "kind": "dev",
    "methods": {
      "H1(bytes)": {
        "notice": "Returns an integer representation of the hash of the input"
      },
      "H2(bytes)": {
        "notice": "Returns elliptic curve point of the integer representation of the hash of the input"
      },
      "intToPoint(uint256)": {
        "notice": "Converts an integer to an elliptic curve point"
      },
      "ringCalcZ1(uint256[2],uint256,uint256)": {
        "notice": "Helper function to calculate Z1 Avoids stack too deep problem"
      },
      "ringCalcZ2(uint256[2],uint256[2],uint256,uint256)": {
        "notice": "Helper function to calculate Z2 Avoids stack too deep problem"
      },
      "verify(bytes,uint256,uint256[2],uint256[],uint256[2][])": {
        "notice": "Verifies the ring signature Section 4.2 of the paper https://eprint.iacr.org/2004/027.pdf"
      }
    },
    "version": 1
  },
  "opcodes": "PUSH20 0x0 ADDRESS EQ PUSH1 0x80 PUSH1 0x40 MSTORE PUSH1 0x4 CALLDATASIZE LT PUSH2 0x6C JUMPI PUSH1 0x0 CALLDATALOAD PUSH1 0xE0 SHR DUP1 PUSH4 0x2872D29A EQ PUSH2 0x71 JUMPI DUP1 PUSH4 0x36C91C05 EQ PUSH2 0x9A JUMPI DUP1 PUSH4 0x85D88A43 EQ PUSH2 0xAD JUMPI DUP1 PUSH4 0x9728DE98 EQ PUSH2 0xC0 JUMPI DUP1 PUSH4 0xD6EDDE19 EQ PUSH2 0xE1 JUMPI DUP1 PUSH4 0xFE46A2B2 EQ PUSH2 0xF4 JUMPI JUMPDEST PUSH1 0x0 DUP1 REVERT JUMPDEST PUSH2 0x84 PUSH2 0x7F CALLDATASIZE PUSH1 0x4 PUSH2 0x93F JUMP JUMPDEST PUSH2 0x117 JUMP JUMPDEST PUSH1 0x40 MLOAD PUSH2 0x91 SWAP2 SWAP1 PUSH2 0x99C JUMP JUMPDEST PUSH1 0x40 MLOAD DUP1 SWAP2 SUB SWAP1 RETURN JUMPDEST PUSH2 0x84 PUSH2 0xA8 CALLDATASIZE PUSH1 0x4 PUSH2 0x9AA JUMP JUMPDEST PUSH2 0x27A JUMP JUMPDEST PUSH2 0x84 PUSH2 0xBB CALLDATASIZE PUSH1 0x4 PUSH2 0xA5E JUMP JUMPDEST PUSH2 0x3F4 JUMP JUMPDEST PUSH2 0xD3 PUSH2 0xCE CALLDATASIZE PUSH1 0x4 PUSH2 0xA5E JUMP JUMPDEST PUSH2 0x40E JUMP JUMPDEST PUSH1 0x40 MLOAD SWAP1 DUP2 MSTORE PUSH1 0x20 ADD PUSH2 0x91 JUMP JUMPDEST PUSH2 0x84 PUSH2 0xEF CALLDATASIZE PUSH1 0x4 PUSH2 0xA9B JUMP JUMPDEST PUSH2 0x492 JUMP JUMPDEST PUSH2 0x107 PUSH2 0x102 CALLDATASIZE PUSH1 0x4 PUSH2 0xB4C JUMP JUMPDEST PUSH2 0x633 JUMP JUMPDEST PUSH1 0x40 MLOAD SWAP1 ISZERO ISZERO DUP2 MSTORE PUSH1 0x20 ADD PUSH2 0x91 JUMP JUMPDEST PUSH2 0x11F PUSH2 0x861 JUMP JUMPDEST PUSH1 0x40 MLOAD PUSH4 0x8B86E63 PUSH1 0xE3 SHL DUP2 MSTORE PUSH1 0x4 DUP2 ADD DUP4 SWAP1 MSTORE PUSH20 0x0 SWAP1 PUSH4 0xA867D0CA SWAP1 DUP3 SWAP1 PUSH4 0x45C37318 SWAP1 PUSH1 0x24 ADD PUSH1 0x40 DUP1 MLOAD DUP1 DUP4 SUB DUP2 DUP7 GAS DELEGATECALL ISZERO DUP1 ISZERO PUSH2 0x176 JUMPI RETURNDATASIZE PUSH1 0x0 DUP1 RETURNDATACOPY RETURNDATASIZE PUSH1 0x0 REVERT JUMPDEST POP POP POP POP PUSH1 0x40 MLOAD RETURNDATASIZE PUSH1 0x1F NOT PUSH1 0x1F DUP3 ADD AND DUP3 ADD DUP1 PUSH1 0x40 MSTORE POP DUP2 ADD SWAP1 PUSH2 0x19A SWAP2 SWAP1 PUSH2 0xC44 JUMP JUMPDEST PUSH1 0x40 MLOAD PUSH4 0x1C778DC9 PUSH1 0xE2 SHL DUP2 MSTORE PUSH20 0x0 SWAP1 PUSH4 0x71DE3724 SWAP1 PUSH2 0x1D3 SWAP1 DUP11 SWAP1 DUP11 SWAP1 PUSH1 0x4 ADD PUSH2 0xC99 JUMP JUMPDEST PUSH1 0x40 DUP1 MLOAD DUP1 DUP4 SUB DUP2 DUP7 GAS DELEGATECALL ISZERO DUP1 ISZERO PUSH2 0x1EF JUMPI RETURNDATASIZE PUSH1 0x0 DUP1 RETURNDATACOPY RETURNDATASIZE PUSH1 0x0 REVERT JUMPDEST POP POP POP POP PUSH1 0x40 MLOAD RETURNDATASIZE PUSH1 0x1F NOT PUSH1 0x1F DUP3 ADD AND DUP3 ADD DUP1 PUSH1 0x40 MSTORE POP DUP2 ADD SWAP1 PUSH2 0x213 SWAP2 SWAP1 PUSH2 0xC44 JUMP JUMPDEST PUSH1 0x40 MLOAD DUP4 PUSH4 0xFFFFFFFF AND PUSH1 0xE0 SHL DUP2 MSTORE PUSH1 0x4 ADD PUSH2 0x230 SWAP3 SWAP2 SWAP1 PUSH2 0xCB4 JUMP JUMPDEST PUSH1 0x40 DUP1 MLOAD DUP1 DUP4 SUB DUP2 DUP7 GAS DELEGATECALL ISZERO DUP1 ISZERO PUSH2 0x24C JUMPI RETURNDATASIZE PUSH1 0x0 DUP1 RETURNDATACOPY RETURNDATASIZE PUSH1 0x0 REVERT JUMPDEST POP POP POP POP PUSH1 0x40 MLOAD RETURNDATASIZE PUSH1 0x1F NOT PUSH1 0x1F DUP3 ADD AND DUP3 ADD DUP1 PUSH1 0x40 MSTORE POP DUP2 ADD SWAP1 PUSH2 0x270 SWAP2 SWAP1 PUSH2 0xC44 JUMP JUMPDEST SWAP1 POP JUMPDEST SWAP4 SWAP3 POP POP POP JUMP JUMPDEST PUSH2 0x282 PUSH2 0x861 JUMP JUMPDEST PUSH20 0x0 PUSH4 0xA867D0CA PUSH20 0x0 PUSH4 0x71DE3724 DUP8 DUP8 PUSH1 0x40 MLOAD DUP4 PUSH4 0xFFFFFFFF AND PUSH1 0xE0 SHL DUP2 MSTORE PUSH1 0x4 ADD PUSH2 0x2D5 SWAP3 SWAP2 SWAP1 PUSH2 0xC99 JUMP JUMPDEST PUSH1 0x40 DUP1 MLOAD DUP1 DUP4 SUB DUP2 DUP7 GAS DELEGATECALL ISZERO DUP1 ISZERO PUSH2 0x2F1 JUMPI RETURNDATASIZE PUSH1 0x0 DUP1 RETURNDATACOPY RETURNDATASIZE PUSH1 0x0 REVERT JUMPDEST POP POP POP POP PUSH1 0x40 MLOAD RETURNDATASIZE PUSH1 0x1F NOT PUSH1 0x1F DUP3 ADD AND DUP3 ADD DUP1 PUSH1 0x40 MSTORE POP DUP2 ADD SWAP1 PUSH2 0x315 SWAP2 SWAP1 PUSH2 0xC44 JUMP JUMPDEST PUSH1 0x40 MLOAD PUSH4 0x1C778DC9 PUSH1 0xE2 SHL DUP2 MSTORE PUSH20 0x0 SWAP1 PUSH4 0x71DE3724 SWAP1 PUSH2 0x34E SWAP1 DUP12 SWAP1 DUP10 SWAP1 PUSH1 0x4 ADD PUSH2 0xC99 JUMP JUMPDEST PUSH1 0x40 DUP1 MLOAD DUP1 DUP4 SUB DUP2 DUP7 GAS DELEGATECALL ISZERO DUP1 ISZERO PUSH2 0x36A JUMPI RETURNDATASIZE PUSH1 0x0 DUP1 RETURNDATACOPY RETURNDATASIZE PUSH1 0x0 REVERT JUMPDEST POP POP POP POP PUSH1 0x40 MLOAD RETURNDATASIZE PUSH1 0x1F NOT PUSH1 0x1F DUP3 ADD AND DUP3 ADD DUP1 PUSH1 0x40 MSTORE POP DUP2 ADD SWAP1 PUSH2 0x38E SWAP2 SWAP1 PUSH2 0xC44 JUMP JUMPDEST PUSH1 0x40 MLOAD DUP4 PUSH4 0xFFFFFFFF AND PUSH1 0xE0 SHL DUP2 MSTORE PUSH1 0x4 ADD PUSH2 0x3AB SWAP3 SWAP2 SWAP1 PUSH2 0xCB4 JUMP JUMPDEST PUSH1 0x40 DUP1 MLOAD DUP1 DUP4 SUB DUP2 DUP7 GAS DELEGATECALL ISZERO DUP1 ISZERO PUSH2 0x3C7 JUMPI RETURNDATASIZE PUSH1 0x0 DUP1 RETURNDATACOPY RETURNDATASIZE PUSH1 0x0 REVERT JUMPDEST POP POP POP POP PUSH1 0x40 MLOAD RETURNDATASIZE PUSH1 0x1F NOT PUSH1 0x1F DUP3 ADD AND DUP3 ADD DUP1 PUSH1 0x40 MSTORE POP DUP2 ADD SWAP1 PUSH2 0x3EB SWAP2 SWAP1 PUSH2 0xC44 JUMP JUMPDEST SWAP6 SWAP5 POP POP POP POP POP JUMP JUMPDEST PUSH2 0x3FC PUSH2 0x861 JUMP JUMPDEST PUSH2 0x408 PUSH2 0xEF DUP4 PUSH2 0x40E JUMP JUMPDEST SWAP3 SWAP2 POP POP JUMP JUMPDEST DUP1 MLOAD PUSH1 0x20 DUP3 ADD KECCAK256 PUSH1 0x40 MLOAD PUSH4 0x4F06F279 PUSH1 0xE0 SHL DUP2 MSTORE PUSH1 0x0 SWAP2 PUSH20 0x0 SWAP2 PUSH4 0x4F06F279 SWAP2 PUSH2 0x451 SWAP2 PUSH1 0x4 ADD SWAP1 DUP2 MSTORE PUSH1 0x20 ADD SWAP1 JUMP JUMPDEST PUSH1 0x20 PUSH1 0x40 MLOAD DUP1 DUP4 SUB DUP2 DUP7 GAS DELEGATECALL ISZERO DUP1 ISZERO PUSH2 0x46E JUMPI RETURNDATASIZE PUSH1 0x0 DUP1 RETURNDATACOPY RETURNDATASIZE PUSH1 0x0 REVERT JUMPDEST POP POP POP POP PUSH1 0x40 MLOAD RETURNDATASIZE PUSH1 0x1F NOT PUSH1 0x1F DUP3 ADD AND DUP3 ADD DUP1 PUSH1 0x40 MSTORE POP DUP2 ADD SWAP1 PUSH2 0x408 SWAP2 SWAP1 PUSH2 0xCCF JUMP JUMPDEST PUSH2 0x49A PUSH2 0x861 JUMP JUMPDEST DUP2 PUSH1 0x0 DUP1 JUMPDEST PUSH1 0x40 MLOAD PUSH4 0xC690219B PUSH1 0xE0 SHL DUP2 MSTORE PUSH1 0x4 DUP2 ADD DUP5 SWAP1 MSTORE PUSH20 0x0 SWAP1 PUSH4 0xC690219B SWAP1 PUSH1 0x24 ADD PUSH1 0x40 DUP1 MLOAD DUP1 DUP4 SUB DUP2 DUP7 GAS DELEGATECALL ISZERO DUP1 ISZERO PUSH2 0x4EE JUMPI RETURNDATASIZE PUSH1 0x0 DUP1 RETURNDATACOPY RETURNDATASIZE PUSH1 0x0 REVERT JUMPDEST POP POP POP POP PUSH1 0x40 MLOAD RETURNDATASIZE PUSH1 0x1F NOT PUSH1 0x1F DUP3 ADD AND DUP3 ADD DUP1 PUSH1 0x40 MSTORE POP DUP2 ADD SWAP1 PUSH2 0x512 SWAP2 SWAP1 PUSH2 0xCE8 JUMP JUMPDEST PUSH1 0x40 MLOAD PUSH4 0x40EEB4FF PUSH1 0xE1 SHL DUP2 MSTORE PUSH1 0x4 DUP2 ADD DUP4 SWAP1 MSTORE PUSH1 0x24 DUP2 ADD DUP3 SWAP1 MSTORE SWAP1 SWAP4 POP SWAP1 SWAP2 POP PUSH20 0x0 SWAP1 PUSH4 0x81DD69FE SWAP1 PUSH1 0x44 ADD PUSH1 0x20 PUSH1 0x40 MLOAD DUP1 DUP4 SUB DUP2 DUP7 GAS DELEGATECALL ISZERO DUP1 ISZERO PUSH2 0x56F JUMPI RETURNDATASIZE PUSH1 0x0 DUP1 RETURNDATACOPY RETURNDATASIZE PUSH1 0x0 REVERT JUMPDEST POP POP POP POP PUSH1 0x40 MLOAD RETURNDATASIZE PUSH1 0x1F NOT PUSH1 0x1F DUP3 ADD AND DUP3 ADD DUP1 PUSH1 0x40 MSTORE POP DUP2 ADD SWAP1 PUSH2 0x593 SWAP2 SWAP1 PUSH2 0xD0C JUMP JUMPDEST ISZERO PUSH2 0x5B1 JUMPI POP PUSH1 0x40 DUP1 MLOAD DUP1 DUP3 ADD SWAP1 SWAP2 MSTORE SWAP2 DUP3 MSTORE PUSH1 0x20 DUP3 ADD MSTORE SWAP3 SWAP2 POP POP JUMP JUMPDEST PUSH1 0x40 MLOAD PUSH4 0x73B77121 PUSH1 0xE1 SHL DUP2 MSTORE PUSH1 0x4 DUP2 ADD DUP5 SWAP1 MSTORE PUSH1 0x1 PUSH1 0x24 DUP3 ADD MSTORE PUSH20 0x0 SWAP1 PUSH4 0xE76EE242 SWAP1 PUSH1 0x44 ADD PUSH1 0x20 PUSH1 0x40 MLOAD DUP1 DUP4 SUB DUP2 DUP7 GAS DELEGATECALL ISZERO DUP1 ISZERO PUSH2 0x608 JUMPI RETURNDATASIZE PUSH1 0x0 DUP1 RETURNDATACOPY RETURNDATASIZE PUSH1 0x0 REVERT JUMPDEST POP POP POP POP PUSH1 0x40 MLOAD RETURNDATASIZE PUSH1 0x1F NOT PUSH1 0x1F DUP3 ADD AND DUP3 ADD DUP1 PUSH1 0x40 MSTORE POP DUP2 ADD SWAP1 PUSH2 0x62C SWAP2 SWAP1 PUSH2 0xCCF JUMP JUMPDEST SWAP3 POP PUSH2 0x49F JUMP JUMPDEST PUSH1 0x0 PUSH1 0x2 DUP3 MLOAD LT ISZERO PUSH2 0x68C JUMPI PUSH1 0x40 MLOAD PUSH3 0x461BCD PUSH1 0xE5 SHL DUP2 MSTORE PUSH1 0x20 PUSH1 0x4 DUP3 ADD MSTORE PUSH1 0x18 PUSH1 0x24 DUP3 ADD MSTORE PUSH32 0x5369676E61747572652073697A6520746F6F20736D616C6C0000000000000000 PUSH1 0x44 DUP3 ADD MSTORE PUSH1 0x64 ADD JUMPDEST PUSH1 0x40 MLOAD DUP1 SWAP2 SUB SWAP1 REVERT JUMPDEST DUP3 MLOAD DUP3 MLOAD EQ PUSH2 0x6DD JUMPI PUSH1 0x40 MLOAD PUSH3 0x461BCD PUSH1 0xE5 SHL DUP2 MSTORE PUSH1 0x20 PUSH1 0x4 DUP3 ADD MSTORE PUSH1 0x1D PUSH1 0x24 DUP3 ADD MSTORE PUSH32 0x5369676E61747572652073697A657320646F206E6F74206D6174636821000000 PUSH1 0x44 DUP3 ADD MSTORE PUSH1 0x64 ADD PUSH2 0x683 JUMP JUMPDEST PUSH1 0x40 DUP1 MLOAD PUSH1 0x20 DUP2 ADD SWAP1 SWAP2 MSTORE PUSH1 0x0 DUP1 DUP3 MSTORE DUP7 SWAP2 JUMPDEST DUP5 MLOAD DUP3 LT ISZERO PUSH2 0x749 JUMPI DUP1 DUP6 DUP4 DUP2 MLOAD DUP2 LT PUSH2 0x70C JUMPI PUSH2 0x70C PUSH2 0xD2E JUMP JUMPDEST PUSH1 0x20 MUL PUSH1 0x20 ADD ADD MLOAD PUSH1 0x40 MLOAD PUSH1 0x20 ADD PUSH2 0x725 SWAP3 SWAP2 SWAP1 PUSH2 0xD7F JUMP JUMPDEST PUSH1 0x40 MLOAD PUSH1 0x20 DUP2 DUP4 SUB SUB DUP2 MSTORE SWAP1 PUSH1 0x40 MSTORE SWAP1 POP DUP2 DUP1 PUSH2 0x741 SWAP1 PUSH2 0xDB6 JUMP JUMPDEST SWAP3 POP POP PUSH2 0x6F0 JUMP JUMPDEST PUSH1 0x0 PUSH2 0x754 DUP3 PUSH2 0x3F4 JUMP JUMPDEST SWAP1 POP PUSH2 0x75E PUSH2 0x861 JUMP JUMPDEST PUSH2 0x766 PUSH2 0x861 JUMP JUMPDEST PUSH1 0x0 SWAP5 POP JUMPDEST DUP8 MLOAD DUP6 LT ISZERO PUSH2 0x833 JUMPI PUSH2 0x7B1 DUP9 DUP7 DUP2 MLOAD DUP2 LT PUSH2 0x789 JUMPI PUSH2 0x789 PUSH2 0xD2E JUMP JUMPDEST PUSH1 0x20 MUL PUSH1 0x20 ADD ADD MLOAD DUP8 DUP12 DUP9 DUP2 MLOAD DUP2 LT PUSH2 0x7A4 JUMPI PUSH2 0x7A4 PUSH2 0xD2E JUMP JUMPDEST PUSH1 0x20 MUL PUSH1 0x20 ADD ADD MLOAD PUSH2 0x117 JUMP JUMPDEST SWAP2 POP PUSH2 0x7D8 DUP11 DUP5 DUP12 DUP9 DUP2 MLOAD DUP2 LT PUSH2 0x7CA JUMPI PUSH2 0x7CA PUSH2 0xD2E JUMP JUMPDEST PUSH1 0x20 MUL PUSH1 0x20 ADD ADD MLOAD DUP10 PUSH2 0x27A JUMP JUMPDEST SWAP1 POP PUSH1 0x1 DUP9 MLOAD PUSH2 0x7E8 SWAP2 SWAP1 PUSH2 0xDCF JUMP JUMPDEST DUP6 EQ PUSH2 0x821 JUMPI PUSH2 0x81E DUP5 DUP12 DUP15 DUP6 DUP6 PUSH1 0x40 MLOAD PUSH1 0x20 ADD PUSH2 0x80A SWAP6 SWAP5 SWAP4 SWAP3 SWAP2 SWAP1 PUSH2 0xDE6 JUMP JUMPDEST PUSH1 0x40 MLOAD PUSH1 0x20 DUP2 DUP4 SUB SUB DUP2 MSTORE SWAP1 PUSH1 0x40 MSTORE PUSH2 0x40E JUMP JUMPDEST SWAP6 POP JUMPDEST DUP5 PUSH2 0x82B DUP2 PUSH2 0xDB6 JUMP JUMPDEST SWAP6 POP POP PUSH2 0x76B JUMP JUMPDEST PUSH2 0x84F DUP5 DUP12 DUP15 DUP6 DUP6 PUSH1 0x40 MLOAD PUSH1 0x20 ADD PUSH2 0x80A SWAP6 SWAP5 SWAP4 SWAP3 SWAP2 SWAP1 PUSH2 0xDE6 JUMP JUMPDEST SWAP1 SWAP11 EQ SWAP12 SWAP11 POP POP POP POP POP POP POP POP POP POP POP JUMP JUMPDEST PUSH1 0x40 MLOAD DUP1 PUSH1 0x40 ADD PUSH1 0x40 MSTORE DUP1 PUSH1 0x2 SWAP1 PUSH1 0x20 DUP3 MUL DUP1 CALLDATASIZE DUP4 CALLDATACOPY POP SWAP2 SWAP3 SWAP2 POP POP JUMP JUMPDEST PUSH4 0x4E487B71 PUSH1 0xE0 SHL PUSH1 0x0 MSTORE PUSH1 0x41 PUSH1 0x4 MSTORE PUSH1 0x24 PUSH1 0x0 REVERT JUMPDEST PUSH1 0x40 DUP1 MLOAD SWAP1 DUP2 ADD PUSH8 0xFFFFFFFFFFFFFFFF DUP2 GT DUP3 DUP3 LT OR ISZERO PUSH2 0x8B8 JUMPI PUSH2 0x8B8 PUSH2 0x87F JUMP JUMPDEST PUSH1 0x40 MSTORE SWAP1 JUMP JUMPDEST PUSH1 0x40 MLOAD PUSH1 0x1F DUP3 ADD PUSH1 0x1F NOT AND DUP2 ADD PUSH8 0xFFFFFFFFFFFFFFFF DUP2 GT DUP3 DUP3 LT OR ISZERO PUSH2 0x8E7 JUMPI PUSH2 0x8E7 PUSH2 0x87F JUMP JUMPDEST PUSH1 0x40 MSTORE SWAP2 SWAP1 POP JUMP JUMPDEST PUSH1 0x0 DUP3 PUSH1 0x1F DUP4 ADD SLT PUSH2 0x900 JUMPI PUSH1 0x0 DUP1 REVERT JUMPDEST PUSH2 0x908 PUSH2 0x895 JUMP JUMPDEST DUP1 PUSH1 0x40 DUP5 ADD DUP6 DUP2 GT ISZERO PUSH2 0x91A JUMPI PUSH1 0x0 DUP1 REVERT JUMPDEST DUP5 JUMPDEST DUP2 DUP2 LT ISZERO PUSH2 0x934 JUMPI DUP1 CALLDATALOAD DUP5 MSTORE PUSH1 0x20 SWAP4 DUP5 ADD SWAP4 ADD PUSH2 0x91C JUMP JUMPDEST POP SWAP1 SWAP6 SWAP5 POP POP POP POP POP JUMP JUMPDEST PUSH1 0x0 DUP1 PUSH1 0x0 PUSH1 0x80 DUP5 DUP7 SUB SLT ISZERO PUSH2 0x954 JUMPI PUSH1 0x0 DUP1 REVERT JUMPDEST PUSH2 0x95E DUP6 DUP6 PUSH2 0x8EF JUMP JUMPDEST SWAP6 PUSH1 0x40 DUP6 ADD CALLDATALOAD SWAP6 POP PUSH1 0x60 SWAP1 SWAP5 ADD CALLDATALOAD SWAP4 SWAP3 POP POP POP JUMP JUMPDEST DUP1 PUSH1 0x0 JUMPDEST PUSH1 0x2 DUP2 LT ISZERO PUSH2 0x996 JUMPI DUP2 MLOAD DUP5 MSTORE PUSH1 0x20 SWAP4 DUP5 ADD SWAP4 SWAP1 SWAP2 ADD SWAP1 PUSH1 0x1 ADD PUSH2 0x977 JUMP JUMPDEST POP POP POP POP JUMP JUMPDEST PUSH1 0x40 DUP2 ADD PUSH2 0x408 DUP3 DUP5 PUSH2 0x973 JUMP JUMPDEST PUSH1 0x0 DUP1 PUSH1 0x0 DUP1 PUSH1 0xC0 DUP6 DUP8 SUB SLT ISZERO PUSH2 0x9C0 JUMPI PUSH1 0x0 DUP1 REVERT JUMPDEST PUSH2 0x9CA DUP7 DUP7 PUSH2 0x8EF JUMP JUMPDEST SWAP4 POP PUSH2 0x9D9 DUP7 PUSH1 0x40 DUP8 ADD PUSH2 0x8EF JUMP JUMPDEST SWAP4 SWAP7 SWAP4 SWAP6 POP POP POP POP PUSH1 0x80 DUP3 ADD CALLDATALOAD SWAP2 PUSH1 0xA0 ADD CALLDATALOAD SWAP1 JUMP JUMPDEST PUSH1 0x0 DUP3 PUSH1 0x1F DUP4 ADD SLT PUSH2 0x9FF JUMPI PUSH1 0x0 DUP1 REVERT JUMPDEST DUP2 CALLDATALOAD PUSH8 0xFFFFFFFFFFFFFFFF DUP2 GT ISZERO PUSH2 0xA19 JUMPI PUSH2 0xA19 PUSH2 0x87F JUMP JUMPDEST PUSH2 0xA2C PUSH1 0x1F DUP3 ADD PUSH1 0x1F NOT AND PUSH1 0x20 ADD PUSH2 0x8BE JUMP JUMPDEST DUP2 DUP2 MSTORE DUP5 PUSH1 0x20 DUP4 DUP7 ADD ADD GT ISZERO PUSH2 0xA41 JUMPI PUSH1 0x0 DUP1 REVERT JUMPDEST DUP2 PUSH1 0x20 DUP6 ADD PUSH1 0x20 DUP4 ADD CALLDATACOPY PUSH1 0x0 SWAP2 DUP2 ADD PUSH1 0x20 ADD SWAP2 SWAP1 SWAP2 MSTORE SWAP4 SWAP3 POP POP POP JUMP JUMPDEST PUSH1 0x0 PUSH1 0x20 DUP3 DUP5 SUB SLT ISZERO PUSH2 0xA70 JUMPI PUSH1 0x0 DUP1 REVERT JUMPDEST DUP2 CALLDATALOAD PUSH8 0xFFFFFFFFFFFFFFFF DUP2 GT ISZERO PUSH2 0xA87 JUMPI PUSH1 0x0 DUP1 REVERT JUMPDEST PUSH2 0xA93 DUP5 DUP3 DUP6 ADD PUSH2 0x9EE JUMP JUMPDEST SWAP5 SWAP4 POP POP POP POP JUMP JUMPDEST PUSH1 0x0 PUSH1 0x20 DUP3 DUP5 SUB SLT ISZERO PUSH2 0xAAD JUMPI PUSH1 0x0 DUP1 REVERT JUMPDEST POP CALLDATALOAD SWAP2 SWAP1 POP JUMP JUMPDEST PUSH1 0x0 PUSH8 0xFFFFFFFFFFFFFFFF DUP3 GT ISZERO PUSH2 0xACE JUMPI PUSH2 0xACE PUSH2 0x87F JUMP JUMPDEST POP PUSH1 0x5 SHL PUSH1 0x20 ADD SWAP1 JUMP JUMPDEST PUSH1 0x0 DUP3 PUSH1 0x1F DUP4 ADD SLT PUSH2 0xAE9 JUMPI PUSH1 0x0 DUP1 REVERT JUMPDEST DUP2 CALLDATALOAD PUSH1 0x20 PUSH2 0xAFE PUSH2 0xAF9 DUP4 PUSH2 0xAB4 JUMP JUMPDEST PUSH2 0x8BE JUMP JUMPDEST DUP3 DUP2 MSTORE PUSH1 0x6 SWAP3 SWAP1 SWAP3 SHL DUP5 ADD DUP2 ADD SWAP2 DUP2 DUP2 ADD SWAP1 DUP7 DUP5 GT ISZERO PUSH2 0xB1D JUMPI PUSH1 0x0 DUP1 REVERT JUMPDEST DUP3 DUP7 ADD JUMPDEST DUP5 DUP2 LT ISZERO PUSH2 0xB41 JUMPI PUSH2 0xB33 DUP9 DUP3 PUSH2 0x8EF JUMP JUMPDEST DUP4 MSTORE SWAP2 DUP4 ADD SWAP2 PUSH1 0x40 ADD PUSH2 0xB21 JUMP JUMPDEST POP SWAP7 SWAP6 POP POP POP POP POP POP JUMP JUMPDEST PUSH1 0x0 DUP1 PUSH1 0x0 DUP1 PUSH1 0x0 PUSH1 0xC0 DUP7 DUP9 SUB SLT ISZERO PUSH2 0xB64 JUMPI PUSH1 0x0 DUP1 REVERT JUMPDEST DUP6 CALLDATALOAD PUSH8 0xFFFFFFFFFFFFFFFF DUP1 DUP3 GT ISZERO PUSH2 0xB7C JUMPI PUSH1 0x0 DUP1 REVERT JUMPDEST PUSH2 0xB88 DUP10 DUP4 DUP11 ADD PUSH2 0x9EE JUMP JUMPDEST SWAP7 POP PUSH1 0x20 SWAP2 POP DUP2 DUP9 ADD CALLDATALOAD SWAP6 POP PUSH2 0xBA1 DUP10 PUSH1 0x40 DUP11 ADD PUSH2 0x8EF JUMP JUMPDEST SWAP5 POP PUSH1 0x80 DUP9 ADD CALLDATALOAD DUP2 DUP2 GT ISZERO PUSH2 0xBB5 JUMPI PUSH1 0x0 DUP1 REVERT JUMPDEST DUP9 ADD PUSH1 0x1F DUP2 ADD DUP11 SGT PUSH2 0xBC6 JUMPI PUSH1 0x0 DUP1 REVERT JUMPDEST DUP1 CALLDATALOAD PUSH2 0xBD4 PUSH2 0xAF9 DUP3 PUSH2 0xAB4 JUMP JUMPDEST DUP2 DUP2 MSTORE PUSH1 0x5 SWAP2 SWAP1 SWAP2 SHL DUP3 ADD DUP5 ADD SWAP1 DUP5 DUP2 ADD SWAP1 DUP13 DUP4 GT ISZERO PUSH2 0xBF3 JUMPI PUSH1 0x0 DUP1 REVERT JUMPDEST SWAP3 DUP6 ADD SWAP3 JUMPDEST DUP3 DUP5 LT ISZERO PUSH2 0xC11 JUMPI DUP4 CALLDATALOAD DUP3 MSTORE SWAP3 DUP6 ADD SWAP3 SWAP1 DUP6 ADD SWAP1 PUSH2 0xBF8 JUMP JUMPDEST SWAP7 POP POP POP POP PUSH1 0xA0 DUP9 ADD CALLDATALOAD SWAP2 POP DUP1 DUP3 GT ISZERO PUSH2 0xC2A JUMPI PUSH1 0x0 DUP1 REVERT JUMPDEST POP PUSH2 0xC37 DUP9 DUP3 DUP10 ADD PUSH2 0xAD8 JUMP JUMPDEST SWAP2 POP POP SWAP3 SWAP6 POP SWAP3 SWAP6 SWAP1 SWAP4 POP JUMP JUMPDEST PUSH1 0x0 PUSH1 0x40 DUP3 DUP5 SUB SLT ISZERO PUSH2 0xC56 JUMPI PUSH1 0x0 DUP1 REVERT JUMPDEST DUP3 PUSH1 0x1F DUP4 ADD SLT PUSH2 0xC65 JUMPI PUSH1 0x0 DUP1 REVERT JUMPDEST PUSH2 0xC6D PUSH2 0x895 JUMP JUMPDEST DUP1 PUSH1 0x40 DUP5 ADD DUP6 DUP2 GT ISZERO PUSH2 0xC7F JUMPI PUSH1 0x0 DUP1 REVERT JUMPDEST DUP5 JUMPDEST DUP2 DUP2 LT ISZERO PUSH2 0x934 JUMPI DUP1 MLOAD DUP5 MSTORE PUSH1 0x20 SWAP4 DUP5 ADD SWAP4 ADD PUSH2 0xC81 JUMP JUMPDEST PUSH1 0x60 DUP2 ADD PUSH2 0xCA7 DUP3 DUP6 PUSH2 0x973 JUMP JUMPDEST DUP3 PUSH1 0x40 DUP4 ADD MSTORE SWAP4 SWAP3 POP POP POP JUMP JUMPDEST PUSH1 0x80 DUP2 ADD PUSH2 0xCC2 DUP3 DUP6 PUSH2 0x973 JUMP JUMPDEST PUSH2 0x273 PUSH1 0x40 DUP4 ADD DUP5 PUSH2 0x973 JUMP JUMPDEST PUSH1 0x0 PUSH1 0x20 DUP3 DUP5 SUB SLT ISZERO PUSH2 0xCE1 JUMPI PUSH1 0x0 DUP1 REVERT JUMPDEST POP MLOAD SWAP2 SWAP1 POP JUMP JUMPDEST PUSH1 0x0 DUP1 PUSH1 0x40 DUP4 DUP6 SUB SLT ISZERO PUSH2 0xCFB JUMPI PUSH1 0x0 DUP1 REVERT JUMPDEST POP POP DUP1 MLOAD PUSH1 0x20 SWAP1 SWAP2 ADD MLOAD SWAP1 SWAP3 SWAP1 SWAP2 POP JUMP JUMPDEST PUSH1 0x0 PUSH1 0x20 DUP3 DUP5 SUB SLT ISZERO PUSH2 0xD1E JUMPI PUSH1 0x0 DUP1 REVERT JUMPDEST DUP2 MLOAD DUP1 ISZERO ISZERO DUP2 EQ PUSH2 0x273 JUMPI PUSH1 0x0 DUP1 REVERT JUMPDEST PUSH4 0x4E487B71 PUSH1 0xE0 SHL PUSH1 0x0 MSTORE PUSH1 0x32 PUSH1 0x4 MSTORE PUSH1 0x24 PUSH1 0x0 REVERT JUMPDEST PUSH1 0x0 DUP2 MLOAD PUSH1 0x0 JUMPDEST DUP2 DUP2 LT ISZERO PUSH2 0xD65 JUMPI PUSH1 0x20 DUP2 DUP6 ADD DUP2 ADD MLOAD DUP7 DUP4 ADD MSTORE ADD PUSH2 0xD4B JUMP JUMPDEST DUP2 DUP2 GT ISZERO PUSH2 0xD74 JUMPI PUSH1 0x0 DUP3 DUP7 ADD MSTORE JUMPDEST POP SWAP3 SWAP1 SWAP3 ADD SWAP3 SWAP2 POP POP JUMP JUMPDEST PUSH1 0x0 PUSH2 0xD8B DUP3 DUP6 PUSH2 0xD44 JUMP JUMPDEST PUSH2 0xD95 DUP2 DUP6 PUSH2 0x973 JUMP JUMPDEST PUSH1 0x40 ADD SWAP5 SWAP4 POP POP POP POP JUMP JUMPDEST PUSH4 0x4E487B71 PUSH1 0xE0 SHL PUSH1 0x0 MSTORE PUSH1 0x11 PUSH1 0x4 MSTORE PUSH1 0x24 PUSH1 0x0 REVERT JUMPDEST PUSH1 0x0 PUSH1 0x1 DUP3 ADD PUSH2 0xDC8 JUMPI PUSH2 0xDC8 PUSH2 0xDA0 JUMP JUMPDEST POP PUSH1 0x1 ADD SWAP1 JUMP JUMPDEST PUSH1 0x0 DUP3 DUP3 LT ISZERO PUSH2 0xDE1 JUMPI PUSH2 0xDE1 PUSH2 0xDA0 JUMP JUMPDEST POP SUB SWAP1 JUMP JUMPDEST PUSH1 0x0 PUSH2 0xDF2 DUP3 DUP9 PUSH2 0xD44 JUMP JUMPDEST PUSH2 0xDFC DUP2 DUP9 PUSH2 0x973 JUMP JUMPDEST PUSH2 0xE09 PUSH1 0x40 DUP3 ADD DUP8 PUSH2 0xD44 JUMP JUMPDEST SWAP1 POP PUSH2 0xE15 DUP2 DUP7 PUSH2 0x973 JUMP JUMPDEST PUSH2 0xE22 PUSH1 0x40 DUP3 ADD DUP6 PUSH2 0x973 JUMP JUMPDEST PUSH1 0x80 ADD SWAP8 SWAP7 POP POP POP POP POP POP POP JUMP INVALID LOG2 PUSH5 0x6970667358 0x22 SLT KECCAK256 SWAP15 0xE3 0xED PC MULMOD 0xD8 JUMP SHL 0xEB RETURNDATASIZE 0x2B 0xA7 DIV 0x2F 0xD5 CALLDATALOAD 0xC 0x49 0xE9 0xD0 CALLCODE 0xEA LOG4 0xB9 0xBC SLT 0xC8 ADDRESS PUSH8 0x5C8E7F64736F6C63 NUMBER STOP ADDMOD 0xD STOP CALLER ",
  "sha1": "ebe39c0e75aefd172c4303e9d3a98ae49844b217",
  "source": "// SPDX-License-Identifier: AGPL-3.0-only\n\npragma solidity ^0.8.5;\n\nimport \"./AltBn128.sol\";\n\n/*\nLinkable Spontaneous Anonymous Groups\nhttps://eprint.iacr.org/2004/027.pdf\n*/\n\nlibrary LSAG {\n    // abi.encodePacked is the \"concat\" or \"serialization\"\n    // of all supplied arguments into one long bytes value\n    // i.e. abi.encodePacked :: [a] -> bytes\n\n    /**\n    * Converts an integer to an elliptic curve point\n    */\n    function intToPoint(uint256 _x) public view\n        returns (uint256[2] memory)\n    {\n        uint256 x = _x;\n        uint256 y;\n        uint256 beta;\n\n        while (true) {\n            (beta, y) = AltBn128.evalCurve(x);\n\n            if (AltBn128.onCurveBeta(beta, y)) {\n                return [x, y];\n            }\n\n            x = AltBn128.addmodn(x, 1);\n        }\n    }\n\n    /**\n    * Returns an integer representation of the hash\n    * of the input\n    */\n    function H1(bytes memory b) public pure\n        returns (uint256)\n    {\n        return AltBn128.modn(uint256(keccak256(b)));\n    }\n\n    /**\n    * Returns elliptic curve point of the integer representation\n    * of the hash of the input\n    */\n    function H2(bytes memory b) public view\n        returns (uint256[2] memory)\n    {\n        return intToPoint(H1(b));\n    }\n\n    /**\n    * Helper function to calculate Z1\n    * Avoids stack too deep problem\n    */\n    function ringCalcZ1(\n        uint256[2] memory pubKey,\n        uint256 c,\n        uint256 s\n    ) public view\n        returns (uint256[2] memory)\n    {\n        return AltBn128.ecAdd(\n            AltBn128.ecMulG(s),\n            AltBn128.ecMul(pubKey, c)\n        );\n    }\n\n    /**\n    * Helper function to calculate Z2\n    * Avoids stack too deep problem\n    */\n    function ringCalcZ2(\n        uint256[2] memory keyImage,\n        uint256[2] memory h,\n        uint256 s,\n        uint256 c\n    ) public view\n        returns (uint256[2] memory)\n    {\n        return AltBn128.ecAdd(\n            AltBn128.ecMul(h, s),\n            AltBn128.ecMul(keyImage, c)\n        );\n    }\n\n\n    /**\n    * Verifies the ring signature\n    * Section 4.2 of the paper https://eprint.iacr.org/2004/027.pdf\n    */\n    function verify(\n        bytes memory message,\n        uint256 c0,\n        uint256[2] memory keyImage,\n        uint256[] memory s,\n        uint256[2][] memory publicKeys\n    ) public view\n        returns (bool)\n    {\n        require(publicKeys.length >= 2, \"Signature size too small\");\n        require(publicKeys.length == s.length, \"Signature sizes do not match!\");\n\n        uint256 c = c0;\n        uint256 i = 0;\n\n        // Step 1\n        // Extract out public key bytes\n        bytes memory hBytes = \"\";\n\n        for (i = 0; i < publicKeys.length; i++) {\n            hBytes = abi.encodePacked(\n                hBytes,\n                publicKeys[i]\n            );\n        }\n\n        uint256[2] memory h = H2(hBytes);\n\n        // Step 2\n        uint256[2] memory z_1;\n        uint256[2] memory z_2;\n\n\n        for (i = 0; i < publicKeys.length; i++) {\n            z_1 = ringCalcZ1(publicKeys[i], c, s[i]);\n            z_2 = ringCalcZ2(keyImage, h, s[i], c);\n\n            if (i != publicKeys.length - 1) {\n                c = H1(\n                    abi.encodePacked(\n                        hBytes,\n                        keyImage,\n                        message,\n                        z_1,\n                        z_2\n                    )\n                );\n            }\n        }\n\n        return c0 == H1(\n            abi.encodePacked(\n                hBytes,\n                keyImage,\n                message,\n                z_1,\n                z_2\n            )\n        );\n    }\n}",
  "sourcePath": "contracts/lib/LSAG.sol",
  "type": "library"
}